{
  "_format": "hh-sol-artifact-1",
  "contractName": "idoplatform",
  "sourceName": "contracts/idoplatform.sol",
  "abi": [
    {
      "inputs": [
        {
          "internalType": "address",
          "name": "_token",
          "type": "address"
        },
        {
          "internalType": "address",
          "name": "_swappiNFT",
          "type": "address"
        },
        {
          "internalType": "address",
          "name": "_router",
          "type": "address"
        },
        {
          "internalType": "address",
          "name": "_swappiFactory",
          "type": "address"
        },
        {
          "internalType": "address",
          "name": "_votingEscrow",
          "type": "address"
        }
      ],
      "stateMutability": "nonpayable",
      "type": "constructor"
    },
    {
      "anonymous": false,
      "inputs": [
        {
          "indexed": true,
          "internalType": "address",
          "name": "previousOwner",
          "type": "address"
        },
        {
          "indexed": true,
          "internalType": "address",
          "name": "newOwner",
          "type": "address"
        }
      ],
      "name": "OwnershipTransferred",
      "type": "event"
    },
    {
      "inputs": [
        {
          "internalType": "address",
          "name": "token_addr",
          "type": "address"
        },
        {
          "internalType": "uint256",
          "name": "ido_id",
          "type": "uint256"
        }
      ],
      "name": "addIDOToken",
      "outputs": [],
      "stateMutability": "nonpayable",
      "type": "function"
    },
    {
      "inputs": [
        {
          "internalType": "address",
          "name": "token_addr",
          "type": "address"
        },
        {
          "internalType": "address[]",
          "name": "whitelistAddress",
          "type": "address[]"
        },
        {
          "internalType": "uint256[]",
          "name": "maxAmtPerEntryInWhitelist",
          "type": "uint256[]"
        }
      ],
      "name": "adminAddWhitelist",
      "outputs": [],
      "stateMutability": "nonpayable",
      "type": "function"
    },
    {
      "inputs": [
        {
          "internalType": "address",
          "name": "token_addr",
          "type": "address"
        },
        {
          "internalType": "string",
          "name": "projectName",
          "type": "string"
        },
        {
          "internalType": "uint256",
          "name": "amt",
          "type": "uint256"
        },
        {
          "internalType": "uint256",
          "name": "ratioForLP",
          "type": "uint256"
        },
        {
          "internalType": "uint256",
          "name": "priceForLP",
          "type": "uint256"
        },
        {
          "internalType": "uint256",
          "name": "numOfWhitelistMembers",
          "type": "uint256"
        },
        {
          "internalType": "uint256[7]",
          "name": "privateData",
          "type": "uint256[7]"
        },
        {
          "internalType": "uint256[2]",
          "name": "publicData",
          "type": "uint256[2]"
        }
      ],
      "name": "adminApproval",
      "outputs": [],
      "stateMutability": "nonpayable",
      "type": "function"
    },
    {
      "inputs": [
        {
          "internalType": "address",
          "name": "token_addr",
          "type": "address"
        },
        {
          "internalType": "uint256",
          "name": "IDOId",
          "type": "uint256"
        }
      ],
      "name": "claimAllTokens",
      "outputs": [],
      "stateMutability": "nonpayable",
      "type": "function"
    },
    {
      "inputs": [
        {
          "internalType": "address",
          "name": "",
          "type": "address"
        }
      ],
      "name": "currentIDOId",
      "outputs": [
        {
          "internalType": "uint256",
          "name": "",
          "type": "uint256"
        }
      ],
      "stateMutability": "view",
      "type": "function"
    },
    {
      "inputs": [
        {
          "internalType": "address",
          "name": "token_addr",
          "type": "address"
        },
        {
          "internalType": "uint256",
          "name": "IDOId",
          "type": "uint256"
        }
      ],
      "name": "finalize",
      "outputs": [
        {
          "internalType": "bool",
          "name": "",
          "type": "bool"
        }
      ],
      "stateMutability": "nonpayable",
      "type": "function"
    },
    {
      "inputs": [
        {
          "internalType": "address",
          "name": "token_addr",
          "type": "address"
        },
        {
          "internalType": "uint256",
          "name": "id",
          "type": "uint256"
        }
      ],
      "name": "getAmtOfCFXCollected",
      "outputs": [
        {
          "internalType": "uint256",
          "name": "",
          "type": "uint256"
        }
      ],
      "stateMutability": "view",
      "type": "function"
    },
    {
      "inputs": [
        {
          "internalType": "address",
          "name": "token_addr",
          "type": "address"
        },
        {
          "internalType": "uint256",
          "name": "id",
          "type": "uint256"
        },
        {
          "internalType": "address",
          "name": "buyer_addr",
          "type": "address"
        }
      ],
      "name": "getAmtOfCFXForBuyer",
      "outputs": [
        {
          "internalType": "uint256",
          "name": "",
          "type": "uint256"
        }
      ],
      "stateMutability": "view",
      "type": "function"
    },
    {
      "inputs": [
        {
          "internalType": "address",
          "name": "token_addr",
          "type": "address"
        },
        {
          "internalType": "uint256",
          "name": "id",
          "type": "uint256"
        },
        {
          "internalType": "address",
          "name": "buyer_addr",
          "type": "address"
        }
      ],
      "name": "getAmtOfTokenForBuyer",
      "outputs": [
        {
          "internalType": "uint256",
          "name": "",
          "type": "uint256"
        }
      ],
      "stateMutability": "view",
      "type": "function"
    },
    {
      "inputs": [
        {
          "internalType": "address",
          "name": "token_addr",
          "type": "address"
        }
      ],
      "name": "getCurrentIDOIdByTokenAddr",
      "outputs": [
        {
          "internalType": "uint256",
          "name": "",
          "type": "uint256"
        }
      ],
      "stateMutability": "view",
      "type": "function"
    },
    {
      "inputs": [
        {
          "internalType": "address",
          "name": "token_addr",
          "type": "address"
        },
        {
          "internalType": "uint256",
          "name": "id",
          "type": "uint256"
        }
      ],
      "name": "isIDOActiveByID",
      "outputs": [
        {
          "internalType": "bool",
          "name": "",
          "type": "bool"
        }
      ],
      "stateMutability": "view",
      "type": "function"
    },
    {
      "inputs": [
        {
          "internalType": "address",
          "name": "token_addr",
          "type": "address"
        },
        {
          "internalType": "uint256",
          "name": "id",
          "type": "uint256"
        },
        {
          "internalType": "address",
          "name": "buyer_addr",
          "type": "address"
        }
      ],
      "name": "isInWhitelist",
      "outputs": [
        {
          "internalType": "bool",
          "name": "",
          "type": "bool"
        }
      ],
      "stateMutability": "view",
      "type": "function"
    },
    {
      "inputs": [
        {
          "internalType": "address",
          "name": "token_addr",
          "type": "address"
        },
        {
          "internalType": "uint256",
          "name": "id",
          "type": "uint256"
        },
        {
          "internalType": "address",
          "name": "buyer_addr",
          "type": "address"
        }
      ],
      "name": "maxAmountInPrivateSaleByAddr",
      "outputs": [
        {
          "internalType": "uint256",
          "name": "",
          "type": "uint256"
        }
      ],
      "stateMutability": "view",
      "type": "function"
    },
    {
      "inputs": [],
      "name": "owner",
      "outputs": [
        {
          "internalType": "address",
          "name": "",
          "type": "address"
        }
      ],
      "stateMutability": "view",
      "type": "function"
    },
    {
      "inputs": [
        {
          "internalType": "address",
          "name": "token_addr",
          "type": "address"
        },
        {
          "internalType": "uint256",
          "name": "amt_to_buy",
          "type": "uint256"
        }
      ],
      "name": "privateSale",
      "outputs": [],
      "stateMutability": "payable",
      "type": "function"
    },
    {
      "inputs": [
        {
          "internalType": "address",
          "name": "token_addr",
          "type": "address"
        },
        {
          "internalType": "uint256",
          "name": "amt_to_buy",
          "type": "uint256"
        }
      ],
      "name": "publicSale",
      "outputs": [],
      "stateMutability": "payable",
      "type": "function"
    },
    {
      "inputs": [
        {
          "internalType": "address",
          "name": "",
          "type": "address"
        },
        {
          "internalType": "uint256",
          "name": "",
          "type": "uint256"
        }
      ],
      "name": "remainingAmtOfWhitelistMembers",
      "outputs": [
        {
          "internalType": "uint256",
          "name": "",
          "type": "uint256"
        }
      ],
      "stateMutability": "view",
      "type": "function"
    },
    {
      "inputs": [],
      "name": "renounceOwnership",
      "outputs": [],
      "stateMutability": "nonpayable",
      "type": "function"
    },
    {
      "inputs": [
        {
          "internalType": "address",
          "name": "",
          "type": "address"
        },
        {
          "internalType": "uint256",
          "name": "",
          "type": "uint256"
        }
      ],
      "name": "tokenInfo",
      "outputs": [
        {
          "internalType": "bool",
          "name": "isApproved",
          "type": "bool"
        },
        {
          "internalType": "bool",
          "name": "valid",
          "type": "bool"
        },
        {
          "internalType": "address",
          "name": "tokenOwner",
          "type": "address"
        },
        {
          "internalType": "string",
          "name": "projectName",
          "type": "string"
        },
        {
          "internalType": "uint256",
          "name": "totalAmt",
          "type": "uint256"
        },
        {
          "internalType": "uint256",
          "name": "amt",
          "type": "uint256"
        },
        {
          "internalType": "uint256",
          "name": "amtForLP",
          "type": "uint256"
        },
        {
          "internalType": "uint256",
          "name": "priceForLP",
          "type": "uint256"
        },
        {
          "internalType": "uint256",
          "name": "amtOfCFXCollected",
          "type": "uint256"
        },
        {
          "components": [
            {
              "internalType": "uint256",
              "name": "veTokenThreshold",
              "type": "uint256"
            },
            {
              "internalType": "uint256",
              "name": "amount",
              "type": "uint256"
            },
            {
              "internalType": "uint256",
              "name": "price",
              "type": "uint256"
            },
            {
              "internalType": "uint256",
              "name": "startTime",
              "type": "uint256"
            },
            {
              "internalType": "uint256",
              "name": "endTime",
              "type": "uint256"
            },
            {
              "internalType": "uint256",
              "name": "totalAmt",
              "type": "uint256"
            },
            {
              "internalType": "uint256",
              "name": "NFTThreshold",
              "type": "uint256"
            },
            {
              "internalType": "uint256",
              "name": "maxAmtPerBuyer",
              "type": "uint256"
            },
            {
              "internalType": "uint256",
              "name": "amountExcludingWhitelist",
              "type": "uint256"
            }
          ],
          "internalType": "struct idoplatform.privateSpecs",
          "name": "priSaleInfo",
          "type": "tuple"
        },
        {
          "components": [
            {
              "internalType": "uint256",
              "name": "price",
              "type": "uint256"
            },
            {
              "internalType": "uint256",
              "name": "endTime",
              "type": "uint256"
            }
          ],
          "internalType": "struct idoplatform.publicSpecs",
          "name": "pubSaleInfo",
          "type": "tuple"
        },
        {
          "internalType": "uint256",
          "name": "totalMaxAmountOfWhitelist",
          "type": "uint256"
        }
      ],
      "stateMutability": "view",
      "type": "function"
    },
    {
      "inputs": [
        {
          "internalType": "address",
          "name": "newOwner",
          "type": "address"
        }
      ],
      "name": "transferOwnership",
      "outputs": [],
      "stateMutability": "nonpayable",
      "type": "function"
    }
  ],
  "bytecode": "0x60806040523480156200001157600080fd5b5060405162006c6438038062006c6483398181016040528101906200003791906200028a565b620000576200004b620001a760201b60201c565b620001af60201b60201c565b84600160006101000a81548173ffffffffffffffffffffffffffffffffffffffff021916908373ffffffffffffffffffffffffffffffffffffffff16021790555083600260006101000a81548173ffffffffffffffffffffffffffffffffffffffff021916908373ffffffffffffffffffffffffffffffffffffffff16021790555082600360006101000a81548173ffffffffffffffffffffffffffffffffffffffff021916908373ffffffffffffffffffffffffffffffffffffffff16021790555081600460006101000a81548173ffffffffffffffffffffffffffffffffffffffff021916908373ffffffffffffffffffffffffffffffffffffffff16021790555080600560006101000a81548173ffffffffffffffffffffffffffffffffffffffff021916908373ffffffffffffffffffffffffffffffffffffffff16021790555050505050506200035a565b600033905090565b60008060009054906101000a900473ffffffffffffffffffffffffffffffffffffffff169050816000806101000a81548173ffffffffffffffffffffffffffffffffffffffff021916908373ffffffffffffffffffffffffffffffffffffffff1602179055508173ffffffffffffffffffffffffffffffffffffffff168173ffffffffffffffffffffffffffffffffffffffff167f8be0079c531659141344cd1fd0a4f28419497f9722a3daafe3b4186f6b6457e060405160405180910390a35050565b600081519050620002848162000340565b92915050565b600080600080600060a08688031215620002a357600080fd5b6000620002b38882890162000273565b9550506020620002c68882890162000273565b9450506040620002d98882890162000273565b9350506060620002ec8882890162000273565b9250506080620002ff8882890162000273565b9150509295509295909350565b6000620003198262000320565b9050919050565b600073ffffffffffffffffffffffffffffffffffffffff82169050919050565b6200034b816200030c565b81146200035757600080fd5b50565b6168fa806200036a6000396000f3fe60806040526004361061011f5760003560e01c806387e4d2a7116100a0578063bb7d88a911610064578063bb7d88a91461040e578063d50a3d2c14610456578063d657882014610472578063f09eb79c146104af578063f2fde38b146104ec5761011f565b806387e4d2a7146103175780638d492e8b146103405780638d623aad1461037d5780638da5cb5b146103a6578063a3d32768146103d15761011f565b8063218db284116100e7578063218db2841461024157806339c92b8e1461027e578063585fd73e146102a7578063715018a6146102c35780637634c01a146102da5761011f565b806301937319146101245780630553e156146101615780630590db111461019e5780630704cc88146101c757806307691b8014610204575b600080fd5b34801561013057600080fd5b5061014b60048036038101906101469190614aad565b610515565b60405161015891906158db565b60405180910390f35b34801561016d57600080fd5b5061018860048036038101906101839190614c20565b61055e565b604051610195919061541d565b60405180910390f35b3480156101aa57600080fd5b506101c560048036038101906101c09190614ad6565b610b87565b005b3480156101d357600080fd5b506101ee60048036038101906101e99190614c20565b611160565b6040516101fb919061541d565b60405180910390f35b34801561021057600080fd5b5061022b60048036038101906102269190614c5c565b6111cb565b60405161023891906158db565b60405180910390f35b34801561024d57600080fd5b5061026860048036038101906102639190614c5c565b61135d565b60405161027591906158db565b60405180910390f35b34801561028a57600080fd5b506102a560048036038101906102a09190614c20565b6113f9565b005b6102c160048036038101906102bc9190614c20565b61175d565b005b3480156102cf57600080fd5b506102d8611bbe565b005b3480156102e657600080fd5b5061030160048036038101906102fc9190614aad565b611c46565b60405161030e91906158db565b60405180910390f35b34801561032357600080fd5b5061033e60048036038101906103399190614c20565b611c5e565b005b34801561034c57600080fd5b5061036760048036038101906103629190614c5c565b611e22565b604051610374919061541d565b60405180910390f35b34801561038957600080fd5b506103a4600480360381019061039f9190614b55565b611ec1565b005b3480156103b257600080fd5b506103bb61292e565b6040516103c89190615341565b60405180910390f35b3480156103dd57600080fd5b506103f860048036038101906103f39190614c20565b612957565b60405161040591906158db565b60405180910390f35b34801561041a57600080fd5b5061043560048036038101906104309190614c20565b6129b5565b60405161044d9c9b9a99989796959493929190615438565b60405180910390f35b610470600480360381019061046b9190614c20565b612b67565b005b34801561047e57600080fd5b5061049960048036038101906104949190614c20565b6140f8565b6040516104a691906158db565b60405180910390f35b3480156104bb57600080fd5b506104d660048036038101906104d19190614c5c565b61411d565b6040516104e391906158db565b60405180910390f35b3480156104f857600080fd5b50610513600480360381019061050e9190614aad565b6141b9565b005b6000600660008373ffffffffffffffffffffffffffffffffffffffff1673ffffffffffffffffffffffffffffffffffffffff168152602001908152602001600020549050919050565b600080600860008573ffffffffffffffffffffffffffffffffffffffff1673ffffffffffffffffffffffffffffffffffffffff168152602001908152602001600020600084815260200190815260200160002090508060000160019054906101000a900460ff1680156105df57508060000160009054906101000a900460ff165b15610b7b574281601001600101541015610b715760008160000160016101000a81548160ff02191690831515021790555060008160000160006101000a81548160ff02191690831515021790555060008473ffffffffffffffffffffffffffffffffffffffff1663313ce5676040518163ffffffff1660e01b815260040160206040518083038186803b15801561067557600080fd5b505afa158015610689573d6000803e3d6000fd5b505050506040513d601f19601f820116820180604052508101906106ad9190614d4c565b600a6106b99190615afc565b826005015483600401546106cd9190615c1a565b6106d79190615a78565b90506000826006015482116106f0578260040154610799565b8573ffffffffffffffffffffffffffffffffffffffff1663313ce5676040518163ffffffff1660e01b815260040160206040518083038186803b15801561073657600080fd5b505afa15801561074a573d6000803e3d6000fd5b505050506040513d601f19601f8201168201806040525081019061076e9190614d4c565b600a61077a9190615afc565b8360050154846006015461078e9190615a78565b6107989190615c1a565b5b90506000836006015483116107ae57826107b4565b83600601545b90508673ffffffffffffffffffffffffffffffffffffffff1663095ea7b3600360009054906101000a900473ffffffffffffffffffffffffffffffffffffffff16846040518363ffffffff1660e01b8152600401610813929190615393565b602060405180830381600087803b15801561082d57600080fd5b505af1158015610841573d6000803e3d6000fd5b505050506040513d601f19601f820116820180604052508101906108659190614cab565b50600080600360009054906101000a900473ffffffffffffffffffffffffffffffffffffffff1673ffffffffffffffffffffffffffffffffffffffff16838a866000808b60000160029054906101000a900473ffffffffffffffffffffffffffffffffffffffff166001426108da9190615a22565b6040516024016108ef969594939291906153bc565b6040516020818303038152906040527ff305d719000000000000000000000000000000000000000000000000000000007bffffffffffffffffffffffffffffffffffffffffffffffffffffffff19166020820180517bffffffffffffffffffffffffffffffffffffffffffffffffffffffff8381831617835250505050604051610979919061532a565b60006040518083038185875af1925050503d80600081146109b6576040519150601f19603f3d011682016040523d82523d6000602084013e6109bb565b606091505b50915091508115610ab057600080828060200190518101906109dd9190614cfd565b5091509150610a2f8b8960000160029054906101000a900473ffffffffffffffffffffffffffffffffffffffff16848b600401548c60030154610a209190615a22565b610a2a9190615c74565b6142b1565b8760000160029054906101000a900473ffffffffffffffffffffffffffffffffffffffff1673ffffffffffffffffffffffffffffffffffffffff166108fc828a60060154610a7d9190615c74565b9081150290604051600060405180830381858888f19350505050158015610aa8573d6000803e3d6000fd5b505050610b62565b610af2898760000160029054906101000a900473ffffffffffffffffffffffffffffffffffffffff1688600401548960030154610aed9190615a22565b6142b1565b8560000160029054906101000a900473ffffffffffffffffffffffffffffffffffffffff1673ffffffffffffffffffffffffffffffffffffffff166108fc87600601549081150290604051600060405180830381858888f19350505050158015610b60573d6000803e3d6000fd5b505b60019650505050505050610b81565b6000915050610b81565b60009150505b92915050565b610b8f614337565b73ffffffffffffffffffffffffffffffffffffffff16610bad61292e565b73ffffffffffffffffffffffffffffffffffffffff1614610c03576040517f08c379a0000000000000000000000000000000000000000000000000000000008152600401610bfa9061579b565b60405180910390fd5b6000600860008573ffffffffffffffffffffffffffffffffffffffff1673ffffffffffffffffffffffffffffffffffffffff1681526020019081526020016000206000600660008773ffffffffffffffffffffffffffffffffffffffff1673ffffffffffffffffffffffffffffffffffffffff1681526020019081526020016000205481526020019081526020016000209050600115158160000160009054906101000a900460ff16151514610cee576040517f08c379a0000000000000000000000000000000000000000000000000000000008152600401610ce5906157db565b60405180910390fd5b600015158160000160019054906101000a900460ff16151514610d46576040517f08c379a0000000000000000000000000000000000000000000000000000000008152600401610d3d9061553b565b60405180910390fd5b4281600701600301541015610d90576040517f08c379a0000000000000000000000000000000000000000000000000000000008152600401610d87906156bb565b60405180910390fd5b8151835114610dd4576040517f08c379a0000000000000000000000000000000000000000000000000000000008152600401610dcb9061551b565b60405180910390fd5b6000835190506000805b828110156110c8576000846014016000888481518110610e27577f4e487b7100000000000000000000000000000000000000000000000000000000600052603260045260246000fd5b602002602001015173ffffffffffffffffffffffffffffffffffffffff1673ffffffffffffffffffffffffffffffffffffffff168152602001908152602001600020541415610fee57848181518110610ea9577f4e487b7100000000000000000000000000000000000000000000000000000000600052603260045260246000fd5b602002602001015182610ebc9190615a22565b91506001600760008973ffffffffffffffffffffffffffffffffffffffff1673ffffffffffffffffffffffffffffffffffffffff1681526020019081526020016000206000600660008b73ffffffffffffffffffffffffffffffffffffffff1673ffffffffffffffffffffffffffffffffffffffff16815260200190815260200160002054815260200190815260200160002054610f5a9190615c74565b600760008973ffffffffffffffffffffffffffffffffffffffff1673ffffffffffffffffffffffffffffffffffffffff1681526020019081526020016000206000600660008b73ffffffffffffffffffffffffffffffffffffffff1673ffffffffffffffffffffffffffffffffffffffff168152602001908152602001600020548152602001908152602001600020819055505b848181518110611027577f4e487b7100000000000000000000000000000000000000000000000000000000600052603260045260246000fd5b602002602001015184601401600088848151811061106e577f4e487b7100000000000000000000000000000000000000000000000000000000600052603260045260246000fd5b602002602001015173ffffffffffffffffffffffffffffffffffffffff1673ffffffffffffffffffffffffffffffffffffffff168152602001908152602001600020819055506001816110c19190615a22565b9050610dde565b508083601501546110d99190615a22565b83600701600501541015611122576040517f08c379a00000000000000000000000000000000000000000000000000000000081526004016111199061557b565b60405180910390fd5b8083601501546111329190615a22565b836015018190555080836007016008015461114d9190615c74565b8360070160080181905550505050505050565b6000600860008473ffffffffffffffffffffffffffffffffffffffff1673ffffffffffffffffffffffffffffffffffffffff168152602001908152602001600020600083815260200190815260200160002060000160019054906101000a900460ff16905092915050565b600080600860008673ffffffffffffffffffffffffffffffffffffffff1673ffffffffffffffffffffffffffffffffffffffff168152602001908152602001600020600085815260200190815260200160002060140160008473ffffffffffffffffffffffffffffffffffffffff1673ffffffffffffffffffffffffffffffffffffffff16815260200190815260200160002054146112fc57600860008573ffffffffffffffffffffffffffffffffffffffff1673ffffffffffffffffffffffffffffffffffffffff168152602001908152602001600020600084815260200190815260200160002060140160008373ffffffffffffffffffffffffffffffffffffffff1673ffffffffffffffffffffffffffffffffffffffff168152602001908152602001600020549050611356565b600860008573ffffffffffffffffffffffffffffffffffffffff1673ffffffffffffffffffffffffffffffffffffffff16815260200190815260200160002060008481526020019081526020016000206007016007015490505b9392505050565b6000600860008573ffffffffffffffffffffffffffffffffffffffff1673ffffffffffffffffffffffffffffffffffffffff168152602001908152602001600020600084815260200190815260200160002060130160008373ffffffffffffffffffffffffffffffffffffffff1673ffffffffffffffffffffffffffffffffffffffff1681526020019081526020016000205490509392505050565b600660008373ffffffffffffffffffffffffffffffffffffffff1673ffffffffffffffffffffffffffffffffffffffff16815260200190815260200160002054811461147a576040517f08c379a00000000000000000000000000000000000000000000000000000000081526004016114719061569b565b60405180910390fd5b6000600760008473ffffffffffffffffffffffffffffffffffffffff1673ffffffffffffffffffffffffffffffffffffffff1681526020019081526020016000206000600660008673ffffffffffffffffffffffffffffffffffffffff1673ffffffffffffffffffffffffffffffffffffffff168152602001908152602001600020548152602001908152602001600020541461154c576040517f08c379a0000000000000000000000000000000000000000000000000000000008152600401611543906156db565b60405180910390fd5b6000600860008473ffffffffffffffffffffffffffffffffffffffff1673ffffffffffffffffffffffffffffffffffffffff1681526020019081526020016000206000600660008673ffffffffffffffffffffffffffffffffffffffff1673ffffffffffffffffffffffffffffffffffffffff1681526020019081526020016000205481526020019081526020016000209050600115158160000160009054906101000a900460ff16151514611637576040517f08c379a000000000000000000000000000000000000000000000000000000000815260040161162e906157db565b60405180910390fd5b600015158160000160019054906101000a900460ff1615151461168f576040517f08c379a00000000000000000000000000000000000000000000000000000000081526004016116869061553b565b60405180910390fd5b42816007016003015410156116d9576040517f08c379a00000000000000000000000000000000000000000000000000000000081526004016116d09061575b565b60405180910390fd5b60018160000160016101000a81548160ff021916908315150217905550338160000160026101000a81548173ffffffffffffffffffffffffffffffffffffffff021916908373ffffffffffffffffffffffffffffffffffffffff160217905550611758833330846004015485600301546117539190615a22565b61433f565b505050565b6000600860008473ffffffffffffffffffffffffffffffffffffffff1673ffffffffffffffffffffffffffffffffffffffff1681526020019081526020016000206000600660008673ffffffffffffffffffffffffffffffffffffffff1673ffffffffffffffffffffffffffffffffffffffff1681526020019081526020016000205481526020019081526020016000209050600115158160000160019054906101000a900460ff16151514611848576040517f08c379a000000000000000000000000000000000000000000000000000000000815260040161183f9061563b565b60405180910390fd5b428160070160040154111580611865575060008160070160010154145b6118a4576040517f08c379a000000000000000000000000000000000000000000000000000000000815260040161189b906155bb565b60405180910390fd5b42816010016001015410156118ee576040517f08c379a00000000000000000000000000000000000000000000000000000000081526004016118e59061587b565b60405180910390fd5b6000816003015411611935576040517f08c379a000000000000000000000000000000000000000000000000000000000815260040161192c9061589b565b60405180910390fd5b806003015482111561197c576040517f08c379a00000000000000000000000000000000000000000000000000000000081526004016119739061561b565b60405180910390fd5b80601001600001548261198f9190615c1a565b8373ffffffffffffffffffffffffffffffffffffffff1663313ce5676040518163ffffffff1660e01b815260040160206040518083038186803b1580156119d557600080fd5b505afa1580156119e9573d6000803e3d6000fd5b505050506040513d601f19601f82011682018060405250810190611a0d9190614d4c565b600a611a199190615afc565b34611a249190615c1a565b1015611a65576040517f08c379a0000000000000000000000000000000000000000000000000000000008152600401611a5c906155fb565b60405180910390fd5b818160030154611a759190615c74565b8160030181905550818160120160003373ffffffffffffffffffffffffffffffffffffffff1673ffffffffffffffffffffffffffffffffffffffff16815260200190815260200160002054611aca9190615a22565b8160120160003373ffffffffffffffffffffffffffffffffffffffff1673ffffffffffffffffffffffffffffffffffffffff16815260200190815260200160002081905550348160130160003373ffffffffffffffffffffffffffffffffffffffff1673ffffffffffffffffffffffffffffffffffffffff16815260200190815260200160002054611b5c9190615a22565b8160130160003373ffffffffffffffffffffffffffffffffffffffff1673ffffffffffffffffffffffffffffffffffffffff16815260200190815260200160002081905550348160060154611bb19190615a22565b8160060181905550505050565b611bc6614337565b73ffffffffffffffffffffffffffffffffffffffff16611be461292e565b73ffffffffffffffffffffffffffffffffffffffff1614611c3a576040517f08c379a0000000000000000000000000000000000000000000000000000000008152600401611c319061579b565b60405180910390fd5b611c4460006143c8565b565b60066020528060005260406000206000915090505481565b611c68828261055e565b506000600860008473ffffffffffffffffffffffffffffffffffffffff1673ffffffffffffffffffffffffffffffffffffffff1681526020019081526020016000206000838152602001908152602001600020905042816010016001015410611d06576040517f08c379a0000000000000000000000000000000000000000000000000000000008152600401611cfd9061565b565b60405180910390fd5b60008160120160003373ffffffffffffffffffffffffffffffffffffffff1673ffffffffffffffffffffffffffffffffffffffff1681526020019081526020016000205411611d8a576040517f08c379a0000000000000000000000000000000000000000000000000000000008152600401611d81906155db565b60405180910390fd5b611dd683338360120160003373ffffffffffffffffffffffffffffffffffffffff1673ffffffffffffffffffffffffffffffffffffffff168152602001908152602001600020546142b1565b60008160120160003373ffffffffffffffffffffffffffffffffffffffff1673ffffffffffffffffffffffffffffffffffffffff16815260200190815260200160002081905550505050565b600080600860008673ffffffffffffffffffffffffffffffffffffffff1673ffffffffffffffffffffffffffffffffffffffff168152602001908152602001600020600085815260200190815260200160002060140160008473ffffffffffffffffffffffffffffffffffffffff1673ffffffffffffffffffffffffffffffffffffffff16815260200190815260200160002054141590509392505050565b611ec9614337565b73ffffffffffffffffffffffffffffffffffffffff16611ee761292e565b73ffffffffffffffffffffffffffffffffffffffff1614611f3d576040517f08c379a0000000000000000000000000000000000000000000000000000000008152600401611f349061579b565b60405180910390fd5b6000600660008a73ffffffffffffffffffffffffffffffffffffffff1673ffffffffffffffffffffffffffffffffffffffff168152602001908152602001600020541461206b5760001515600860008a73ffffffffffffffffffffffffffffffffffffffff1673ffffffffffffffffffffffffffffffffffffffff1681526020019081526020016000206000600660008c73ffffffffffffffffffffffffffffffffffffffff1673ffffffffffffffffffffffffffffffffffffffff16815260200190815260200160002054815260200190815260200160002060000160019054906101000a900460ff1615151461206a576040517f08c379a0000000000000000000000000000000000000000000000000000000008152600401612061906157fb565b60405180910390fd5b5b6000600860008a73ffffffffffffffffffffffffffffffffffffffff1673ffffffffffffffffffffffffffffffffffffffff16815260200190815260200160002060006001600660008d73ffffffffffffffffffffffffffffffffffffffff1673ffffffffffffffffffffffffffffffffffffffff168152602001908152602001600020546120fa9190615a22565b81526020019081526020016000209050600015158160000160019054906101000a900460ff16151514612162576040517f08c379a00000000000000000000000000000000000000000000000000000000081526004016121599061585b565b60405180910390fd5b600015158160000160009054906101000a900460ff161515146121ba576040517f08c379a00000000000000000000000000000000000000000000000000000000081526004016121b19061555b565b60405180910390fd5b826001600781106121f4577f4e487b7100000000000000000000000000000000000000000000000000000000600052603260045260246000fd5b602002015187101561223b576040517f08c379a0000000000000000000000000000000000000000000000000000000008152600401612232906157bb565b60405180910390fd5b4283600360078110612276577f4e487b7100000000000000000000000000000000000000000000000000000000600052603260045260246000fd5b6020020151101580156123045750826004600781106122be577f4e487b7100000000000000000000000000000000000000000000000000000000600052603260045260246000fd5b6020020151836003600781106122fd577f4e487b7100000000000000000000000000000000000000000000000000000000600052603260045260246000fd5b6020020151105b801561238b575081600160028110612345577f4e487b7100000000000000000000000000000000000000000000000000000000600052603260045260246000fd5b602002015183600460078110612384577f4e487b7100000000000000000000000000000000000000000000000000000000600052603260045260246000fd5b6020020151105b6123ca576040517f08c379a00000000000000000000000000000000000000000000000000000000081526004016123c19061577b565b60405180910390fd5b60018160000160006101000a81548160ff02191690831515021790555060008160000160016101000a81548160ff0219169083151502179055508781600101908051906020019061241c9291906146f9565b508681600201819055508681600301819055506064868861243d9190615c1a565b6124479190615a78565b816004018190555084816005018190555060008160060181905550604051806101200160405280846000600781106124a8577f4e487b7100000000000000000000000000000000000000000000000000000000600052603260045260246000fd5b60200201518152602001846001600781106124ec577f4e487b7100000000000000000000000000000000000000000000000000000000600052603260045260246000fd5b6020020151815260200184600260078110612530577f4e487b7100000000000000000000000000000000000000000000000000000000600052603260045260246000fd5b6020020151815260200184600360078110612574577f4e487b7100000000000000000000000000000000000000000000000000000000600052603260045260246000fd5b60200201518152602001846004600781106125b8577f4e487b7100000000000000000000000000000000000000000000000000000000600052603260045260246000fd5b60200201518152602001846001600781106125fc577f4e487b7100000000000000000000000000000000000000000000000000000000600052603260045260246000fd5b6020020151815260200184600560078110612640577f4e487b7100000000000000000000000000000000000000000000000000000000600052603260045260246000fd5b6020020151815260200184600660078110612684577f4e487b7100000000000000000000000000000000000000000000000000000000600052603260045260246000fd5b602002015181526020016000856001600781106126ca577f4e487b7100000000000000000000000000000000000000000000000000000000600052603260045260246000fd5b60200201516126d99190615c74565b81525081600701600082015181600001556020820151816001015560408201518160020155606082015181600301556080820151816004015560a0820151816005015560c0820151816006015560e082015181600701556101008201518160080155905050604051806040016040528083600060028110612783577f4e487b7100000000000000000000000000000000000000000000000000000000600052603260045260246000fd5b60200201518152602001836001600281106127c7577f4e487b7100000000000000000000000000000000000000000000000000000000600052603260045260246000fd5b60200201518152508160100160008201518160000155602082015181600101559050506000816015018190555083600760008b73ffffffffffffffffffffffffffffffffffffffff1673ffffffffffffffffffffffffffffffffffffffff16815260200190815260200160002060006001600660008e73ffffffffffffffffffffffffffffffffffffffff1673ffffffffffffffffffffffffffffffffffffffff168152602001908152602001600020546128829190615a22565b8152602001908152602001600020819055506001600660008b73ffffffffffffffffffffffffffffffffffffffff1673ffffffffffffffffffffffffffffffffffffffff168152602001908152602001600020546128e09190615a22565b600660008b73ffffffffffffffffffffffffffffffffffffffff1673ffffffffffffffffffffffffffffffffffffffff16815260200190815260200160002081905550505050505050505050565b60008060009054906101000a900473ffffffffffffffffffffffffffffffffffffffff16905090565b6000600860008473ffffffffffffffffffffffffffffffffffffffff1673ffffffffffffffffffffffffffffffffffffffff168152602001908152602001600020600083815260200190815260200160002060060154905092915050565b6008602052816000526040600020602052806000526040600020600091509150508060000160009054906101000a900460ff16908060000160019054906101000a900460ff16908060000160029054906101000a900473ffffffffffffffffffffffffffffffffffffffff1690806001018054612a3190615d51565b80601f0160208091040260200160405190810160405280929190818152602001828054612a5d90615d51565b8015612aaa5780601f10612a7f57610100808354040283529160200191612aaa565b820191906000526020600020905b815481529060010190602001808311612a8d57829003601f168201915b5050505050908060020154908060030154908060040154908060050154908060060154908060070160405180610120016040529081600082015481526020016001820154815260200160028201548152602001600382015481526020016004820154815260200160058201548152602001600682015481526020016007820154815260200160088201548152505090806010016040518060400160405290816000820154815260200160018201548152505090806015015490508c565b6000600860008473ffffffffffffffffffffffffffffffffffffffff1673ffffffffffffffffffffffffffffffffffffffff1681526020019081526020016000206000600660008673ffffffffffffffffffffffffffffffffffffffff1673ffffffffffffffffffffffffffffffffffffffff1681526020019081526020016000205481526020019081526020016000209050600115158160000160019054906101000a900460ff16151514612c52576040517f08c379a0000000000000000000000000000000000000000000000000000000008152600401612c499061563b565b60405180910390fd5b4281600701600301541115612c9c576040517f08c379a0000000000000000000000000000000000000000000000000000000008152600401612c93906155bb565b60405180910390fd5b4281600701600401541015612ce6576040517f08c379a0000000000000000000000000000000000000000000000000000000008152600401612cdd906156fb565b60405180910390fd5b6000816007016001015411612d30576040517f08c379a0000000000000000000000000000000000000000000000000000000008152600401612d279061573b565b60405180910390fd5b806007016002015482612d439190615c1a565b8373ffffffffffffffffffffffffffffffffffffffff1663313ce5676040518163ffffffff1660e01b815260040160206040518083038186803b158015612d8957600080fd5b505afa158015612d9d573d6000803e3d6000fd5b505050506040513d601f19601f82011682018060405250810190612dc19190614d4c565b600a612dcd9190615afc565b34612dd89190615c1a565b1015612e19576040517f08c379a0000000000000000000000000000000000000000000000000000000008152600401612e10906155fb565b60405180910390fd5b60008160140160003373ffffffffffffffffffffffffffffffffffffffff1673ffffffffffffffffffffffffffffffffffffffff168152602001908152602001600020541115613b2b576000600560009054906101000a900473ffffffffffffffffffffffffffffffffffffffff1673ffffffffffffffffffffffffffffffffffffffff166370a08231336040518263ffffffff1660e01b8152600401612ec09190615341565b60206040518083038186803b158015612ed857600080fd5b505afa158015612eec573d6000803e3d6000fd5b505050506040513d601f19601f82011682018060405250810190612f109190614cd4565b90506000600260009054906101000a900473ffffffffffffffffffffffffffffffffffffffff1673ffffffffffffffffffffffffffffffffffffffff166370a08231336040518263ffffffff1660e01b8152600401612f6f9190615341565b60206040518083038186803b158015612f8757600080fd5b505afa158015612f9b573d6000803e3d6000fd5b505050506040513d601f19601f82011682018060405250810190612fbf9190614cd4565b14158015612fd4575081600701600601548110155b80612fe6575081600701600001548110155b156138e25781600701600701548260140160003373ffffffffffffffffffffffffffffffffffffffff1673ffffffffffffffffffffffffffffffffffffffff1681526020019081526020016000205410613281578160140160003373ffffffffffffffffffffffffffffffffffffffff1673ffffffffffffffffffffffffffffffffffffffff168152602001908152602001600020548260120160003373ffffffffffffffffffffffffffffffffffffffff1673ffffffffffffffffffffffffffffffffffffffff16815260200190815260200160002054846130c99190615a22565b111561310a576040517f08c379a0000000000000000000000000000000000000000000000000000000008152600401613101906158bb565b60405180910390fd5b82826003015461311a9190615c74565b82600301819055508282600701600101546131359190615c74565b8260070160010181905550828260120160003373ffffffffffffffffffffffffffffffffffffffff1673ffffffffffffffffffffffffffffffffffffffff1681526020019081526020016000205461318d9190615a22565b8260120160003373ffffffffffffffffffffffffffffffffffffffff1673ffffffffffffffffffffffffffffffffffffffff16815260200190815260200160002081905550348260130160003373ffffffffffffffffffffffffffffffffffffffff1673ffffffffffffffffffffffffffffffffffffffff1681526020019081526020016000205461321f9190615a22565b8260130160003373ffffffffffffffffffffffffffffffffffffffff1673ffffffffffffffffffffffffffffffffffffffff168152602001908152602001600020819055503482600601546132749190615a22565b82600601819055506138dd565b81600701600701548260120160003373ffffffffffffffffffffffffffffffffffffffff1673ffffffffffffffffffffffffffffffffffffffff16815260200190815260200160002054846132d69190615a22565b1115613317576040517f08c379a000000000000000000000000000000000000000000000000000000000815260040161330e906158bb565b60405180910390fd5b8160140160003373ffffffffffffffffffffffffffffffffffffffff1673ffffffffffffffffffffffffffffffffffffffff168152602001908152602001600020548260120160003373ffffffffffffffffffffffffffffffffffffffff1673ffffffffffffffffffffffffffffffffffffffff16815260200190815260200160002054846133a69190615a22565b11156137695781600701600801548260140160003373ffffffffffffffffffffffffffffffffffffffff1673ffffffffffffffffffffffffffffffffffffffff168152602001908152602001600020548360120160003373ffffffffffffffffffffffffffffffffffffffff1673ffffffffffffffffffffffffffffffffffffffff16815260200190815260200160002054856134439190615a22565b61344d9190615c74565b111561348e576040517f08c379a0000000000000000000000000000000000000000000000000000000008152600401613485906158bb565b60405180910390fd5b8160140160003373ffffffffffffffffffffffffffffffffffffffff1673ffffffffffffffffffffffffffffffffffffffff168152602001908152602001600020548260120160003373ffffffffffffffffffffffffffffffffffffffff1673ffffffffffffffffffffffffffffffffffffffff1681526020019081526020016000205410156135d3578160140160003373ffffffffffffffffffffffffffffffffffffffff1673ffffffffffffffffffffffffffffffffffffffff168152602001908152602001600020548260120160003373ffffffffffffffffffffffffffffffffffffffff1673ffffffffffffffffffffffffffffffffffffffff16815260200190815260200160002054846135a79190615a22565b6135b19190615c74565b82600701600801546135c39190615c74565b82600701600801819055506135f2565b8282600701600801546135e69190615c74565b82600701600801819055505b8282600301546136029190615c74565b826003018190555082826007016001015461361d9190615c74565b8260070160010181905550828260120160003373ffffffffffffffffffffffffffffffffffffffff1673ffffffffffffffffffffffffffffffffffffffff168152602001908152602001600020546136759190615a22565b8260120160003373ffffffffffffffffffffffffffffffffffffffff1673ffffffffffffffffffffffffffffffffffffffff16815260200190815260200160002081905550348260130160003373ffffffffffffffffffffffffffffffffffffffff1673ffffffffffffffffffffffffffffffffffffffff168152602001908152602001600020546137079190615a22565b8260130160003373ffffffffffffffffffffffffffffffffffffffff1673ffffffffffffffffffffffffffffffffffffffff1681526020019081526020016000208190555034826006015461375c9190615a22565b82600601819055506138dc565b8282600301546137799190615c74565b82600301819055508282600701600101546137949190615c74565b8260070160010181905550828260120160003373ffffffffffffffffffffffffffffffffffffffff1673ffffffffffffffffffffffffffffffffffffffff168152602001908152602001600020546137ec9190615a22565b8260120160003373ffffffffffffffffffffffffffffffffffffffff1673ffffffffffffffffffffffffffffffffffffffff16815260200190815260200160002081905550348260130160003373ffffffffffffffffffffffffffffffffffffffff1673ffffffffffffffffffffffffffffffffffffffff1681526020019081526020016000205461387e9190615a22565b8260130160003373ffffffffffffffffffffffffffffffffffffffff1673ffffffffffffffffffffffffffffffffffffffff168152602001908152602001600020819055503482600601546138d39190615a22565b82600601819055505b5b613b25565b8160140160003373ffffffffffffffffffffffffffffffffffffffff1673ffffffffffffffffffffffffffffffffffffffff168152602001908152602001600020548260120160003373ffffffffffffffffffffffffffffffffffffffff1673ffffffffffffffffffffffffffffffffffffffff16815260200190815260200160002054846139719190615a22565b11156139b2576040517f08c379a00000000000000000000000000000000000000000000000000000000081526004016139a9906158bb565b60405180910390fd5b8282600301546139c29190615c74565b82600301819055508282600701600101546139dd9190615c74565b8260070160010181905550828260120160003373ffffffffffffffffffffffffffffffffffffffff1673ffffffffffffffffffffffffffffffffffffffff16815260200190815260200160002054613a359190615a22565b8260120160003373ffffffffffffffffffffffffffffffffffffffff1673ffffffffffffffffffffffffffffffffffffffff16815260200190815260200160002081905550348260130160003373ffffffffffffffffffffffffffffffffffffffff1673ffffffffffffffffffffffffffffffffffffffff16815260200190815260200160002054613ac79190615a22565b8260130160003373ffffffffffffffffffffffffffffffffffffffff1673ffffffffffffffffffffffffffffffffffffffff16815260200190815260200160002081905550348260060154613b1c9190615a22565b82600601819055505b506140f3565b80600701600701548160120160003373ffffffffffffffffffffffffffffffffffffffff1673ffffffffffffffffffffffffffffffffffffffff1681526020019081526020016000205483613b809190615a22565b1115613bc1576040517f08c379a0000000000000000000000000000000000000000000000000000000008152600401613bb8906158bb565b60405180910390fd5b8060070160080154821115613c0b576040517f08c379a0000000000000000000000000000000000000000000000000000000008152600401613c029061561b565b60405180910390fd5b6000600560009054906101000a900473ffffffffffffffffffffffffffffffffffffffff1673ffffffffffffffffffffffffffffffffffffffff166370a08231336040518263ffffffff1660e01b8152600401613c689190615341565b60206040518083038186803b158015613c8057600080fd5b505afa158015613c94573d6000803e3d6000fd5b505050506040513d601f19601f82011682018060405250810190613cb89190614cd4565b90506000600260009054906101000a900473ffffffffffffffffffffffffffffffffffffffff1673ffffffffffffffffffffffffffffffffffffffff166370a08231336040518263ffffffff1660e01b8152600401613d179190615341565b60206040518083038186803b158015613d2f57600080fd5b505afa158015613d43573d6000803e3d6000fd5b505050506040513d601f19601f82011682018060405250810190613d679190614cd4565b14158015613d7c575081600701600601548110155b15613f1657828260030154613d919190615c74565b8260030181905550828260070160010154613dac9190615c74565b8260070160010181905550828260070160080154613dca9190615c74565b8260070160080181905550828260120160003373ffffffffffffffffffffffffffffffffffffffff1673ffffffffffffffffffffffffffffffffffffffff16815260200190815260200160002054613e229190615a22565b8260120160003373ffffffffffffffffffffffffffffffffffffffff1673ffffffffffffffffffffffffffffffffffffffff16815260200190815260200160002081905550348260130160003373ffffffffffffffffffffffffffffffffffffffff1673ffffffffffffffffffffffffffffffffffffffff16815260200190815260200160002054613eb49190615a22565b8260130160003373ffffffffffffffffffffffffffffffffffffffff1673ffffffffffffffffffffffffffffffffffffffff16815260200190815260200160002081905550348260060154613f099190615a22565b82600601819055506140f1565b8160070160000154811015613f60576040517f08c379a0000000000000000000000000000000000000000000000000000000008152600401613f579061567b565b60405180910390fd5b828260030154613f709190615c74565b8260030181905550828260070160010154613f8b9190615c74565b8260070160010181905550828260120160003373ffffffffffffffffffffffffffffffffffffffff1673ffffffffffffffffffffffffffffffffffffffff16815260200190815260200160002054613fe39190615a22565b8260120160003373ffffffffffffffffffffffffffffffffffffffff1673ffffffffffffffffffffffffffffffffffffffff16815260200190815260200160002081905550348260130160003373ffffffffffffffffffffffffffffffffffffffff1673ffffffffffffffffffffffffffffffffffffffff168152602001908152602001600020546140759190615a22565b8260130160003373ffffffffffffffffffffffffffffffffffffffff1673ffffffffffffffffffffffffffffffffffffffff168152602001908152602001600020819055503482600601546140ca9190615a22565b82600601819055508282600701600801546140e59190615c74565b82600701600801819055505b505b505050565b6007602052816000526040600020602052806000526040600020600091509150505481565b6000600860008573ffffffffffffffffffffffffffffffffffffffff1673ffffffffffffffffffffffffffffffffffffffff168152602001908152602001600020600084815260200190815260200160002060120160008373ffffffffffffffffffffffffffffffffffffffff1673ffffffffffffffffffffffffffffffffffffffff1681526020019081526020016000205490509392505050565b6141c1614337565b73ffffffffffffffffffffffffffffffffffffffff166141df61292e565b73ffffffffffffffffffffffffffffffffffffffff1614614235576040517f08c379a000000000000000000000000000000000000000000000000000000000815260040161422c9061579b565b60405180910390fd5b600073ffffffffffffffffffffffffffffffffffffffff168173ffffffffffffffffffffffffffffffffffffffff1614156142a5576040517f08c379a000000000000000000000000000000000000000000000000000000000815260040161429c9061559b565b60405180910390fd5b6142ae816143c8565b50565b6143328363a9059cbb60e01b84846040516024016142d0929190615393565b604051602081830303815290604052907bffffffffffffffffffffffffffffffffffffffffffffffffffffffff19166020820180517bffffffffffffffffffffffffffffffffffffffffffffffffffffffff838183161783525050505061448c565b505050565b600033905090565b6143c2846323b872dd60e01b8585856040516024016143609392919061535c565b604051602081830303815290604052907bffffffffffffffffffffffffffffffffffffffffffffffffffffffff19166020820180517bffffffffffffffffffffffffffffffffffffffffffffffffffffffff838183161783525050505061448c565b50505050565b60008060009054906101000a900473ffffffffffffffffffffffffffffffffffffffff169050816000806101000a81548173ffffffffffffffffffffffffffffffffffffffff021916908373ffffffffffffffffffffffffffffffffffffffff1602179055508173ffffffffffffffffffffffffffffffffffffffff168173ffffffffffffffffffffffffffffffffffffffff167f8be0079c531659141344cd1fd0a4f28419497f9722a3daafe3b4186f6b6457e060405160405180910390a35050565b60006144ee826040518060400160405280602081526020017f5361666545524332303a206c6f772d6c6576656c2063616c6c206661696c65648152508573ffffffffffffffffffffffffffffffffffffffff166145539092919063ffffffff16565b905060008151111561454e578080602001905181019061450e9190614cab565b61454d576040517f08c379a00000000000000000000000000000000000000000000000000000000081526004016145449061583b565b60405180910390fd5b5b505050565b6060614562848460008561456b565b90509392505050565b6060824710156145b0576040517f08c379a00000000000000000000000000000000000000000000000000000000081526004016145a79061571b565b60405180910390fd5b6145b98561467f565b6145f8576040517f08c379a00000000000000000000000000000000000000000000000000000000081526004016145ef9061581b565b60405180910390fd5b6000808673ffffffffffffffffffffffffffffffffffffffff168587604051614621919061532a565b60006040518083038185875af1925050503d806000811461465e576040519150601f19603f3d011682016040523d82523d6000602084013e614663565b606091505b5091509150614673828286614692565b92505050949350505050565b600080823b905060008111915050919050565b606083156146a2578290506146f2565b6000835111156146b55782518084602001fd5b816040517f08c379a00000000000000000000000000000000000000000000000000000000081526004016146e991906154f9565b60405180910390fd5b9392505050565b82805461470590615d51565b90600052602060002090601f016020900481019282614727576000855561476e565b82601f1061474057805160ff191683800117855561476e565b8280016001018555821561476e579182015b8281111561476d578251825591602001919060010190614752565b5b50905061477b919061477f565b5090565b5b80821115614798576000816000905550600101614780565b5090565b60006147af6147aa8461591b565b6158f6565b905080838252602082019050828560208602820111156147ce57600080fd5b60005b858110156147fe57816147e48882614978565b8452602084019350602083019250506001810190506147d1565b5050509392505050565b600061481b61481684615947565b6158f6565b9050808285602086028201111561483157600080fd5b60005b8581101561486157816148478882614a6e565b845260208401935060208301925050600181019050614834565b5050509392505050565b600061487e6148798461596d565b6158f6565b9050808285602086028201111561489457600080fd5b60005b858110156148c457816148aa8882614a6e565b845260208401935060208301925050600181019050614897565b5050509392505050565b60006148e16148dc84615993565b6158f6565b9050808382526020820190508285602086028201111561490057600080fd5b60005b8581101561493057816149168882614a6e565b845260208401935060208301925050600181019050614903565b5050509392505050565b600061494d614948846159bf565b6158f6565b90508281526020810184848401111561496557600080fd5b614970848285615d0f565b509392505050565b60008135905061498781616868565b92915050565b600082601f83011261499e57600080fd5b81356149ae84826020860161479c565b91505092915050565b600082601f8301126149c857600080fd5b60026149d5848285614808565b91505092915050565b600082601f8301126149ef57600080fd5b60076149fc84828561486b565b91505092915050565b600082601f830112614a1657600080fd5b8135614a268482602086016148ce565b91505092915050565b600081519050614a3e8161687f565b92915050565b600082601f830112614a5557600080fd5b8135614a6584826020860161493a565b91505092915050565b600081359050614a7d81616896565b92915050565b600081519050614a9281616896565b92915050565b600081519050614aa7816168ad565b92915050565b600060208284031215614abf57600080fd5b6000614acd84828501614978565b91505092915050565b600080600060608486031215614aeb57600080fd5b6000614af986828701614978565b935050602084013567ffffffffffffffff811115614b1657600080fd5b614b228682870161498d565b925050604084013567ffffffffffffffff811115614b3f57600080fd5b614b4b86828701614a05565b9150509250925092565b6000806000806000806000806101e0898b031215614b7257600080fd5b6000614b808b828c01614978565b985050602089013567ffffffffffffffff811115614b9d57600080fd5b614ba98b828c01614a44565b9750506040614bba8b828c01614a6e565b9650506060614bcb8b828c01614a6e565b9550506080614bdc8b828c01614a6e565b94505060a0614bed8b828c01614a6e565b93505060c0614bfe8b828c016149de565b9250506101a0614c108b828c016149b7565b9150509295985092959890939650565b60008060408385031215614c3357600080fd5b6000614c4185828601614978565b9250506020614c5285828601614a6e565b9150509250929050565b600080600060608486031215614c7157600080fd5b6000614c7f86828701614978565b9350506020614c9086828701614a6e565b9250506040614ca186828701614978565b9150509250925092565b600060208284031215614cbd57600080fd5b6000614ccb84828501614a2f565b91505092915050565b600060208284031215614ce657600080fd5b6000614cf484828501614a83565b91505092915050565b600080600060608486031215614d1257600080fd5b6000614d2086828701614a83565b9350506020614d3186828701614a83565b9250506040614d4286828701614a83565b9150509250925092565b600060208284031215614d5e57600080fd5b6000614d6c84828501614a98565b91505092915050565b614d7e81615ca8565b82525050565b614d8d81615cba565b82525050565b6000614d9e826159f0565b614da88185615a06565b9350614db8818560208601615d1e565b80840191505092915050565b614dcd81615cfd565b82525050565b6000614dde826159fb565b614de88185615a11565b9350614df8818560208601615d1e565b614e0181615e70565b840191505092915050565b6000614e19605183615a11565b9150614e2482615e8e565b606082019050919050565b6000614e3c602583615a11565b9150614e4782615f03565b604082019050919050565b6000614e5f602f83615a11565b9150614e6a82615f52565b604082019050919050565b6000614e82604d83615a11565b9150614e8d82615fa1565b606082019050919050565b6000614ea5602683615a11565b9150614eb082616016565b604082019050919050565b6000614ec8602c83615a11565b9150614ed382616065565b604082019050919050565b6000614eeb602e83615a11565b9150614ef6826160b4565b604082019050919050565b6000614f0e602283615a11565b9150614f1982616103565b604082019050919050565b6000614f31602683615a11565b9150614f3c82616152565b604082019050919050565b6000614f54603a83615a11565b9150614f5f826161a1565b604082019050919050565b6000614f77602083615a11565b9150614f82826161f0565b602082019050919050565b6000614f9a603083615a11565b9150614fa582616219565b604082019050919050565b6000614fbd605183615a11565b9150614fc882616268565b606082019050919050565b6000614fe0602a83615a11565b9150614feb826162dd565b604082019050919050565b6000615003604983615a11565b915061500e8261632c565b606082019050919050565b6000615026604883615a11565b9150615031826163a1565b606082019050919050565b6000615049602683615a11565b915061505482616416565b604082019050919050565b600061506c605983615a11565b915061507782616465565b606082019050919050565b600061508f604583615a11565b915061509a826164da565b606082019050919050565b60006150b2602783615a11565b91506150bd8261654f565b604082019050919050565b60006150d5602083615a11565b91506150e08261659e565b602082019050919050565b60006150f8604083615a11565b9150615103826165c7565b604082019050919050565b600061511b602f83615a11565b915061512682616616565b604082019050919050565b600061513e602e83615a11565b915061514982616665565b604082019050919050565b6000615161601d83615a11565b915061516c826166b4565b602082019050919050565b6000615184602a83615a11565b915061518f826166dd565b604082019050919050565b60006151a7602d83615a11565b91506151b28261672c565b604082019050919050565b60006151ca602683615a11565b91506151d58261677b565b604082019050919050565b60006151ed602b83615a11565b91506151f8826167ca565b604082019050919050565b6000615210602483615a11565b915061521b82616819565b604082019050919050565b6101208201600082015161523d600085018261530c565b506020820151615250602085018261530c565b506040820151615263604085018261530c565b506060820151615276606085018261530c565b506080820151615289608085018261530c565b5060a082015161529c60a085018261530c565b5060c08201516152af60c085018261530c565b5060e08201516152c260e085018261530c565b506101008201516152d761010085018261530c565b50505050565b6040820160008201516152f3600085018261530c565b506020820151615306602085018261530c565b50505050565b61531581615ce6565b82525050565b61532481615ce6565b82525050565b60006153368284614d93565b915081905092915050565b60006020820190506153566000830184614d75565b92915050565b60006060820190506153716000830186614d75565b61537e6020830185614d75565b61538b604083018461531b565b949350505050565b60006040820190506153a86000830185614d75565b6153b5602083018461531b565b9392505050565b600060c0820190506153d16000830189614d75565b6153de602083018861531b565b6153eb6040830187614dc4565b6153f86060830186614dc4565b6154056080830185614d75565b61541260a083018461531b565b979650505050505050565b60006020820190506154326000830184614d84565b92915050565b60006102a08201905061544e600083018f614d84565b61545b602083018e614d84565b615468604083018d614d75565b818103606083015261547a818c614dd3565b9050615489608083018b61531b565b61549660a083018a61531b565b6154a360c083018961531b565b6154b060e083018861531b565b6154be61010083018761531b565b6154cc610120830186615226565b6154da6102408301856152dd565b6154e861028083018461531b565b9d9c50505050505050505050505050565b600060208201905081810360008301526155138184614dd3565b905092915050565b6000602082019050818103600083015261553481614e0c565b9050919050565b6000602082019050818103600083015261555481614e2f565b9050919050565b6000602082019050818103600083015261557481614e52565b9050919050565b6000602082019050818103600083015261559481614e75565b9050919050565b600060208201905081810360008301526155b481614e98565b9050919050565b600060208201905081810360008301526155d481614ebb565b9050919050565b600060208201905081810360008301526155f481614ede565b9050919050565b6000602082019050818103600083015261561481614f01565b9050919050565b6000602082019050818103600083015261563481614f24565b9050919050565b6000602082019050818103600083015261565481614f47565b9050919050565b6000602082019050818103600083015261567481614f6a565b9050919050565b6000602082019050818103600083015261569481614f8d565b9050919050565b600060208201905081810360008301526156b481614fb0565b9050919050565b600060208201905081810360008301526156d481614fd3565b9050919050565b600060208201905081810360008301526156f481614ff6565b9050919050565b6000602082019050818103600083015261571481615019565b9050919050565b600060208201905081810360008301526157348161503c565b9050919050565b600060208201905081810360008301526157548161505f565b9050919050565b6000602082019050818103600083015261577481615082565b9050919050565b60006020820190508181036000830152615794816150a5565b9050919050565b600060208201905081810360008301526157b4816150c8565b9050919050565b600060208201905081810360008301526157d4816150eb565b9050919050565b600060208201905081810360008301526157f48161510e565b9050919050565b6000602082019050818103600083015261581481615131565b9050919050565b6000602082019050818103600083015261583481615154565b9050919050565b6000602082019050818103600083015261585481615177565b9050919050565b600060208201905081810360008301526158748161519a565b9050919050565b60006020820190508181036000830152615894816151bd565b9050919050565b600060208201905081810360008301526158b4816151e0565b9050919050565b600060208201905081810360008301526158d481615203565b9050919050565b60006020820190506158f0600083018461531b565b92915050565b6000615900615911565b905061590c8282615d83565b919050565b6000604051905090565b600067ffffffffffffffff82111561593657615935615e41565b5b602082029050602081019050919050565b600067ffffffffffffffff82111561596257615961615e41565b5b602082029050919050565b600067ffffffffffffffff82111561598857615987615e41565b5b602082029050919050565b600067ffffffffffffffff8211156159ae576159ad615e41565b5b602082029050602081019050919050565b600067ffffffffffffffff8211156159da576159d9615e41565b5b6159e382615e70565b9050602081019050919050565b600081519050919050565b600081519050919050565b600081905092915050565b600082825260208201905092915050565b6000615a2d82615ce6565b9150615a3883615ce6565b9250827fffffffffffffffffffffffffffffffffffffffffffffffffffffffffffffffff03821115615a6d57615a6c615db4565b5b828201905092915050565b6000615a8382615ce6565b9150615a8e83615ce6565b925082615a9e57615a9d615de3565b5b828204905092915050565b6000808291508390505b6001851115615af357808604811115615acf57615ace615db4565b5b6001851615615ade5780820291505b8081029050615aec85615e81565b9450615ab3565b94509492505050565b6000615b0782615ce6565b9150615b1283615cf0565b9250615b3f7fffffffffffffffffffffffffffffffffffffffffffffffffffffffffffffffff8484615b47565b905092915050565b600082615b575760019050615c13565b81615b655760009050615c13565b8160018114615b7b5760028114615b8557615bb4565b6001915050615c13565b60ff841115615b9757615b96615db4565b5b8360020a915084821115615bae57615bad615db4565b5b50615c13565b5060208310610133831016604e8410600b8410161715615be95782820a905083811115615be457615be3615db4565b5b615c13565b615bf68484846001615aa9565b92509050818404811115615c0d57615c0c615db4565b5b81810290505b9392505050565b6000615c2582615ce6565b9150615c3083615ce6565b9250817fffffffffffffffffffffffffffffffffffffffffffffffffffffffffffffffff0483118215151615615c6957615c68615db4565b5b828202905092915050565b6000615c7f82615ce6565b9150615c8a83615ce6565b925082821015615c9d57615c9c615db4565b5b828203905092915050565b6000615cb382615cc6565b9050919050565b60008115159050919050565b600073ffffffffffffffffffffffffffffffffffffffff82169050919050565b6000819050919050565b600060ff82169050919050565b6000615d0882615cf0565b9050919050565b82818337600083830152505050565b60005b83811015615d3c578082015181840152602081019050615d21565b83811115615d4b576000848401525b50505050565b60006002820490506001821680615d6957607f821691505b60208210811415615d7d57615d7c615e12565b5b50919050565b615d8c82615e70565b810181811067ffffffffffffffff82111715615dab57615daa615e41565b5b80604052505050565b7f4e487b7100000000000000000000000000000000000000000000000000000000600052601160045260246000fd5b7f4e487b7100000000000000000000000000000000000000000000000000000000600052601260045260246000fd5b7f4e487b7100000000000000000000000000000000000000000000000000000000600052602260045260246000fd5b7f4e487b7100000000000000000000000000000000000000000000000000000000600052604160045260246000fd5b6000601f19601f8301169050919050565b60008160011c9050919050565b7f49444f506c6174666f726d3a2077686974656c6973742061646472657373206c60008201527f656e67746820646f6573206e6f74206d6174636820697473206d617820616d6f60208201527f756e74206c696d6974206c656e67657468000000000000000000000000000000604082015250565b7f49444f506c6174666f726d3a20596f75722049444f20616c726561647920737460008201527f6172746564000000000000000000000000000000000000000000000000000000602082015250565b7f49444f506c6174666f726d3a205468697320746f6b656e2049444f206973206160008201527f6c726561647920617070726f7665640000000000000000000000000000000000602082015250565b7f49444f506c6174666f726d3a20746f74616c20616d6f756e74206f662077686960008201527f6c656c6973742073686f756c64206e6f7420657863656564207072697661746560208201527f2073616c6520616d6f756e742100000000000000000000000000000000000000604082015250565b7f4f776e61626c653a206e6577206f776e657220697320746865207a65726f206160008201527f6464726573730000000000000000000000000000000000000000000000000000602082015250565b7f49444f506c6174666f726d3a205468697320746f6b656e2049444f206861732060008201527f6e6f742073746172746564210000000000000000000000000000000000000000602082015250565b7f49444f506c6174666f726d3a20596f757220616d6f756e74206f66207468697360008201527f20746f6b656e206973207a65726f000000000000000000000000000000000000602082015250565b7f49444f506c6174666f726d3a204e6f7420656e6f7567682043465820746f206260008201527f7579000000000000000000000000000000000000000000000000000000000000602082015250565b7f49444f506c6174666f726d3a204e6f7420656e6f75676820746f6b656e20746f60008201527f2074726164650000000000000000000000000000000000000000000000000000602082015250565b7f49444f506c6174666f726d3a205468697320746f6b656e2049444f206861732060008201527f6e6f74207374617274656420796574206f722065787069726564000000000000602082015250565b7f49444f506c6174666f726d3a2049444f206973207374696c6c20616374697665600082015250565b7f49444f506c6174666f726d3a20596f7572207665546f6b656e2063616e6e6f7460008201527f207265616368207468726573686f6c6400000000000000000000000000000000602082015250565b7f49444f506c6174666f726d3a2049444f20494420646f6573206e6f74206d617460008201527f636820746865206c617374657374206f6e652e20436f6e746163742061646d6960208201527f6e20746f20636865636b2069737375652e000000000000000000000000000000604082015250565b7f49444f506c6174666f726d3a20416464696e672077686974656c69737420697360008201527f20746f6f206c6174652100000000000000000000000000000000000000000000602082015250565b7f49444f506c6174666f726d3a20546865726520617265207374696c6c2077686960008201527f74656c697374206d656d626572732077686f206e6565647320746f206265207260208201527f6567697374657265640000000000000000000000000000000000000000000000604082015250565b7f49444f506c6174666f726d3a205468697320746f6b656e2049444f20616c726560008201527f61647920656e7465726564207075626c69632073616c652e204e6f207072697660208201527f6174652073616c65000000000000000000000000000000000000000000000000604082015250565b7f416464726573733a20696e73756666696369656e742062616c616e636520666f60008201527f722063616c6c0000000000000000000000000000000000000000000000000000602082015250565b7f49444f506c6174666f726d3a205468697320746f6b656e2049444f20616c726560008201527f61647920656e746572726564207075626c69632073616c652e20416d6f756e7460208201527f20666f7220707269766174652073616c65206973207a65726f00000000000000604082015250565b7f49444f506c6174666f726d3a20596f752073746172742049444f20746f6f206c60008201527f6174652120436f6e746163742061646d696e20746f206368616e67652073636860208201527f6564756c65000000000000000000000000000000000000000000000000000000604082015250565b7f49444f506c6174666f726d3a2074696d657374616d702073657474696e67206960008201527f732077726f6e6700000000000000000000000000000000000000000000000000602082015250565b7f4f776e61626c653a2063616c6c6572206973206e6f7420746865206f776e6572600082015250565b7f49444f506c6174666f726d3a20707269766174652073616c6520616d6f756e7460008201527f2073686f756c64206e6f742065786365656420746f74616c20616d6f756e7421602082015250565b7f49444f506c6174666f726d3a20436f6e746163742061646d696e20746f20617060008201527f70726f76616c20796f75722049444f0000000000000000000000000000000000602082015250565b7f49444f506c6174666f726d3a205468697320746f6b656e2049444f206973206160008201527f6c7265616479206163746976652e000000000000000000000000000000000000602082015250565b7f416464726573733a2063616c6c20746f206e6f6e2d636f6e7472616374000000600082015250565b7f5361666545524332303a204552433230206f7065726174696f6e20646964206e60008201527f6f74207375636365656400000000000000000000000000000000000000000000602082015250565b7f49444f506c6174666f726d3a205468697320746f6b656e2049444f206973206160008201527f6c72656164792061637469766500000000000000000000000000000000000000602082015250565b7f49444f506c6174666f726d3a205075626c69632073616c6520616c726561647960008201527f20656e6465640000000000000000000000000000000000000000000000000000602082015250565b7f49444f506c6174666f726d3a205468697320746f6b656e20697320616c72656160008201527f647920736f6c64206f7574000000000000000000000000000000000000000000602082015250565b7f49444f506c6174666f726d3a205265616368206d617820616d6f756e7420746f60008201527f2062757900000000000000000000000000000000000000000000000000000000602082015250565b61687181615ca8565b811461687c57600080fd5b50565b61688881615cba565b811461689357600080fd5b50565b61689f81615ce6565b81146168aa57600080fd5b50565b6168b681615cf0565b81146168c157600080fd5b5056fea264697066735822122003f6624e6f6fc8ba057d255a2a72325c006d27f885cf72a4c0965ca12a3436a364736f6c63430008020033",
  "linkReferences": {},
  "deployedLinkReferences": {}
}