{
  "_format": "hh-sol-artifact-1",
  "contractName": "idoplatform",
  "sourceName": "contracts/idoplatform.sol",
  "abi": [
    {
      "inputs": [
        {
          "internalType": "address",
          "name": "_token",
          "type": "address"
        },
        {
          "internalType": "address",
          "name": "_swappiNFT",
          "type": "address"
        },
        {
          "internalType": "address",
          "name": "_router",
          "type": "address"
        },
        {
          "internalType": "address",
          "name": "_swappiFactory",
          "type": "address"
        },
        {
          "internalType": "address",
          "name": "_wcfx",
          "type": "address"
        },
        {
          "internalType": "address",
          "name": "_votingEscrow",
          "type": "address"
        }
      ],
      "stateMutability": "nonpayable",
      "type": "constructor"
    },
    {
      "anonymous": false,
      "inputs": [
        {
          "indexed": true,
          "internalType": "address",
          "name": "previousOwner",
          "type": "address"
        },
        {
          "indexed": true,
          "internalType": "address",
          "name": "newOwner",
          "type": "address"
        }
      ],
      "name": "OwnershipTransferred",
      "type": "event"
    },
    {
      "inputs": [
        {
          "internalType": "address",
          "name": "token_addr",
          "type": "address"
        }
      ],
      "name": "addIDOToken",
      "outputs": [],
      "stateMutability": "nonpayable",
      "type": "function"
    },
    {
      "inputs": [
        {
          "internalType": "address",
          "name": "token_addr",
          "type": "address"
        },
        {
          "internalType": "string",
          "name": "projectName",
          "type": "string"
        },
        {
          "internalType": "uint256",
          "name": "amt",
          "type": "uint256"
        },
        {
          "internalType": "uint256",
          "name": "ratioForLP",
          "type": "uint256"
        },
        {
          "internalType": "uint256",
          "name": "priceForLP",
          "type": "uint256"
        },
        {
          "internalType": "uint256[5]",
          "name": "privateData",
          "type": "uint256[5]"
        },
        {
          "internalType": "uint256[2]",
          "name": "publicData",
          "type": "uint256[2]"
        }
      ],
      "name": "adminApproval",
      "outputs": [],
      "stateMutability": "nonpayable",
      "type": "function"
    },
    {
      "inputs": [
        {
          "internalType": "address",
          "name": "token_addr",
          "type": "address"
        },
        {
          "internalType": "uint256",
          "name": "IDOId",
          "type": "uint256"
        }
      ],
      "name": "claimAllTokens",
      "outputs": [],
      "stateMutability": "nonpayable",
      "type": "function"
    },
    {
      "inputs": [
        {
          "internalType": "address",
          "name": "",
          "type": "address"
        }
      ],
      "name": "currentIDOId",
      "outputs": [
        {
          "internalType": "uint256",
          "name": "",
          "type": "uint256"
        }
      ],
      "stateMutability": "view",
      "type": "function"
    },
    {
      "inputs": [
        {
          "internalType": "address",
          "name": "token_addr",
          "type": "address"
        },
        {
          "internalType": "uint256",
          "name": "IDOId",
          "type": "uint256"
        }
      ],
      "name": "finalize",
      "outputs": [
        {
          "internalType": "bool",
          "name": "",
          "type": "bool"
        }
      ],
      "stateMutability": "nonpayable",
      "type": "function"
    },
    {
      "inputs": [
        {
          "internalType": "address",
          "name": "token_addr",
          "type": "address"
        },
        {
          "internalType": "uint256",
          "name": "id",
          "type": "uint256"
        }
      ],
      "name": "getAmtOfCFXCollected",
      "outputs": [
        {
          "internalType": "uint256",
          "name": "",
          "type": "uint256"
        }
      ],
      "stateMutability": "view",
      "type": "function"
    },
    {
      "inputs": [
        {
          "internalType": "address",
          "name": "token_addr",
          "type": "address"
        },
        {
          "internalType": "uint256",
          "name": "id",
          "type": "uint256"
        },
        {
          "internalType": "address",
          "name": "buyer_addr",
          "type": "address"
        }
      ],
      "name": "getAmtOfCFXForBuyer",
      "outputs": [
        {
          "internalType": "uint256",
          "name": "",
          "type": "uint256"
        }
      ],
      "stateMutability": "view",
      "type": "function"
    },
    {
      "inputs": [
        {
          "internalType": "address",
          "name": "token_addr",
          "type": "address"
        },
        {
          "internalType": "uint256",
          "name": "id",
          "type": "uint256"
        },
        {
          "internalType": "address",
          "name": "buyer_addr",
          "type": "address"
        }
      ],
      "name": "getAmtOfTokenForBuyer",
      "outputs": [
        {
          "internalType": "uint256",
          "name": "",
          "type": "uint256"
        }
      ],
      "stateMutability": "view",
      "type": "function"
    },
    {
      "inputs": [
        {
          "internalType": "address",
          "name": "token_addr",
          "type": "address"
        }
      ],
      "name": "getCurrentIDOIdByTokenAddr",
      "outputs": [
        {
          "internalType": "uint256",
          "name": "",
          "type": "uint256"
        }
      ],
      "stateMutability": "view",
      "type": "function"
    },
    {
      "inputs": [
        {
          "internalType": "address",
          "name": "token_addr",
          "type": "address"
        },
        {
          "internalType": "uint256",
          "name": "id",
          "type": "uint256"
        }
      ],
      "name": "isIDOActiveByID",
      "outputs": [
        {
          "internalType": "bool",
          "name": "",
          "type": "bool"
        }
      ],
      "stateMutability": "view",
      "type": "function"
    },
    {
      "inputs": [],
      "name": "owner",
      "outputs": [
        {
          "internalType": "address",
          "name": "",
          "type": "address"
        }
      ],
      "stateMutability": "view",
      "type": "function"
    },
    {
      "inputs": [
        {
          "internalType": "address",
          "name": "token_addr",
          "type": "address"
        },
        {
          "internalType": "uint256",
          "name": "amt_to_buy",
          "type": "uint256"
        }
      ],
      "name": "privateSale",
      "outputs": [],
      "stateMutability": "payable",
      "type": "function"
    },
    {
      "inputs": [
        {
          "internalType": "address",
          "name": "token_addr",
          "type": "address"
        },
        {
          "internalType": "uint256",
          "name": "amt_to_buy",
          "type": "uint256"
        }
      ],
      "name": "publicSale",
      "outputs": [],
      "stateMutability": "payable",
      "type": "function"
    },
    {
      "inputs": [],
      "name": "renounceOwnership",
      "outputs": [],
      "stateMutability": "nonpayable",
      "type": "function"
    },
    {
      "inputs": [
        {
          "internalType": "address",
          "name": "",
          "type": "address"
        },
        {
          "internalType": "uint256",
          "name": "",
          "type": "uint256"
        }
      ],
      "name": "tokenInfo",
      "outputs": [
        {
          "internalType": "bool",
          "name": "isApproved",
          "type": "bool"
        },
        {
          "internalType": "bool",
          "name": "valid",
          "type": "bool"
        },
        {
          "internalType": "address",
          "name": "tokenOwner",
          "type": "address"
        },
        {
          "internalType": "string",
          "name": "projectName",
          "type": "string"
        },
        {
          "internalType": "uint256",
          "name": "totalAmt",
          "type": "uint256"
        },
        {
          "internalType": "uint256",
          "name": "amt",
          "type": "uint256"
        },
        {
          "internalType": "uint256",
          "name": "amtForLP",
          "type": "uint256"
        },
        {
          "internalType": "uint256",
          "name": "priceForLP",
          "type": "uint256"
        },
        {
          "internalType": "uint256",
          "name": "amtOfCFXCollected",
          "type": "uint256"
        },
        {
          "components": [
            {
              "internalType": "uint256",
              "name": "veTokenThreshold",
              "type": "uint256"
            },
            {
              "internalType": "uint256",
              "name": "amount",
              "type": "uint256"
            },
            {
              "internalType": "uint256",
              "name": "price",
              "type": "uint256"
            },
            {
              "internalType": "uint256",
              "name": "startTime",
              "type": "uint256"
            },
            {
              "internalType": "uint256",
              "name": "endTime",
              "type": "uint256"
            },
            {
              "internalType": "uint256",
              "name": "totalAmt",
              "type": "uint256"
            }
          ],
          "internalType": "struct idoplatform.privateSpecs",
          "name": "priSaleInfo",
          "type": "tuple"
        },
        {
          "components": [
            {
              "internalType": "uint256",
              "name": "price",
              "type": "uint256"
            },
            {
              "internalType": "uint256",
              "name": "endTime",
              "type": "uint256"
            }
          ],
          "internalType": "struct idoplatform.publicSpecs",
          "name": "pubSaleInfo",
          "type": "tuple"
        }
      ],
      "stateMutability": "view",
      "type": "function"
    },
    {
      "inputs": [
        {
          "internalType": "address",
          "name": "newOwner",
          "type": "address"
        }
      ],
      "name": "transferOwnership",
      "outputs": [],
      "stateMutability": "nonpayable",
      "type": "function"
    }
  ],
  "bytecode": "0x60806040523480156200001157600080fd5b5060405162004a3b38038062004a3b8339818101604052810190620000379190620002cc565b620000576200004b620001e960201b60201c565b620001f160201b60201c565b85600260006101000a81548173ffffffffffffffffffffffffffffffffffffffff021916908373ffffffffffffffffffffffffffffffffffffffff16021790555084600360006101000a81548173ffffffffffffffffffffffffffffffffffffffff021916908373ffffffffffffffffffffffffffffffffffffffff16021790555083600460006101000a81548173ffffffffffffffffffffffffffffffffffffffff021916908373ffffffffffffffffffffffffffffffffffffffff16021790555082600560006101000a81548173ffffffffffffffffffffffffffffffffffffffff021916908373ffffffffffffffffffffffffffffffffffffffff16021790555081600160006101000a81548173ffffffffffffffffffffffffffffffffffffffff021916908373ffffffffffffffffffffffffffffffffffffffff16021790555080600660006101000a81548173ffffffffffffffffffffffffffffffffffffffff021916908373ffffffffffffffffffffffffffffffffffffffff160217905550505050505050620003b0565b600033905090565b60008060009054906101000a900473ffffffffffffffffffffffffffffffffffffffff169050816000806101000a81548173ffffffffffffffffffffffffffffffffffffffff021916908373ffffffffffffffffffffffffffffffffffffffff1602179055508173ffffffffffffffffffffffffffffffffffffffff168173ffffffffffffffffffffffffffffffffffffffff167f8be0079c531659141344cd1fd0a4f28419497f9722a3daafe3b4186f6b6457e060405160405180910390a35050565b600081519050620002c68162000396565b92915050565b60008060008060008060c08789031215620002e657600080fd5b6000620002f689828a01620002b5565b96505060206200030989828a01620002b5565b95505060406200031c89828a01620002b5565b94505060606200032f89828a01620002b5565b93505060806200034289828a01620002b5565b92505060a06200035589828a01620002b5565b9150509295509295509295565b60006200036f8262000376565b9050919050565b600073ffffffffffffffffffffffffffffffffffffffff82169050919050565b620003a18162000362565b8114620003ad57600080fd5b50565b61467b80620003c06000396000f3fe6080604052600436106100f35760003560e01c80637634c01a1161008a578063bb7d88a911610059578063bb7d88a91461033f578063d50a3d2c14610386578063f09eb79c146103a2578063f2fde38b146103df576100f3565b80637634c01a1461027157806387e4d2a7146102ae5780638da5cb5b146102d7578063a3d3276814610302576100f3565b8063218db284116100c6578063218db284146101d85780635601a0bb14610215578063585fd73e1461023e578063715018a61461025a576100f3565b806301937319146100f85780630553e156146101355780630704cc881461017257806315aa9376146101af575b600080fd5b34801561010457600080fd5b5061011f600480360381019061011a9190612e1f565b610408565b60405161012c919061399b565b60405180910390f35b34801561014157600080fd5b5061015c60048036038101906101579190612f00565b610451565b60405161016991906135cc565b60405180910390f35b34801561017e57600080fd5b5061019960048036038101906101949190612f00565b610a89565b6040516101a691906135cc565b60405180910390f35b3480156101bb57600080fd5b506101d660048036038101906101d19190612e48565b610af4565b005b3480156101e457600080fd5b506101ff60048036038101906101fa9190612f3c565b611290565b60405161020c919061399b565b60405180910390f35b34801561022157600080fd5b5061023c60048036038101906102379190612e1f565b61132c565b005b61025860048036038101906102539190612f00565b61153c565b005b34801561026657600080fd5b5061026f61199d565b005b34801561027d57600080fd5b5061029860048036038101906102939190612e1f565b611a25565b6040516102a5919061399b565b60405180910390f35b3480156102ba57600080fd5b506102d560048036038101906102d09190612f00565b611a3d565b005b3480156102e357600080fd5b506102ec611c10565b6040516102f991906134f0565b60405180910390f35b34801561030e57600080fd5b5061032960048036038101906103249190612f00565b611c39565b604051610336919061399b565b60405180910390f35b34801561034b57600080fd5b5061036660048036038101906103619190612f00565b611c97565b60405161037d9b9a999897969594939291906135e7565b60405180910390f35b6103a0600480360381019061039b9190612f00565b611e24565b005b3480156103ae57600080fd5b506103c960048036038101906103c49190612f3c565b6125bb565b6040516103d6919061399b565b60405180910390f35b3480156103eb57600080fd5b5061040660048036038101906104019190612e1f565b612657565b005b6000600760008373ffffffffffffffffffffffffffffffffffffffff1673ffffffffffffffffffffffffffffffffffffffff168152602001908152602001600020549050919050565b600080600860008573ffffffffffffffffffffffffffffffffffffffff1673ffffffffffffffffffffffffffffffffffffffff168152602001908152602001600020600084815260200190815260200160002090508060000160019054906101000a900460ff1680156104d257508060000160009054906101000a900460ff165b15610a7d574281600d016001015410806104f0575060008160030154145b15610a735760008160000160016101000a81548160ff02191690831515021790555060008160000160006101000a81548160ff02191690831515021790555060008473ffffffffffffffffffffffffffffffffffffffff1663313ce5676040518163ffffffff1660e01b815260040160206040518083038186803b15801561057757600080fd5b505afa15801561058b573d6000803e3d6000fd5b505050506040513d601f19601f820116820180604052508101906105af919061302c565b600a6105bb9190613b64565b826005015483600401546105cf9190613c82565b6105d99190613ae0565b90506000826006015482116105f257826004015461069b565b8573ffffffffffffffffffffffffffffffffffffffff1663313ce5676040518163ffffffff1660e01b815260040160206040518083038186803b15801561063857600080fd5b505afa15801561064c573d6000803e3d6000fd5b505050506040513d601f19601f82011682018060405250810190610670919061302c565b600a61067c9190613b64565b836005015484600601546106909190613ae0565b61069a9190613c82565b5b90506000836006015483116106b057826106b6565b83600601545b90508673ffffffffffffffffffffffffffffffffffffffff1663095ea7b3600460009054906101000a900473ffffffffffffffffffffffffffffffffffffffff16846040518363ffffffff1660e01b8152600401610715929190613542565b602060405180830381600087803b15801561072f57600080fd5b505af1158015610743573d6000803e3d6000fd5b505050506040513d601f19601f820116820180604052508101906107679190612f8b565b50600080600460009054906101000a900473ffffffffffffffffffffffffffffffffffffffff1673ffffffffffffffffffffffffffffffffffffffff16838a866000808b60000160029054906101000a900473ffffffffffffffffffffffffffffffffffffffff166001426107dc9190613a8a565b6040516024016107f19695949392919061356b565b6040516020818303038152906040527ff305d719000000000000000000000000000000000000000000000000000000007bffffffffffffffffffffffffffffffffffffffffffffffffffffffff19166020820180517bffffffffffffffffffffffffffffffffffffffffffffffffffffffff838183161783525050505060405161087b91906134d9565b60006040518083038185875af1925050503d80600081146108b8576040519150601f19603f3d011682016040523d82523d6000602084013e6108bd565b606091505b509150915081156109b257600080828060200190518101906108df9190612fdd565b50915091506109318b8960000160029054906101000a900473ffffffffffffffffffffffffffffffffffffffff16848b600401548c600301546109229190613a8a565b61092c9190613cdc565b61274f565b8760000160029054906101000a900473ffffffffffffffffffffffffffffffffffffffff1673ffffffffffffffffffffffffffffffffffffffff166108fc828a6006015461097f9190613cdc565b9081150290604051600060405180830381858888f193505050501580156109aa573d6000803e3d6000fd5b505050610a64565b6109f4898760000160029054906101000a900473ffffffffffffffffffffffffffffffffffffffff16886004015489600301546109ef9190613a8a565b61274f565b8560000160029054906101000a900473ffffffffffffffffffffffffffffffffffffffff1673ffffffffffffffffffffffffffffffffffffffff166108fc87600601549081150290604051600060405180830381858888f19350505050158015610a62573d6000803e3d6000fd5b505b60019650505050505050610a83565b6000915050610a83565b60009150505b92915050565b6000600860008473ffffffffffffffffffffffffffffffffffffffff1673ffffffffffffffffffffffffffffffffffffffff168152602001908152602001600020600083815260200190815260200160002060000160019054906101000a900460ff16905092915050565b610afc6127d5565b73ffffffffffffffffffffffffffffffffffffffff16610b1a611c10565b73ffffffffffffffffffffffffffffffffffffffff1614610b70576040517f08c379a0000000000000000000000000000000000000000000000000000000008152600401610b679061387b565b60405180910390fd5b6000600860008973ffffffffffffffffffffffffffffffffffffffff1673ffffffffffffffffffffffffffffffffffffffff16815260200190815260200160002060006001600760008c73ffffffffffffffffffffffffffffffffffffffff1673ffffffffffffffffffffffffffffffffffffffff16815260200190815260200160002054610bff9190613a8a565b81526020019081526020016000209050600015158160000160019054906101000a900460ff16151514610c67576040517f08c379a0000000000000000000000000000000000000000000000000000000008152600401610c5e9061391b565b60405180910390fd5b600015158160000160009054906101000a900460ff16151514610cbf576040517f08c379a0000000000000000000000000000000000000000000000000000000008152600401610cb6906136db565b60405180910390fd5b82600160058110610cf9577f4e487b7100000000000000000000000000000000000000000000000000000000600052603260045260246000fd5b6020020151861015610d40576040517f08c379a0000000000000000000000000000000000000000000000000000000008152600401610d379061389b565b60405180910390fd5b4283600360058110610d7b577f4e487b7100000000000000000000000000000000000000000000000000000000600052603260045260246000fd5b602002015110158015610e09575082600460058110610dc3577f4e487b7100000000000000000000000000000000000000000000000000000000600052603260045260246000fd5b602002015183600360058110610e02577f4e487b7100000000000000000000000000000000000000000000000000000000600052603260045260246000fd5b6020020151105b8015610e90575081600160028110610e4a577f4e487b7100000000000000000000000000000000000000000000000000000000600052603260045260246000fd5b602002015183600460058110610e89577f4e487b7100000000000000000000000000000000000000000000000000000000600052603260045260246000fd5b6020020151105b610ecf576040517f08c379a0000000000000000000000000000000000000000000000000000000008152600401610ec69061395b565b60405180910390fd5b60018160000160006101000a81548160ff02191690831515021790555060008160000160016101000a81548160ff02191690831515021790555086816001019080519060200190610f21929190612b97565b5085816002018190555085816003018190555060648587610f429190613c82565b610f4c9190613ae0565b8160040181905550838160050181905550600081600601819055506040518060c0016040528084600060058110610fac577f4e487b7100000000000000000000000000000000000000000000000000000000600052603260045260246000fd5b6020020151815260200184600160058110610ff0577f4e487b7100000000000000000000000000000000000000000000000000000000600052603260045260246000fd5b6020020151815260200184600260058110611034577f4e487b7100000000000000000000000000000000000000000000000000000000600052603260045260246000fd5b6020020151815260200184600360058110611078577f4e487b7100000000000000000000000000000000000000000000000000000000600052603260045260246000fd5b60200201518152602001846004600581106110bc577f4e487b7100000000000000000000000000000000000000000000000000000000600052603260045260246000fd5b6020020151815260200184600160058110611100577f4e487b7100000000000000000000000000000000000000000000000000000000600052603260045260246000fd5b602002015181525081600701600082015181600001556020820151816001015560408201518160020155606082015181600301556080820151816004015560a08201518160050155905050604051806040016040528083600060028110611190577f4e487b7100000000000000000000000000000000000000000000000000000000600052603260045260246000fd5b60200201518152602001836001600281106111d4577f4e487b7100000000000000000000000000000000000000000000000000000000600052603260045260246000fd5b602002015181525081600d0160008201518160000155602082015181600101559050506001600760008a73ffffffffffffffffffffffffffffffffffffffff1673ffffffffffffffffffffffffffffffffffffffff168152602001908152602001600020546112439190613a8a565b600760008a73ffffffffffffffffffffffffffffffffffffffff1673ffffffffffffffffffffffffffffffffffffffff168152602001908152602001600020819055505050505050505050565b6000600860008573ffffffffffffffffffffffffffffffffffffffff1673ffffffffffffffffffffffffffffffffffffffff168152602001908152602001600020600084815260200190815260200160002060100160008373ffffffffffffffffffffffffffffffffffffffff1673ffffffffffffffffffffffffffffffffffffffff1681526020019081526020016000205490509392505050565b6000600860008373ffffffffffffffffffffffffffffffffffffffff1673ffffffffffffffffffffffffffffffffffffffff1681526020019081526020016000206000600760008573ffffffffffffffffffffffffffffffffffffffff1673ffffffffffffffffffffffffffffffffffffffff1681526020019081526020016000205481526020019081526020016000209050600115158160000160009054906101000a900460ff16151514611417576040517f08c379a000000000000000000000000000000000000000000000000000000000815260040161140e906138bb565b60405180910390fd5b600015158160000160019054906101000a900460ff1615151461146f576040517f08c379a0000000000000000000000000000000000000000000000000000000008152600401611466906136bb565b60405180910390fd5b42816007016003015410156114b9576040517f08c379a00000000000000000000000000000000000000000000000000000000081526004016114b09061385b565b60405180910390fd5b60018160000160016101000a81548160ff021916908315150217905550338160000160026101000a81548173ffffffffffffffffffffffffffffffffffffffff021916908373ffffffffffffffffffffffffffffffffffffffff160217905550611538823330846004015485600301546115339190613a8a565b6127dd565b5050565b6000600860008473ffffffffffffffffffffffffffffffffffffffff1673ffffffffffffffffffffffffffffffffffffffff1681526020019081526020016000206000600760008673ffffffffffffffffffffffffffffffffffffffff1673ffffffffffffffffffffffffffffffffffffffff1681526020019081526020016000205481526020019081526020016000209050600115158160000160019054906101000a900460ff16151514611627576040517f08c379a000000000000000000000000000000000000000000000000000000000815260040161161e906137bb565b60405180910390fd5b428160070160040154111580611644575060008160070160010154145b611683576040517f08c379a000000000000000000000000000000000000000000000000000000000815260040161167a9061373b565b60405180910390fd5b4281600d016001015410156116cd576040517f08c379a00000000000000000000000000000000000000000000000000000000081526004016116c49061393b565b60405180910390fd5b6000816003015411611714576040517f08c379a000000000000000000000000000000000000000000000000000000000815260040161170b9061397b565b60405180910390fd5b806003015482111561175b576040517f08c379a00000000000000000000000000000000000000000000000000000000081526004016117529061379b565b60405180910390fd5b80600d01600001548261176e9190613c82565b8373ffffffffffffffffffffffffffffffffffffffff1663313ce5676040518163ffffffff1660e01b815260040160206040518083038186803b1580156117b457600080fd5b505afa1580156117c8573d6000803e3d6000fd5b505050506040513d601f19601f820116820180604052508101906117ec919061302c565b600a6117f89190613b64565b346118039190613c82565b1015611844576040517f08c379a000000000000000000000000000000000000000000000000000000000815260040161183b9061377b565b60405180910390fd5b8181600301546118549190613cdc565b81600301819055508181600f0160003373ffffffffffffffffffffffffffffffffffffffff1673ffffffffffffffffffffffffffffffffffffffff168152602001908152602001600020546118a99190613a8a565b81600f0160003373ffffffffffffffffffffffffffffffffffffffff1673ffffffffffffffffffffffffffffffffffffffff16815260200190815260200160002081905550348160100160003373ffffffffffffffffffffffffffffffffffffffff1673ffffffffffffffffffffffffffffffffffffffff1681526020019081526020016000205461193b9190613a8a565b8160100160003373ffffffffffffffffffffffffffffffffffffffff1673ffffffffffffffffffffffffffffffffffffffff168152602001908152602001600020819055503481600601546119909190613a8a565b8160060181905550505050565b6119a56127d5565b73ffffffffffffffffffffffffffffffffffffffff166119c3611c10565b73ffffffffffffffffffffffffffffffffffffffff1614611a19576040517f08c379a0000000000000000000000000000000000000000000000000000000008152600401611a109061387b565b60405180910390fd5b611a236000612866565b565b60076020528060005260406000206000915090505481565b611a478282610451565b506000600860008473ffffffffffffffffffffffffffffffffffffffff1673ffffffffffffffffffffffffffffffffffffffff168152602001908152602001600020600083815260200190815260200160002090504281600d01600101541080611ab5575060008160030154145b611af4576040517f08c379a0000000000000000000000000000000000000000000000000000000008152600401611aeb906137db565b60405180910390fd5b600081600f0160003373ffffffffffffffffffffffffffffffffffffffff1673ffffffffffffffffffffffffffffffffffffffff1681526020019081526020016000205411611b78576040517f08c379a0000000000000000000000000000000000000000000000000000000008152600401611b6f9061375b565b60405180910390fd5b611bc4833383600f0160003373ffffffffffffffffffffffffffffffffffffffff1673ffffffffffffffffffffffffffffffffffffffff1681526020019081526020016000205461274f565b600081600f0160003373ffffffffffffffffffffffffffffffffffffffff1673ffffffffffffffffffffffffffffffffffffffff16815260200190815260200160002081905550505050565b60008060009054906101000a900473ffffffffffffffffffffffffffffffffffffffff16905090565b6000600860008473ffffffffffffffffffffffffffffffffffffffff1673ffffffffffffffffffffffffffffffffffffffff168152602001908152602001600020600083815260200190815260200160002060060154905092915050565b6008602052816000526040600020602052806000526040600020600091509150508060000160009054906101000a900460ff16908060000160019054906101000a900460ff16908060000160029054906101000a900473ffffffffffffffffffffffffffffffffffffffff1690806001018054611d1390613db9565b80601f0160208091040260200160405190810160405280929190818152602001828054611d3f90613db9565b8015611d8c5780601f10611d6157610100808354040283529160200191611d8c565b820191906000526020600020905b815481529060010190602001808311611d6f57829003601f168201915b505050505090806002015490806003015490806004015490806005015490806006015490806007016040518060c001604052908160008201548152602001600182015481526020016002820154815260200160038201548152602001600482015481526020016005820154815250509080600d016040518060400160405290816000820154815260200160018201548152505090508b565b6000600860008473ffffffffffffffffffffffffffffffffffffffff1673ffffffffffffffffffffffffffffffffffffffff1681526020019081526020016000206000600760008673ffffffffffffffffffffffffffffffffffffffff1673ffffffffffffffffffffffffffffffffffffffff1681526020019081526020016000205481526020019081526020016000209050600115158160000160019054906101000a900460ff16151514611f0f576040517f08c379a0000000000000000000000000000000000000000000000000000000008152600401611f06906137bb565b60405180910390fd5b4281600701600301541115611f59576040517f08c379a0000000000000000000000000000000000000000000000000000000008152600401611f509061373b565b60405180910390fd5b4281600701600401541015611fa3576040517f08c379a0000000000000000000000000000000000000000000000000000000008152600401611f9a906136fb565b60405180910390fd5b6000816007016001015411611fed576040517f08c379a0000000000000000000000000000000000000000000000000000000008152600401611fe49061383b565b60405180910390fd5b8060070160010154821115612037576040517f08c379a000000000000000000000000000000000000000000000000000000000815260040161202e9061379b565b60405180910390fd5b80600701600201548261204a9190613c82565b8373ffffffffffffffffffffffffffffffffffffffff1663313ce5676040518163ffffffff1660e01b815260040160206040518083038186803b15801561209057600080fd5b505afa1580156120a4573d6000803e3d6000fd5b505050506040513d601f19601f820116820180604052508101906120c8919061302c565b600a6120d49190613b64565b346120df9190613c82565b1015612120576040517f08c379a00000000000000000000000000000000000000000000000000000000081526004016121179061377b565b60405180910390fd5b6000600360009054906101000a900473ffffffffffffffffffffffffffffffffffffffff1673ffffffffffffffffffffffffffffffffffffffff166370a08231336040518263ffffffff1660e01b815260040161217d91906134f0565b60206040518083038186803b15801561219557600080fd5b505afa1580156121a9573d6000803e3d6000fd5b505050506040513d601f19601f820116820180604052508101906121cd9190612fb4565b14612349578181600301546121e29190613cdc565b81600301819055508181600701600101546121fd9190613cdc565b81600701600101819055508181600f0160003373ffffffffffffffffffffffffffffffffffffffff1673ffffffffffffffffffffffffffffffffffffffff168152602001908152602001600020546122559190613a8a565b81600f0160003373ffffffffffffffffffffffffffffffffffffffff1673ffffffffffffffffffffffffffffffffffffffff16815260200190815260200160002081905550348160100160003373ffffffffffffffffffffffffffffffffffffffff1673ffffffffffffffffffffffffffffffffffffffff168152602001908152602001600020546122e79190613a8a565b8160100160003373ffffffffffffffffffffffffffffffffffffffff1673ffffffffffffffffffffffffffffffffffffffff1681526020019081526020016000208190555034816006015461233c9190613a8a565b81600601819055506125b6565b6000600660009054906101000a900473ffffffffffffffffffffffffffffffffffffffff1673ffffffffffffffffffffffffffffffffffffffff166370a08231336040518263ffffffff1660e01b81526004016123a691906134f0565b60206040518083038186803b1580156123be57600080fd5b505afa1580156123d2573d6000803e3d6000fd5b505050506040513d601f19601f820116820180604052508101906123f69190612fb4565b90508160070160000154811015612442576040517f08c379a0000000000000000000000000000000000000000000000000000000008152600401612439906137fb565b60405180910390fd5b8282600301546124529190613cdc565b826003018190555082826007016001015461246d9190613cdc565b82600701600101819055508282600f0160003373ffffffffffffffffffffffffffffffffffffffff1673ffffffffffffffffffffffffffffffffffffffff168152602001908152602001600020546124c59190613a8a565b82600f0160003373ffffffffffffffffffffffffffffffffffffffff1673ffffffffffffffffffffffffffffffffffffffff16815260200190815260200160002081905550348260100160003373ffffffffffffffffffffffffffffffffffffffff1673ffffffffffffffffffffffffffffffffffffffff168152602001908152602001600020546125579190613a8a565b8260100160003373ffffffffffffffffffffffffffffffffffffffff1673ffffffffffffffffffffffffffffffffffffffff168152602001908152602001600020819055503482600601546125ac9190613a8a565b8260060181905550505b505050565b6000600860008573ffffffffffffffffffffffffffffffffffffffff1673ffffffffffffffffffffffffffffffffffffffff1681526020019081526020016000206000848152602001908152602001600020600f0160008373ffffffffffffffffffffffffffffffffffffffff1673ffffffffffffffffffffffffffffffffffffffff1681526020019081526020016000205490509392505050565b61265f6127d5565b73ffffffffffffffffffffffffffffffffffffffff1661267d611c10565b73ffffffffffffffffffffffffffffffffffffffff16146126d3576040517f08c379a00000000000000000000000000000000000000000000000000000000081526004016126ca9061387b565b60405180910390fd5b600073ffffffffffffffffffffffffffffffffffffffff168173ffffffffffffffffffffffffffffffffffffffff161415612743576040517f08c379a000000000000000000000000000000000000000000000000000000000815260040161273a9061371b565b60405180910390fd5b61274c81612866565b50565b6127d08363a9059cbb60e01b848460405160240161276e929190613542565b604051602081830303815290604052907bffffffffffffffffffffffffffffffffffffffffffffffffffffffff19166020820180517bffffffffffffffffffffffffffffffffffffffffffffffffffffffff838183161783525050505061292a565b505050565b600033905090565b612860846323b872dd60e01b8585856040516024016127fe9392919061350b565b604051602081830303815290604052907bffffffffffffffffffffffffffffffffffffffffffffffffffffffff19166020820180517bffffffffffffffffffffffffffffffffffffffffffffffffffffffff838183161783525050505061292a565b50505050565b60008060009054906101000a900473ffffffffffffffffffffffffffffffffffffffff169050816000806101000a81548173ffffffffffffffffffffffffffffffffffffffff021916908373ffffffffffffffffffffffffffffffffffffffff1602179055508173ffffffffffffffffffffffffffffffffffffffff168173ffffffffffffffffffffffffffffffffffffffff167f8be0079c531659141344cd1fd0a4f28419497f9722a3daafe3b4186f6b6457e060405160405180910390a35050565b600061298c826040518060400160405280602081526020017f5361666545524332303a206c6f772d6c6576656c2063616c6c206661696c65648152508573ffffffffffffffffffffffffffffffffffffffff166129f19092919063ffffffff16565b90506000815111156129ec57808060200190518101906129ac9190612f8b565b6129eb576040517f08c379a00000000000000000000000000000000000000000000000000000000081526004016129e2906138fb565b60405180910390fd5b5b505050565b6060612a008484600085612a09565b90509392505050565b606082471015612a4e576040517f08c379a0000000000000000000000000000000000000000000000000000000008152600401612a459061381b565b60405180910390fd5b612a5785612b1d565b612a96576040517f08c379a0000000000000000000000000000000000000000000000000000000008152600401612a8d906138db565b60405180910390fd5b6000808673ffffffffffffffffffffffffffffffffffffffff168587604051612abf91906134d9565b60006040518083038185875af1925050503d8060008114612afc576040519150601f19603f3d011682016040523d82523d6000602084013e612b01565b606091505b5091509150612b11828286612b30565b92505050949350505050565b600080823b905060008111915050919050565b60608315612b4057829050612b90565b600083511115612b535782518084602001fd5b816040517f08c379a0000000000000000000000000000000000000000000000000000000008152600401612b879190613699565b60405180910390fd5b9392505050565b828054612ba390613db9565b90600052602060002090601f016020900481019282612bc55760008555612c0c565b82601f10612bde57805160ff1916838001178555612c0c565b82800160010185558215612c0c579182015b82811115612c0b578251825591602001919060010190612bf0565b5b509050612c199190612c1d565b5090565b5b80821115612c36576000816000905550600101612c1e565b5090565b6000612c4d612c48846139db565b6139b6565b90508082856020860282011115612c6357600080fd5b60005b85811015612c935781612c798882612de0565b845260208401935060208301925050600181019050612c66565b5050509392505050565b6000612cb0612cab84613a01565b6139b6565b90508082856020860282011115612cc657600080fd5b60005b85811015612cf65781612cdc8882612de0565b845260208401935060208301925050600181019050612cc9565b5050509392505050565b6000612d13612d0e84613a27565b6139b6565b905082815260208101848484011115612d2b57600080fd5b612d36848285613d77565b509392505050565b600081359050612d4d816145e9565b92915050565b600082601f830112612d6457600080fd5b6002612d71848285612c3a565b91505092915050565b600082601f830112612d8b57600080fd5b6005612d98848285612c9d565b91505092915050565b600081519050612db081614600565b92915050565b600082601f830112612dc757600080fd5b8135612dd7848260208601612d00565b91505092915050565b600081359050612def81614617565b92915050565b600081519050612e0481614617565b92915050565b600081519050612e198161462e565b92915050565b600060208284031215612e3157600080fd5b6000612e3f84828501612d3e565b91505092915050565b6000806000806000806000610180888a031215612e6457600080fd5b6000612e728a828b01612d3e565b975050602088013567ffffffffffffffff811115612e8f57600080fd5b612e9b8a828b01612db6565b9650506040612eac8a828b01612de0565b9550506060612ebd8a828b01612de0565b9450506080612ece8a828b01612de0565b93505060a0612edf8a828b01612d7a565b925050610140612ef18a828b01612d53565b91505092959891949750929550565b60008060408385031215612f1357600080fd5b6000612f2185828601612d3e565b9250506020612f3285828601612de0565b9150509250929050565b600080600060608486031215612f5157600080fd5b6000612f5f86828701612d3e565b9350506020612f7086828701612de0565b9250506040612f8186828701612d3e565b9150509250925092565b600060208284031215612f9d57600080fd5b6000612fab84828501612da1565b91505092915050565b600060208284031215612fc657600080fd5b6000612fd484828501612df5565b91505092915050565b600080600060608486031215612ff257600080fd5b600061300086828701612df5565b935050602061301186828701612df5565b925050604061302286828701612df5565b9150509250925092565b60006020828403121561303e57600080fd5b600061304c84828501612e0a565b91505092915050565b61305e81613d10565b82525050565b61306d81613d22565b82525050565b600061307e82613a58565b6130888185613a6e565b9350613098818560208601613d86565b80840191505092915050565b6130ad81613d65565b82525050565b60006130be82613a63565b6130c88185613a79565b93506130d8818560208601613d86565b6130e181613ed8565b840191505092915050565b60006130f9602583613a79565b915061310482613ef6565b604082019050919050565b600061311c602f83613a79565b915061312782613f45565b604082019050919050565b600061313f604983613a79565b915061314a82613f94565b606082019050919050565b6000613162602683613a79565b915061316d82614009565b604082019050919050565b6000613185602c83613a79565b915061319082614058565b604082019050919050565b60006131a8602e83613a79565b91506131b3826140a7565b604082019050919050565b60006131cb602283613a79565b91506131d6826140f6565b604082019050919050565b60006131ee602683613a79565b91506131f982614145565b604082019050919050565b6000613211603a83613a79565b915061321c82614194565b604082019050919050565b6000613234602083613a79565b915061323f826141e3565b602082019050919050565b6000613257603083613a79565b91506132628261420c565b604082019050919050565b600061327a602683613a79565b91506132858261425b565b604082019050919050565b600061329d605983613a79565b91506132a8826142aa565b606082019050919050565b60006132c0604583613a79565b91506132cb8261431f565b606082019050919050565b60006132e3602083613a79565b91506132ee82614394565b602082019050919050565b6000613306604083613a79565b9150613311826143bd565b604082019050919050565b6000613329602f83613a79565b91506133348261440c565b604082019050919050565b600061334c601d83613a79565b91506133578261445b565b602082019050919050565b600061336f602a83613a79565b915061337a82614484565b604082019050919050565b6000613392602d83613a79565b915061339d826144d3565b604082019050919050565b60006133b5602683613a79565b91506133c082614522565b604082019050919050565b60006133d8601a83613a79565b91506133e382614571565b602082019050919050565b60006133fb602b83613a79565b91506134068261459a565b604082019050919050565b60c08201600082015161342760008501826134bb565b50602082015161343a60208501826134bb565b50604082015161344d60408501826134bb565b50606082015161346060608501826134bb565b50608082015161347360808501826134bb565b5060a082015161348660a08501826134bb565b50505050565b6040820160008201516134a260008501826134bb565b5060208201516134b560208501826134bb565b50505050565b6134c481613d4e565b82525050565b6134d381613d4e565b82525050565b60006134e58284613073565b915081905092915050565b60006020820190506135056000830184613055565b92915050565b60006060820190506135206000830186613055565b61352d6020830185613055565b61353a60408301846134ca565b949350505050565b60006040820190506135576000830185613055565b61356460208301846134ca565b9392505050565b600060c0820190506135806000830189613055565b61358d60208301886134ca565b61359a60408301876130a4565b6135a760608301866130a4565b6135b46080830185613055565b6135c160a08301846134ca565b979650505050505050565b60006020820190506135e16000830184613064565b92915050565b6000610220820190506135fd600083018e613064565b61360a602083018d613064565b613617604083018c613055565b8181036060830152613629818b6130b3565b9050613638608083018a6134ca565b61364560a08301896134ca565b61365260c08301886134ca565b61365f60e08301876134ca565b61366d6101008301866134ca565b61367b610120830185613411565b6136896101e083018461348c565b9c9b505050505050505050505050565b600060208201905081810360008301526136b381846130b3565b905092915050565b600060208201905081810360008301526136d4816130ec565b9050919050565b600060208201905081810360008301526136f48161310f565b9050919050565b6000602082019050818103600083015261371481613132565b9050919050565b6000602082019050818103600083015261373481613155565b9050919050565b6000602082019050818103600083015261375481613178565b9050919050565b600060208201905081810360008301526137748161319b565b9050919050565b60006020820190508181036000830152613794816131be565b9050919050565b600060208201905081810360008301526137b4816131e1565b9050919050565b600060208201905081810360008301526137d481613204565b9050919050565b600060208201905081810360008301526137f481613227565b9050919050565b600060208201905081810360008301526138148161324a565b9050919050565b600060208201905081810360008301526138348161326d565b9050919050565b6000602082019050818103600083015261385481613290565b9050919050565b60006020820190508181036000830152613874816132b3565b9050919050565b60006020820190508181036000830152613894816132d6565b9050919050565b600060208201905081810360008301526138b4816132f9565b9050919050565b600060208201905081810360008301526138d48161331c565b9050919050565b600060208201905081810360008301526138f48161333f565b9050919050565b6000602082019050818103600083015261391481613362565b9050919050565b6000602082019050818103600083015261393481613385565b9050919050565b60006020820190508181036000830152613954816133a8565b9050919050565b60006020820190508181036000830152613974816133cb565b9050919050565b60006020820190508181036000830152613994816133ee565b9050919050565b60006020820190506139b060008301846134ca565b92915050565b60006139c06139d1565b90506139cc8282613deb565b919050565b6000604051905090565b600067ffffffffffffffff8211156139f6576139f5613ea9565b5b602082029050919050565b600067ffffffffffffffff821115613a1c57613a1b613ea9565b5b602082029050919050565b600067ffffffffffffffff821115613a4257613a41613ea9565b5b613a4b82613ed8565b9050602081019050919050565b600081519050919050565b600081519050919050565b600081905092915050565b600082825260208201905092915050565b6000613a9582613d4e565b9150613aa083613d4e565b9250827fffffffffffffffffffffffffffffffffffffffffffffffffffffffffffffffff03821115613ad557613ad4613e1c565b5b828201905092915050565b6000613aeb82613d4e565b9150613af683613d4e565b925082613b0657613b05613e4b565b5b828204905092915050565b6000808291508390505b6001851115613b5b57808604811115613b3757613b36613e1c565b5b6001851615613b465780820291505b8081029050613b5485613ee9565b9450613b1b565b94509492505050565b6000613b6f82613d4e565b9150613b7a83613d58565b9250613ba77fffffffffffffffffffffffffffffffffffffffffffffffffffffffffffffffff8484613baf565b905092915050565b600082613bbf5760019050613c7b565b81613bcd5760009050613c7b565b8160018114613be35760028114613bed57613c1c565b6001915050613c7b565b60ff841115613bff57613bfe613e1c565b5b8360020a915084821115613c1657613c15613e1c565b5b50613c7b565b5060208310610133831016604e8410600b8410161715613c515782820a905083811115613c4c57613c4b613e1c565b5b613c7b565b613c5e8484846001613b11565b92509050818404811115613c7557613c74613e1c565b5b81810290505b9392505050565b6000613c8d82613d4e565b9150613c9883613d4e565b9250817fffffffffffffffffffffffffffffffffffffffffffffffffffffffffffffffff0483118215151615613cd157613cd0613e1c565b5b828202905092915050565b6000613ce782613d4e565b9150613cf283613d4e565b925082821015613d0557613d04613e1c565b5b828203905092915050565b6000613d1b82613d2e565b9050919050565b60008115159050919050565b600073ffffffffffffffffffffffffffffffffffffffff82169050919050565b6000819050919050565b600060ff82169050919050565b6000613d7082613d58565b9050919050565b82818337600083830152505050565b60005b83811015613da4578082015181840152602081019050613d89565b83811115613db3576000848401525b50505050565b60006002820490506001821680613dd157607f821691505b60208210811415613de557613de4613e7a565b5b50919050565b613df482613ed8565b810181811067ffffffffffffffff82111715613e1357613e12613ea9565b5b80604052505050565b7f4e487b7100000000000000000000000000000000000000000000000000000000600052601160045260246000fd5b7f4e487b7100000000000000000000000000000000000000000000000000000000600052601260045260246000fd5b7f4e487b7100000000000000000000000000000000000000000000000000000000600052602260045260246000fd5b7f4e487b7100000000000000000000000000000000000000000000000000000000600052604160045260246000fd5b6000601f19601f8301169050919050565b60008160011c9050919050565b7f49444f506c6174666f726d3a20596f75722049444f20616c726561647920737460008201527f6172746564000000000000000000000000000000000000000000000000000000602082015250565b7f49444f506c6174666f726d3a205468697320746f6b656e2049444f206973206160008201527f6c726561647920617070726f7665640000000000000000000000000000000000602082015250565b7f49444f506c6174666f726d3a205468697320746f6b656e2049444f20616c726560008201527f61647920656e746572726564207075626c69632073616c652e204e6f2070726960208201527f766174652073616c650000000000000000000000000000000000000000000000604082015250565b7f4f776e61626c653a206e6577206f776e657220697320746865207a65726f206160008201527f6464726573730000000000000000000000000000000000000000000000000000602082015250565b7f49444f506c6174666f726d3a205468697320746f6b656e2049444f206861732060008201527f6e6f742073746172746564210000000000000000000000000000000000000000602082015250565b7f49444f506c6174666f726d3a20596f757220616d6f756e74206f66207468697360008201527f20746f6b656e206973207a65726f000000000000000000000000000000000000602082015250565b7f49444f506c6174666f726d3a204e6f7420656e6f7567682043465820746f206260008201527f7579000000000000000000000000000000000000000000000000000000000000602082015250565b7f49444f506c6174666f726d3a204e6f7420656e6f75676820746f6b656e20746f60008201527f2074726164650000000000000000000000000000000000000000000000000000602082015250565b7f49444f506c6174666f726d3a205468697320746f6b656e2049444f206861732060008201527f6e6f74207374617274656420796574206f722065787069726564000000000000602082015250565b7f49444f506c6174666f726d3a2049444f206973207374696c6c20616374697665600082015250565b7f49444f506c6174666f726d3a20596f7572207665546f6b656e2063616e6e6f7460008201527f207265616368207468726573686f6c6400000000000000000000000000000000602082015250565b7f416464726573733a20696e73756666696369656e742062616c616e636520666f60008201527f722063616c6c0000000000000000000000000000000000000000000000000000602082015250565b7f49444f506c6174666f726d3a205468697320746f6b656e2049444f20616c726560008201527f61647920656e746572726564207075626c69632073616c652e20416d6f756e7460208201527f20666f7220707269766174652073616c65206973207a65726f00000000000000604082015250565b7f49444f506c6174666f726d3a20596f752073746172742049444f20746f6f206c60008201527f6174652120436f6e746163742061646d696e20746f206368616e67652073636860208201527f6564756c65000000000000000000000000000000000000000000000000000000604082015250565b7f4f776e61626c653a2063616c6c6572206973206e6f7420746865206f776e6572600082015250565b7f49444f506c6174666f726d3a20707269766174652073616c6520616d6f756e7460008201527f2073686f756c64206e6f742065786365656420746f74616c20616d6f756e7421602082015250565b7f49444f506c6174666f726d3a20436f6e746163742061646d696e20746f20617060008201527f70726f76616c20796f75722049444f0000000000000000000000000000000000602082015250565b7f416464726573733a2063616c6c20746f206e6f6e2d636f6e7472616374000000600082015250565b7f5361666545524332303a204552433230206f7065726174696f6e20646964206e60008201527f6f74207375636365656400000000000000000000000000000000000000000000602082015250565b7f49444f506c6174666f726d3a205468697320746f6b656e2049444f206973206160008201527f6c72656164792061637469766500000000000000000000000000000000000000602082015250565b7f49444f506c6174666f726d3a205075626c69632073616c6520616c726561647960008201527f20656e6465640000000000000000000000000000000000000000000000000000602082015250565b7f74696d657374616d702073657474696e672069732077726f6e67000000000000600082015250565b7f49444f506c6174666f726d3a205468697320746f6b656e20697320616c72656160008201527f647920736f6c64206f7574000000000000000000000000000000000000000000602082015250565b6145f281613d10565b81146145fd57600080fd5b50565b61460981613d22565b811461461457600080fd5b50565b61462081613d4e565b811461462b57600080fd5b50565b61463781613d58565b811461464257600080fd5b5056fea264697066735822122067fa9730679faaa552d00ee580bd1c6ae20156f4521dca55020bd36594f6023664736f6c63430008020033",
  "linkReferences": {},
  "deployedLinkReferences": {}
}