{
  "_format": "hh-sol-artifact-1",
  "contractName": "idoplatform",
  "sourceName": "contracts/idoplatform.sol",
  "abi": [
    {
      "inputs": [
        {
          "internalType": "address",
          "name": "_token",
          "type": "address"
        },
        {
          "internalType": "address",
          "name": "_swappiNFT",
          "type": "address"
        },
        {
          "internalType": "address",
          "name": "_router",
          "type": "address"
        },
        {
          "internalType": "address",
          "name": "_swappiFactory",
          "type": "address"
        },
        {
          "internalType": "address",
          "name": "_votingEscrow",
          "type": "address"
        }
      ],
      "stateMutability": "nonpayable",
      "type": "constructor"
    },
    {
      "anonymous": false,
      "inputs": [
        {
          "indexed": true,
          "internalType": "address",
          "name": "previousOwner",
          "type": "address"
        },
        {
          "indexed": true,
          "internalType": "address",
          "name": "newOwner",
          "type": "address"
        }
      ],
      "name": "OwnershipTransferred",
      "type": "event"
    },
    {
      "inputs": [
        {
          "internalType": "address",
          "name": "token_addr",
          "type": "address"
        },
        {
          "internalType": "uint256",
          "name": "ido_id",
          "type": "uint256"
        }
      ],
      "name": "addIDOToken",
      "outputs": [],
      "stateMutability": "nonpayable",
      "type": "function"
    },
    {
      "inputs": [
        {
          "internalType": "address",
          "name": "token_addr",
          "type": "address"
        },
        {
          "internalType": "string",
          "name": "projectName",
          "type": "string"
        },
        {
          "internalType": "uint256",
          "name": "amt",
          "type": "uint256"
        },
        {
          "internalType": "uint256",
          "name": "ratioForLP",
          "type": "uint256"
        },
        {
          "internalType": "uint256",
          "name": "priceForLP",
          "type": "uint256"
        },
        {
          "internalType": "address[]",
          "name": "whitelistAddress",
          "type": "address[]"
        },
        {
          "internalType": "uint256[]",
          "name": "maxAmtPerEntryInWhitelist",
          "type": "uint256[]"
        },
        {
          "internalType": "uint256[7]",
          "name": "privateData",
          "type": "uint256[7]"
        },
        {
          "internalType": "uint256[2]",
          "name": "publicData",
          "type": "uint256[2]"
        }
      ],
      "name": "adminApproval",
      "outputs": [],
      "stateMutability": "nonpayable",
      "type": "function"
    },
    {
      "inputs": [
        {
          "internalType": "address",
          "name": "token_addr",
          "type": "address"
        },
        {
          "internalType": "uint256",
          "name": "IDOId",
          "type": "uint256"
        }
      ],
      "name": "claimAllTokens",
      "outputs": [],
      "stateMutability": "nonpayable",
      "type": "function"
    },
    {
      "inputs": [
        {
          "internalType": "address",
          "name": "",
          "type": "address"
        }
      ],
      "name": "currentIDOId",
      "outputs": [
        {
          "internalType": "uint256",
          "name": "",
          "type": "uint256"
        }
      ],
      "stateMutability": "view",
      "type": "function"
    },
    {
      "inputs": [
        {
          "internalType": "address",
          "name": "token_addr",
          "type": "address"
        },
        {
          "internalType": "uint256",
          "name": "IDOId",
          "type": "uint256"
        }
      ],
      "name": "finalize",
      "outputs": [
        {
          "internalType": "bool",
          "name": "",
          "type": "bool"
        }
      ],
      "stateMutability": "nonpayable",
      "type": "function"
    },
    {
      "inputs": [
        {
          "internalType": "address",
          "name": "token_addr",
          "type": "address"
        },
        {
          "internalType": "uint256",
          "name": "id",
          "type": "uint256"
        }
      ],
      "name": "getAmtOfCFXCollected",
      "outputs": [
        {
          "internalType": "uint256",
          "name": "",
          "type": "uint256"
        }
      ],
      "stateMutability": "view",
      "type": "function"
    },
    {
      "inputs": [
        {
          "internalType": "address",
          "name": "token_addr",
          "type": "address"
        },
        {
          "internalType": "uint256",
          "name": "id",
          "type": "uint256"
        },
        {
          "internalType": "address",
          "name": "buyer_addr",
          "type": "address"
        }
      ],
      "name": "getAmtOfCFXForBuyer",
      "outputs": [
        {
          "internalType": "uint256",
          "name": "",
          "type": "uint256"
        }
      ],
      "stateMutability": "view",
      "type": "function"
    },
    {
      "inputs": [
        {
          "internalType": "address",
          "name": "token_addr",
          "type": "address"
        },
        {
          "internalType": "uint256",
          "name": "id",
          "type": "uint256"
        },
        {
          "internalType": "address",
          "name": "buyer_addr",
          "type": "address"
        }
      ],
      "name": "getAmtOfTokenForBuyer",
      "outputs": [
        {
          "internalType": "uint256",
          "name": "",
          "type": "uint256"
        }
      ],
      "stateMutability": "view",
      "type": "function"
    },
    {
      "inputs": [
        {
          "internalType": "address",
          "name": "token_addr",
          "type": "address"
        }
      ],
      "name": "getCurrentIDOIdByTokenAddr",
      "outputs": [
        {
          "internalType": "uint256",
          "name": "",
          "type": "uint256"
        }
      ],
      "stateMutability": "view",
      "type": "function"
    },
    {
      "inputs": [
        {
          "internalType": "address",
          "name": "token_addr",
          "type": "address"
        },
        {
          "internalType": "uint256",
          "name": "id",
          "type": "uint256"
        }
      ],
      "name": "isIDOActiveByID",
      "outputs": [
        {
          "internalType": "bool",
          "name": "",
          "type": "bool"
        }
      ],
      "stateMutability": "view",
      "type": "function"
    },
    {
      "inputs": [
        {
          "internalType": "address",
          "name": "token_addr",
          "type": "address"
        },
        {
          "internalType": "uint256",
          "name": "id",
          "type": "uint256"
        },
        {
          "internalType": "address",
          "name": "buyer_addr",
          "type": "address"
        }
      ],
      "name": "isInWhitelist",
      "outputs": [
        {
          "internalType": "bool",
          "name": "",
          "type": "bool"
        }
      ],
      "stateMutability": "view",
      "type": "function"
    },
    {
      "inputs": [
        {
          "internalType": "address",
          "name": "token_addr",
          "type": "address"
        },
        {
          "internalType": "uint256",
          "name": "id",
          "type": "uint256"
        },
        {
          "internalType": "address",
          "name": "buyer_addr",
          "type": "address"
        }
      ],
      "name": "maxAmountInPrivateSaleByAddr",
      "outputs": [
        {
          "internalType": "uint256",
          "name": "",
          "type": "uint256"
        }
      ],
      "stateMutability": "view",
      "type": "function"
    },
    {
      "inputs": [],
      "name": "owner",
      "outputs": [
        {
          "internalType": "address",
          "name": "",
          "type": "address"
        }
      ],
      "stateMutability": "view",
      "type": "function"
    },
    {
      "inputs": [
        {
          "internalType": "address",
          "name": "token_addr",
          "type": "address"
        },
        {
          "internalType": "uint256",
          "name": "amt_to_buy",
          "type": "uint256"
        }
      ],
      "name": "privateSale",
      "outputs": [],
      "stateMutability": "payable",
      "type": "function"
    },
    {
      "inputs": [
        {
          "internalType": "address",
          "name": "token_addr",
          "type": "address"
        },
        {
          "internalType": "uint256",
          "name": "amt_to_buy",
          "type": "uint256"
        }
      ],
      "name": "publicSale",
      "outputs": [],
      "stateMutability": "payable",
      "type": "function"
    },
    {
      "inputs": [],
      "name": "renounceOwnership",
      "outputs": [],
      "stateMutability": "nonpayable",
      "type": "function"
    },
    {
      "inputs": [
        {
          "internalType": "address",
          "name": "",
          "type": "address"
        },
        {
          "internalType": "uint256",
          "name": "",
          "type": "uint256"
        }
      ],
      "name": "tokenInfo",
      "outputs": [
        {
          "internalType": "bool",
          "name": "isApproved",
          "type": "bool"
        },
        {
          "internalType": "bool",
          "name": "valid",
          "type": "bool"
        },
        {
          "internalType": "address",
          "name": "tokenOwner",
          "type": "address"
        },
        {
          "internalType": "string",
          "name": "projectName",
          "type": "string"
        },
        {
          "internalType": "uint256",
          "name": "totalAmt",
          "type": "uint256"
        },
        {
          "internalType": "uint256",
          "name": "amt",
          "type": "uint256"
        },
        {
          "internalType": "uint256",
          "name": "amtForLP",
          "type": "uint256"
        },
        {
          "internalType": "uint256",
          "name": "priceForLP",
          "type": "uint256"
        },
        {
          "internalType": "uint256",
          "name": "amtOfCFXCollected",
          "type": "uint256"
        },
        {
          "components": [
            {
              "internalType": "uint256",
              "name": "veTokenThreshold",
              "type": "uint256"
            },
            {
              "internalType": "uint256",
              "name": "amount",
              "type": "uint256"
            },
            {
              "internalType": "uint256",
              "name": "price",
              "type": "uint256"
            },
            {
              "internalType": "uint256",
              "name": "startTime",
              "type": "uint256"
            },
            {
              "internalType": "uint256",
              "name": "endTime",
              "type": "uint256"
            },
            {
              "internalType": "uint256",
              "name": "totalAmt",
              "type": "uint256"
            },
            {
              "internalType": "uint256",
              "name": "NFTThreshold",
              "type": "uint256"
            },
            {
              "internalType": "uint256",
              "name": "maxAmtPerBuyer",
              "type": "uint256"
            },
            {
              "internalType": "uint256",
              "name": "amountExcludingWhitelist",
              "type": "uint256"
            }
          ],
          "internalType": "struct idoplatform.privateSpecs",
          "name": "priSaleInfo",
          "type": "tuple"
        },
        {
          "components": [
            {
              "internalType": "uint256",
              "name": "price",
              "type": "uint256"
            },
            {
              "internalType": "uint256",
              "name": "endTime",
              "type": "uint256"
            }
          ],
          "internalType": "struct idoplatform.publicSpecs",
          "name": "pubSaleInfo",
          "type": "tuple"
        },
        {
          "internalType": "uint256",
          "name": "totalMaxAmountOfWhitelist",
          "type": "uint256"
        }
      ],
      "stateMutability": "view",
      "type": "function"
    },
    {
      "inputs": [
        {
          "internalType": "address",
          "name": "newOwner",
          "type": "address"
        }
      ],
      "name": "transferOwnership",
      "outputs": [],
      "stateMutability": "nonpayable",
      "type": "function"
    }
  ],
  "bytecode": "0x60806040523480156200001157600080fd5b50604051620063713803806200637183398181016040528101906200003791906200028a565b620000576200004b620001a760201b60201c565b620001af60201b60201c565b84600160006101000a81548173ffffffffffffffffffffffffffffffffffffffff021916908373ffffffffffffffffffffffffffffffffffffffff16021790555083600260006101000a81548173ffffffffffffffffffffffffffffffffffffffff021916908373ffffffffffffffffffffffffffffffffffffffff16021790555082600360006101000a81548173ffffffffffffffffffffffffffffffffffffffff021916908373ffffffffffffffffffffffffffffffffffffffff16021790555081600460006101000a81548173ffffffffffffffffffffffffffffffffffffffff021916908373ffffffffffffffffffffffffffffffffffffffff16021790555080600560006101000a81548173ffffffffffffffffffffffffffffffffffffffff021916908373ffffffffffffffffffffffffffffffffffffffff16021790555050505050506200035a565b600033905090565b60008060009054906101000a900473ffffffffffffffffffffffffffffffffffffffff169050816000806101000a81548173ffffffffffffffffffffffffffffffffffffffff021916908373ffffffffffffffffffffffffffffffffffffffff1602179055508173ffffffffffffffffffffffffffffffffffffffff168173ffffffffffffffffffffffffffffffffffffffff167f8be0079c531659141344cd1fd0a4f28419497f9722a3daafe3b4186f6b6457e060405160405180910390a35050565b600081519050620002848162000340565b92915050565b600080600080600060a08688031215620002a357600080fd5b6000620002b38882890162000273565b9550506020620002c68882890162000273565b9450506040620002d98882890162000273565b9350506060620002ec8882890162000273565b9250506080620002ff8882890162000273565b9150509295509295909350565b6000620003198262000320565b9050919050565b600073ffffffffffffffffffffffffffffffffffffffff82169050919050565b6200034b816200030c565b81146200035757600080fd5b50565b616007806200036a6000396000f3fe6080604052600436106101095760003560e01c80637634c01a11610095578063a3d3276811610064578063a3d3276814610392578063bb7d88a9146103cf578063d50a3d2c14610417578063f09eb79c14610433578063f2fde38b1461047057610109565b80637634c01a146102c457806387e4d2a7146103015780638d492e8b1461032a5780638da5cb5b1461036757610109565b8063191de784116100dc578063191de78414610202578063218db2841461022b57806339c92b8e14610268578063585fd73e14610291578063715018a6146102ad57610109565b8063019373191461010e5780630553e1561461014b5780630704cc881461018857806307691b80146101c5575b600080fd5b34801561011a57600080fd5b50610135600480360381019061013091906143d2565b610499565b60405161014291906150fb565b60405180910390f35b34801561015757600080fd5b50610172600480360381019061016d9190614509565b6104e2565b60405161017f9190614c9d565b60405180910390f35b34801561019457600080fd5b506101af60048036038101906101aa9190614509565b610b1a565b6040516101bc9190614c9d565b60405180910390f35b3480156101d157600080fd5b506101ec60048036038101906101e79190614545565b610b85565b6040516101f991906150fb565b60405180910390f35b34801561020e57600080fd5b50610229600480360381019061022491906143fb565b610d17565b005b34801561023757600080fd5b50610252600480360381019061024d9190614545565b6117d7565b60405161025f91906150fb565b60405180910390f35b34801561027457600080fd5b5061028f600480360381019061028a9190614509565b611873565b005b6102ab60048036038101906102a69190614509565b611b05565b005b3480156102b957600080fd5b506102c2611f66565b005b3480156102d057600080fd5b506102eb60048036038101906102e691906143d2565b611fee565b6040516102f891906150fb565b60405180910390f35b34801561030d57600080fd5b5061032860048036038101906103239190614509565b612006565b005b34801561033657600080fd5b50610351600480360381019061034c9190614545565b6121d9565b60405161035e9190614c9d565b60405180910390f35b34801561037357600080fd5b5061037c612278565b6040516103899190614bc1565b60405180910390f35b34801561039e57600080fd5b506103b960048036038101906103b49190614509565b6122a1565b6040516103c691906150fb565b60405180910390f35b3480156103db57600080fd5b506103f660048036038101906103f19190614509565b6122ff565b60405161040e9c9b9a99989796959493929190614cb8565b60405180910390f35b610431600480360381019061042c9190614509565b6124b1565b005b34801561043f57600080fd5b5061045a60048036038101906104559190614545565b613a42565b60405161046791906150fb565b60405180910390f35b34801561047c57600080fd5b50610497600480360381019061049291906143d2565b613ade565b005b6000600660008373ffffffffffffffffffffffffffffffffffffffff1673ffffffffffffffffffffffffffffffffffffffff168152602001908152602001600020549050919050565b600080600760008573ffffffffffffffffffffffffffffffffffffffff1673ffffffffffffffffffffffffffffffffffffffff168152602001908152602001600020600084815260200190815260200160002090508060000160019054906101000a900460ff16801561056357508060000160009054906101000a900460ff165b15610b0e574281601001600101541080610581575060008160030154145b15610b045760008160000160016101000a81548160ff02191690831515021790555060008160000160006101000a81548160ff02191690831515021790555060008473ffffffffffffffffffffffffffffffffffffffff1663313ce5676040518163ffffffff1660e01b815260040160206040518083038186803b15801561060857600080fd5b505afa15801561061c573d6000803e3d6000fd5b505050506040513d601f19601f820116820180604052508101906106409190614635565b600a61064c919061531c565b82600501548360040154610660919061543a565b61066a9190615298565b905060008260060154821161068357826004015461072c565b8573ffffffffffffffffffffffffffffffffffffffff1663313ce5676040518163ffffffff1660e01b815260040160206040518083038186803b1580156106c957600080fd5b505afa1580156106dd573d6000803e3d6000fd5b505050506040513d601f19601f820116820180604052508101906107019190614635565b600a61070d919061531c565b836005015484600601546107219190615298565b61072b919061543a565b5b90506000836006015483116107415782610747565b83600601545b90508673ffffffffffffffffffffffffffffffffffffffff1663095ea7b3600360009054906101000a900473ffffffffffffffffffffffffffffffffffffffff16846040518363ffffffff1660e01b81526004016107a6929190614c13565b602060405180830381600087803b1580156107c057600080fd5b505af11580156107d4573d6000803e3d6000fd5b505050506040513d601f19601f820116820180604052508101906107f89190614594565b50600080600360009054906101000a900473ffffffffffffffffffffffffffffffffffffffff1673ffffffffffffffffffffffffffffffffffffffff16838a866000808b60000160029054906101000a900473ffffffffffffffffffffffffffffffffffffffff1660014261086d9190615242565b60405160240161088296959493929190614c3c565b6040516020818303038152906040527ff305d719000000000000000000000000000000000000000000000000000000007bffffffffffffffffffffffffffffffffffffffffffffffffffffffff19166020820180517bffffffffffffffffffffffffffffffffffffffffffffffffffffffff838183161783525050505060405161090c9190614baa565b60006040518083038185875af1925050503d8060008114610949576040519150601f19603f3d011682016040523d82523d6000602084013e61094e565b606091505b50915091508115610a43576000808280602001905181019061097091906145e6565b50915091506109c28b8960000160029054906101000a900473ffffffffffffffffffffffffffffffffffffffff16848b600401548c600301546109b39190615242565b6109bd9190615494565b613bd6565b8760000160029054906101000a900473ffffffffffffffffffffffffffffffffffffffff1673ffffffffffffffffffffffffffffffffffffffff166108fc828a60060154610a109190615494565b9081150290604051600060405180830381858888f19350505050158015610a3b573d6000803e3d6000fd5b505050610af5565b610a85898760000160029054906101000a900473ffffffffffffffffffffffffffffffffffffffff1688600401548960030154610a809190615242565b613bd6565b8560000160029054906101000a900473ffffffffffffffffffffffffffffffffffffffff1673ffffffffffffffffffffffffffffffffffffffff166108fc87600601549081150290604051600060405180830381858888f19350505050158015610af3573d6000803e3d6000fd5b505b60019650505050505050610b14565b6000915050610b14565b60009150505b92915050565b6000600760008473ffffffffffffffffffffffffffffffffffffffff1673ffffffffffffffffffffffffffffffffffffffff168152602001908152602001600020600083815260200190815260200160002060000160019054906101000a900460ff16905092915050565b600080600760008673ffffffffffffffffffffffffffffffffffffffff1673ffffffffffffffffffffffffffffffffffffffff168152602001908152602001600020600085815260200190815260200160002060140160008473ffffffffffffffffffffffffffffffffffffffff1673ffffffffffffffffffffffffffffffffffffffff1681526020019081526020016000205414610cb657600760008573ffffffffffffffffffffffffffffffffffffffff1673ffffffffffffffffffffffffffffffffffffffff168152602001908152602001600020600084815260200190815260200160002060140160008373ffffffffffffffffffffffffffffffffffffffff1673ffffffffffffffffffffffffffffffffffffffff168152602001908152602001600020549050610d10565b600760008573ffffffffffffffffffffffffffffffffffffffff1673ffffffffffffffffffffffffffffffffffffffff16815260200190815260200160002060008481526020019081526020016000206007016007015490505b9392505050565b610d1f613c5c565b73ffffffffffffffffffffffffffffffffffffffff16610d3d612278565b73ffffffffffffffffffffffffffffffffffffffff1614610d93576040517f08c379a0000000000000000000000000000000000000000000000000000000008152600401610d8a90614fdb565b60405180910390fd5b6000600760008b73ffffffffffffffffffffffffffffffffffffffff1673ffffffffffffffffffffffffffffffffffffffff16815260200190815260200160002060006001600660008e73ffffffffffffffffffffffffffffffffffffffff1673ffffffffffffffffffffffffffffffffffffffff16815260200190815260200160002054610e229190615242565b81526020019081526020016000209050600015158160000160019054906101000a900460ff16151514610e8a576040517f08c379a0000000000000000000000000000000000000000000000000000000008152600401610e819061507b565b60405180910390fd5b600015158160000160009054906101000a900460ff16151514610ee2576040517f08c379a0000000000000000000000000000000000000000000000000000000008152600401610ed990614ddb565b60405180910390fd5b82600160078110610f1c577f4e487b7100000000000000000000000000000000000000000000000000000000600052603260045260246000fd5b6020020151881015610f63576040517f08c379a0000000000000000000000000000000000000000000000000000000008152600401610f5a90614ffb565b60405180910390fd5b4283600360078110610f9e577f4e487b7100000000000000000000000000000000000000000000000000000000600052603260045260246000fd5b60200201511015801561102c575082600460078110610fe6577f4e487b7100000000000000000000000000000000000000000000000000000000600052603260045260246000fd5b602002015183600360078110611025577f4e487b7100000000000000000000000000000000000000000000000000000000600052603260045260246000fd5b6020020151105b80156110b357508160016002811061106d577f4e487b7100000000000000000000000000000000000000000000000000000000600052603260045260246000fd5b6020020151836004600781106110ac577f4e487b7100000000000000000000000000000000000000000000000000000000600052603260045260246000fd5b6020020151105b6110f2576040517f08c379a00000000000000000000000000000000000000000000000000000000081526004016110e990614fbb565b60405180910390fd5b8351855114611136576040517f08c379a000000000000000000000000000000000000000000000000000000000815260040161112d90614d9b565b60405180910390fd5b6000855190506000805b828110156111aa57868181518110611181577f4e487b7100000000000000000000000000000000000000000000000000000000600052603260045260246000fd5b6020026020010151826111949190615242565b91506001816111a39190615242565b9050611140565b5080856001600781106111e6577f4e487b7100000000000000000000000000000000000000000000000000000000600052603260045260246000fd5b6020020151101561122c576040517f08c379a000000000000000000000000000000000000000000000000000000000815260040161122390614dfb565b60405180910390fd5b60005b8281101561131157868181518110611270577f4e487b7100000000000000000000000000000000000000000000000000000000600052603260045260246000fd5b60200260200101518460140160008a84815181106112b7577f4e487b7100000000000000000000000000000000000000000000000000000000600052603260045260246000fd5b602002602001015173ffffffffffffffffffffffffffffffffffffffff1673ffffffffffffffffffffffffffffffffffffffff1681526020019081526020016000208190555060018161130a9190615242565b905061122f565b5060018360000160006101000a81548160ff02191690831515021790555060008360000160016101000a81548160ff0219169083151502179055508a83600101908051906020019061136492919061401e565b508983600201819055508983600301819055506064898b611385919061543a565b61138f9190615298565b836004018190555087836005018190555060008360060181905550604051806101200160405280866000600781106113f0577f4e487b7100000000000000000000000000000000000000000000000000000000600052603260045260246000fd5b6020020151815260200186600160078110611434577f4e487b7100000000000000000000000000000000000000000000000000000000600052603260045260246000fd5b6020020151815260200186600260078110611478577f4e487b7100000000000000000000000000000000000000000000000000000000600052603260045260246000fd5b60200201518152602001866003600781106114bc577f4e487b7100000000000000000000000000000000000000000000000000000000600052603260045260246000fd5b6020020151815260200186600460078110611500577f4e487b7100000000000000000000000000000000000000000000000000000000600052603260045260246000fd5b6020020151815260200186600160078110611544577f4e487b7100000000000000000000000000000000000000000000000000000000600052603260045260246000fd5b6020020151815260200186600560078110611588577f4e487b7100000000000000000000000000000000000000000000000000000000600052603260045260246000fd5b60200201518152602001866006600781106115cc577f4e487b7100000000000000000000000000000000000000000000000000000000600052603260045260246000fd5b602002015181526020018287600160078110611611577f4e487b7100000000000000000000000000000000000000000000000000000000600052603260045260246000fd5b60200201516116209190615494565b81525083600701600082015181600001556020820151816001015560408201518160020155606082015181600301556080820151816004015560a0820151816005015560c0820151816006015560e0820151816007015561010082015181600801559050506040518060400160405280856000600281106116ca577f4e487b7100000000000000000000000000000000000000000000000000000000600052603260045260246000fd5b602002015181526020018560016002811061170e577f4e487b7100000000000000000000000000000000000000000000000000000000600052603260045260246000fd5b60200201518152508360100160008201518160000155602082015181600101559050508083601501819055506001600660008e73ffffffffffffffffffffffffffffffffffffffff1673ffffffffffffffffffffffffffffffffffffffff168152602001908152602001600020546117869190615242565b600660008e73ffffffffffffffffffffffffffffffffffffffff1673ffffffffffffffffffffffffffffffffffffffff16815260200190815260200160002081905550505050505050505050505050565b6000600760008573ffffffffffffffffffffffffffffffffffffffff1673ffffffffffffffffffffffffffffffffffffffff168152602001908152602001600020600084815260200190815260200160002060130160008373ffffffffffffffffffffffffffffffffffffffff1673ffffffffffffffffffffffffffffffffffffffff1681526020019081526020016000205490509392505050565b600660008373ffffffffffffffffffffffffffffffffffffffff1673ffffffffffffffffffffffffffffffffffffffff1681526020019081526020016000205481146118f4576040517f08c379a00000000000000000000000000000000000000000000000000000000081526004016118eb90614f1b565b60405180910390fd5b6000600760008473ffffffffffffffffffffffffffffffffffffffff1673ffffffffffffffffffffffffffffffffffffffff1681526020019081526020016000206000600660008673ffffffffffffffffffffffffffffffffffffffff1673ffffffffffffffffffffffffffffffffffffffff1681526020019081526020016000205481526020019081526020016000209050600115158160000160009054906101000a900460ff161515146119df576040517f08c379a00000000000000000000000000000000000000000000000000000000081526004016119d69061501b565b60405180910390fd5b600015158160000160019054906101000a900460ff16151514611a37576040517f08c379a0000000000000000000000000000000000000000000000000000000008152600401611a2e90614dbb565b60405180910390fd5b4281600701600301541015611a81576040517f08c379a0000000000000000000000000000000000000000000000000000000008152600401611a7890614f9b565b60405180910390fd5b60018160000160016101000a81548160ff021916908315150217905550338160000160026101000a81548173ffffffffffffffffffffffffffffffffffffffff021916908373ffffffffffffffffffffffffffffffffffffffff160217905550611b0083333084600401548560030154611afb9190615242565b613c64565b505050565b6000600760008473ffffffffffffffffffffffffffffffffffffffff1673ffffffffffffffffffffffffffffffffffffffff1681526020019081526020016000206000600660008673ffffffffffffffffffffffffffffffffffffffff1673ffffffffffffffffffffffffffffffffffffffff1681526020019081526020016000205481526020019081526020016000209050600115158160000160019054906101000a900460ff16151514611bf0576040517f08c379a0000000000000000000000000000000000000000000000000000000008152600401611be790614ebb565b60405180910390fd5b428160070160040154111580611c0d575060008160070160010154145b611c4c576040517f08c379a0000000000000000000000000000000000000000000000000000000008152600401611c4390614e3b565b60405180910390fd5b4281601001600101541015611c96576040517f08c379a0000000000000000000000000000000000000000000000000000000008152600401611c8d9061509b565b60405180910390fd5b6000816003015411611cdd576040517f08c379a0000000000000000000000000000000000000000000000000000000008152600401611cd4906150bb565b60405180910390fd5b8060030154821115611d24576040517f08c379a0000000000000000000000000000000000000000000000000000000008152600401611d1b90614e9b565b60405180910390fd5b806010016000015482611d37919061543a565b8373ffffffffffffffffffffffffffffffffffffffff1663313ce5676040518163ffffffff1660e01b815260040160206040518083038186803b158015611d7d57600080fd5b505afa158015611d91573d6000803e3d6000fd5b505050506040513d601f19601f82011682018060405250810190611db59190614635565b600a611dc1919061531c565b34611dcc919061543a565b1015611e0d576040517f08c379a0000000000000000000000000000000000000000000000000000000008152600401611e0490614e7b565b60405180910390fd5b818160030154611e1d9190615494565b8160030181905550818160120160003373ffffffffffffffffffffffffffffffffffffffff1673ffffffffffffffffffffffffffffffffffffffff16815260200190815260200160002054611e729190615242565b8160120160003373ffffffffffffffffffffffffffffffffffffffff1673ffffffffffffffffffffffffffffffffffffffff16815260200190815260200160002081905550348160130160003373ffffffffffffffffffffffffffffffffffffffff1673ffffffffffffffffffffffffffffffffffffffff16815260200190815260200160002054611f049190615242565b8160130160003373ffffffffffffffffffffffffffffffffffffffff1673ffffffffffffffffffffffffffffffffffffffff16815260200190815260200160002081905550348160060154611f599190615242565b8160060181905550505050565b611f6e613c5c565b73ffffffffffffffffffffffffffffffffffffffff16611f8c612278565b73ffffffffffffffffffffffffffffffffffffffff1614611fe2576040517f08c379a0000000000000000000000000000000000000000000000000000000008152600401611fd990614fdb565b60405180910390fd5b611fec6000613ced565b565b60066020528060005260406000206000915090505481565b61201082826104e2565b506000600760008473ffffffffffffffffffffffffffffffffffffffff1673ffffffffffffffffffffffffffffffffffffffff16815260200190815260200160002060008381526020019081526020016000209050428160100160010154108061207e575060008160030154145b6120bd576040517f08c379a00000000000000000000000000000000000000000000000000000000081526004016120b490614edb565b60405180910390fd5b60008160120160003373ffffffffffffffffffffffffffffffffffffffff1673ffffffffffffffffffffffffffffffffffffffff1681526020019081526020016000205411612141576040517f08c379a000000000000000000000000000000000000000000000000000000000815260040161213890614e5b565b60405180910390fd5b61218d83338360120160003373ffffffffffffffffffffffffffffffffffffffff1673ffffffffffffffffffffffffffffffffffffffff16815260200190815260200160002054613bd6565b60008160120160003373ffffffffffffffffffffffffffffffffffffffff1673ffffffffffffffffffffffffffffffffffffffff16815260200190815260200160002081905550505050565b600080600760008673ffffffffffffffffffffffffffffffffffffffff1673ffffffffffffffffffffffffffffffffffffffff168152602001908152602001600020600085815260200190815260200160002060140160008473ffffffffffffffffffffffffffffffffffffffff1673ffffffffffffffffffffffffffffffffffffffff16815260200190815260200160002054141590509392505050565b60008060009054906101000a900473ffffffffffffffffffffffffffffffffffffffff16905090565b6000600760008473ffffffffffffffffffffffffffffffffffffffff1673ffffffffffffffffffffffffffffffffffffffff168152602001908152602001600020600083815260200190815260200160002060060154905092915050565b6007602052816000526040600020602052806000526040600020600091509150508060000160009054906101000a900460ff16908060000160019054906101000a900460ff16908060000160029054906101000a900473ffffffffffffffffffffffffffffffffffffffff169080600101805461237b90615571565b80601f01602080910402602001604051908101604052809291908181526020018280546123a790615571565b80156123f45780601f106123c9576101008083540402835291602001916123f4565b820191906000526020600020905b8154815290600101906020018083116123d757829003601f168201915b5050505050908060020154908060030154908060040154908060050154908060060154908060070160405180610120016040529081600082015481526020016001820154815260200160028201548152602001600382015481526020016004820154815260200160058201548152602001600682015481526020016007820154815260200160088201548152505090806010016040518060400160405290816000820154815260200160018201548152505090806015015490508c565b6000600760008473ffffffffffffffffffffffffffffffffffffffff1673ffffffffffffffffffffffffffffffffffffffff1681526020019081526020016000206000600660008673ffffffffffffffffffffffffffffffffffffffff1673ffffffffffffffffffffffffffffffffffffffff1681526020019081526020016000205481526020019081526020016000209050600115158160000160019054906101000a900460ff1615151461259c576040517f08c379a000000000000000000000000000000000000000000000000000000000815260040161259390614ebb565b60405180910390fd5b42816007016003015411156125e6576040517f08c379a00000000000000000000000000000000000000000000000000000000081526004016125dd90614e3b565b60405180910390fd5b4281600701600401541015612630576040517f08c379a000000000000000000000000000000000000000000000000000000000815260040161262790614f3b565b60405180910390fd5b600081600701600101541161267a576040517f08c379a000000000000000000000000000000000000000000000000000000000815260040161267190614f7b565b60405180910390fd5b80600701600201548261268d919061543a565b8373ffffffffffffffffffffffffffffffffffffffff1663313ce5676040518163ffffffff1660e01b815260040160206040518083038186803b1580156126d357600080fd5b505afa1580156126e7573d6000803e3d6000fd5b505050506040513d601f19601f8201168201806040525081019061270b9190614635565b600a612717919061531c565b34612722919061543a565b1015612763576040517f08c379a000000000000000000000000000000000000000000000000000000000815260040161275a90614e7b565b60405180910390fd5b60008160140160003373ffffffffffffffffffffffffffffffffffffffff1673ffffffffffffffffffffffffffffffffffffffff168152602001908152602001600020541115613475576000600560009054906101000a900473ffffffffffffffffffffffffffffffffffffffff1673ffffffffffffffffffffffffffffffffffffffff166370a08231336040518263ffffffff1660e01b815260040161280a9190614bc1565b60206040518083038186803b15801561282257600080fd5b505afa158015612836573d6000803e3d6000fd5b505050506040513d601f19601f8201168201806040525081019061285a91906145bd565b90506000600260009054906101000a900473ffffffffffffffffffffffffffffffffffffffff1673ffffffffffffffffffffffffffffffffffffffff166370a08231336040518263ffffffff1660e01b81526004016128b99190614bc1565b60206040518083038186803b1580156128d157600080fd5b505afa1580156128e5573d6000803e3d6000fd5b505050506040513d601f19601f8201168201806040525081019061290991906145bd565b1415801561291e575081600701600601548110155b80612930575081600701600001548110155b1561322c5781600701600701548260140160003373ffffffffffffffffffffffffffffffffffffffff1673ffffffffffffffffffffffffffffffffffffffff1681526020019081526020016000205410612bcb578160140160003373ffffffffffffffffffffffffffffffffffffffff1673ffffffffffffffffffffffffffffffffffffffff168152602001908152602001600020548260120160003373ffffffffffffffffffffffffffffffffffffffff1673ffffffffffffffffffffffffffffffffffffffff1681526020019081526020016000205484612a139190615242565b1115612a54576040517f08c379a0000000000000000000000000000000000000000000000000000000008152600401612a4b906150db565b60405180910390fd5b828260030154612a649190615494565b8260030181905550828260070160010154612a7f9190615494565b8260070160010181905550828260120160003373ffffffffffffffffffffffffffffffffffffffff1673ffffffffffffffffffffffffffffffffffffffff16815260200190815260200160002054612ad79190615242565b8260120160003373ffffffffffffffffffffffffffffffffffffffff1673ffffffffffffffffffffffffffffffffffffffff16815260200190815260200160002081905550348260130160003373ffffffffffffffffffffffffffffffffffffffff1673ffffffffffffffffffffffffffffffffffffffff16815260200190815260200160002054612b699190615242565b8260130160003373ffffffffffffffffffffffffffffffffffffffff1673ffffffffffffffffffffffffffffffffffffffff16815260200190815260200160002081905550348260060154612bbe9190615242565b8260060181905550613227565b81600701600701548260120160003373ffffffffffffffffffffffffffffffffffffffff1673ffffffffffffffffffffffffffffffffffffffff1681526020019081526020016000205484612c209190615242565b1115612c61576040517f08c379a0000000000000000000000000000000000000000000000000000000008152600401612c58906150db565b60405180910390fd5b8160140160003373ffffffffffffffffffffffffffffffffffffffff1673ffffffffffffffffffffffffffffffffffffffff168152602001908152602001600020548260120160003373ffffffffffffffffffffffffffffffffffffffff1673ffffffffffffffffffffffffffffffffffffffff1681526020019081526020016000205484612cf09190615242565b11156130b35781600701600801548260140160003373ffffffffffffffffffffffffffffffffffffffff1673ffffffffffffffffffffffffffffffffffffffff168152602001908152602001600020548360120160003373ffffffffffffffffffffffffffffffffffffffff1673ffffffffffffffffffffffffffffffffffffffff1681526020019081526020016000205485612d8d9190615242565b612d979190615494565b1115612dd8576040517f08c379a0000000000000000000000000000000000000000000000000000000008152600401612dcf906150db565b60405180910390fd5b8160140160003373ffffffffffffffffffffffffffffffffffffffff1673ffffffffffffffffffffffffffffffffffffffff168152602001908152602001600020548260120160003373ffffffffffffffffffffffffffffffffffffffff1673ffffffffffffffffffffffffffffffffffffffff168152602001908152602001600020541015612f1d578160140160003373ffffffffffffffffffffffffffffffffffffffff1673ffffffffffffffffffffffffffffffffffffffff168152602001908152602001600020548260120160003373ffffffffffffffffffffffffffffffffffffffff1673ffffffffffffffffffffffffffffffffffffffff1681526020019081526020016000205484612ef19190615242565b612efb9190615494565b8260070160080154612f0d9190615494565b8260070160080181905550612f3c565b828260070160080154612f309190615494565b82600701600801819055505b828260030154612f4c9190615494565b8260030181905550828260070160010154612f679190615494565b8260070160010181905550828260120160003373ffffffffffffffffffffffffffffffffffffffff1673ffffffffffffffffffffffffffffffffffffffff16815260200190815260200160002054612fbf9190615242565b8260120160003373ffffffffffffffffffffffffffffffffffffffff1673ffffffffffffffffffffffffffffffffffffffff16815260200190815260200160002081905550348260130160003373ffffffffffffffffffffffffffffffffffffffff1673ffffffffffffffffffffffffffffffffffffffff168152602001908152602001600020546130519190615242565b8260130160003373ffffffffffffffffffffffffffffffffffffffff1673ffffffffffffffffffffffffffffffffffffffff168152602001908152602001600020819055503482600601546130a69190615242565b8260060181905550613226565b8282600301546130c39190615494565b82600301819055508282600701600101546130de9190615494565b8260070160010181905550828260120160003373ffffffffffffffffffffffffffffffffffffffff1673ffffffffffffffffffffffffffffffffffffffff168152602001908152602001600020546131369190615242565b8260120160003373ffffffffffffffffffffffffffffffffffffffff1673ffffffffffffffffffffffffffffffffffffffff16815260200190815260200160002081905550348260130160003373ffffffffffffffffffffffffffffffffffffffff1673ffffffffffffffffffffffffffffffffffffffff168152602001908152602001600020546131c89190615242565b8260130160003373ffffffffffffffffffffffffffffffffffffffff1673ffffffffffffffffffffffffffffffffffffffff1681526020019081526020016000208190555034826006015461321d9190615242565b82600601819055505b5b61346f565b8160140160003373ffffffffffffffffffffffffffffffffffffffff1673ffffffffffffffffffffffffffffffffffffffff168152602001908152602001600020548260120160003373ffffffffffffffffffffffffffffffffffffffff1673ffffffffffffffffffffffffffffffffffffffff16815260200190815260200160002054846132bb9190615242565b11156132fc576040517f08c379a00000000000000000000000000000000000000000000000000000000081526004016132f3906150db565b60405180910390fd5b82826003015461330c9190615494565b82600301819055508282600701600101546133279190615494565b8260070160010181905550828260120160003373ffffffffffffffffffffffffffffffffffffffff1673ffffffffffffffffffffffffffffffffffffffff1681526020019081526020016000205461337f9190615242565b8260120160003373ffffffffffffffffffffffffffffffffffffffff1673ffffffffffffffffffffffffffffffffffffffff16815260200190815260200160002081905550348260130160003373ffffffffffffffffffffffffffffffffffffffff1673ffffffffffffffffffffffffffffffffffffffff168152602001908152602001600020546134119190615242565b8260130160003373ffffffffffffffffffffffffffffffffffffffff1673ffffffffffffffffffffffffffffffffffffffff168152602001908152602001600020819055503482600601546134669190615242565b82600601819055505b50613a3d565b80600701600701548160120160003373ffffffffffffffffffffffffffffffffffffffff1673ffffffffffffffffffffffffffffffffffffffff16815260200190815260200160002054836134ca9190615242565b111561350b576040517f08c379a0000000000000000000000000000000000000000000000000000000008152600401613502906150db565b60405180910390fd5b8060070160080154821115613555576040517f08c379a000000000000000000000000000000000000000000000000000000000815260040161354c90614e9b565b60405180910390fd5b6000600560009054906101000a900473ffffffffffffffffffffffffffffffffffffffff1673ffffffffffffffffffffffffffffffffffffffff166370a08231336040518263ffffffff1660e01b81526004016135b29190614bc1565b60206040518083038186803b1580156135ca57600080fd5b505afa1580156135de573d6000803e3d6000fd5b505050506040513d601f19601f8201168201806040525081019061360291906145bd565b90506000600260009054906101000a900473ffffffffffffffffffffffffffffffffffffffff1673ffffffffffffffffffffffffffffffffffffffff166370a08231336040518263ffffffff1660e01b81526004016136619190614bc1565b60206040518083038186803b15801561367957600080fd5b505afa15801561368d573d6000803e3d6000fd5b505050506040513d601f19601f820116820180604052508101906136b191906145bd565b141580156136c6575081600701600601548110155b15613860578282600301546136db9190615494565b82600301819055508282600701600101546136f69190615494565b82600701600101819055508282600701600801546137149190615494565b8260070160080181905550828260120160003373ffffffffffffffffffffffffffffffffffffffff1673ffffffffffffffffffffffffffffffffffffffff1681526020019081526020016000205461376c9190615242565b8260120160003373ffffffffffffffffffffffffffffffffffffffff1673ffffffffffffffffffffffffffffffffffffffff16815260200190815260200160002081905550348260130160003373ffffffffffffffffffffffffffffffffffffffff1673ffffffffffffffffffffffffffffffffffffffff168152602001908152602001600020546137fe9190615242565b8260130160003373ffffffffffffffffffffffffffffffffffffffff1673ffffffffffffffffffffffffffffffffffffffff168152602001908152602001600020819055503482600601546138539190615242565b8260060181905550613a3b565b81600701600001548110156138aa576040517f08c379a00000000000000000000000000000000000000000000000000000000081526004016138a190614efb565b60405180910390fd5b8282600301546138ba9190615494565b82600301819055508282600701600101546138d59190615494565b8260070160010181905550828260120160003373ffffffffffffffffffffffffffffffffffffffff1673ffffffffffffffffffffffffffffffffffffffff1681526020019081526020016000205461392d9190615242565b8260120160003373ffffffffffffffffffffffffffffffffffffffff1673ffffffffffffffffffffffffffffffffffffffff16815260200190815260200160002081905550348260130160003373ffffffffffffffffffffffffffffffffffffffff1673ffffffffffffffffffffffffffffffffffffffff168152602001908152602001600020546139bf9190615242565b8260130160003373ffffffffffffffffffffffffffffffffffffffff1673ffffffffffffffffffffffffffffffffffffffff16815260200190815260200160002081905550348260060154613a149190615242565b8260060181905550828260070160080154613a2f9190615494565b82600701600801819055505b505b505050565b6000600760008573ffffffffffffffffffffffffffffffffffffffff1673ffffffffffffffffffffffffffffffffffffffff168152602001908152602001600020600084815260200190815260200160002060120160008373ffffffffffffffffffffffffffffffffffffffff1673ffffffffffffffffffffffffffffffffffffffff1681526020019081526020016000205490509392505050565b613ae6613c5c565b73ffffffffffffffffffffffffffffffffffffffff16613b04612278565b73ffffffffffffffffffffffffffffffffffffffff1614613b5a576040517f08c379a0000000000000000000000000000000000000000000000000000000008152600401613b5190614fdb565b60405180910390fd5b600073ffffffffffffffffffffffffffffffffffffffff168173ffffffffffffffffffffffffffffffffffffffff161415613bca576040517f08c379a0000000000000000000000000000000000000000000000000000000008152600401613bc190614e1b565b60405180910390fd5b613bd381613ced565b50565b613c578363a9059cbb60e01b8484604051602401613bf5929190614c13565b604051602081830303815290604052907bffffffffffffffffffffffffffffffffffffffffffffffffffffffff19166020820180517bffffffffffffffffffffffffffffffffffffffffffffffffffffffff8381831617835250505050613db1565b505050565b600033905090565b613ce7846323b872dd60e01b858585604051602401613c8593929190614bdc565b604051602081830303815290604052907bffffffffffffffffffffffffffffffffffffffffffffffffffffffff19166020820180517bffffffffffffffffffffffffffffffffffffffffffffffffffffffff8381831617835250505050613db1565b50505050565b60008060009054906101000a900473ffffffffffffffffffffffffffffffffffffffff169050816000806101000a81548173ffffffffffffffffffffffffffffffffffffffff021916908373ffffffffffffffffffffffffffffffffffffffff1602179055508173ffffffffffffffffffffffffffffffffffffffff168173ffffffffffffffffffffffffffffffffffffffff167f8be0079c531659141344cd1fd0a4f28419497f9722a3daafe3b4186f6b6457e060405160405180910390a35050565b6000613e13826040518060400160405280602081526020017f5361666545524332303a206c6f772d6c6576656c2063616c6c206661696c65648152508573ffffffffffffffffffffffffffffffffffffffff16613e789092919063ffffffff16565b9050600081511115613e735780806020019051810190613e339190614594565b613e72576040517f08c379a0000000000000000000000000000000000000000000000000000000008152600401613e699061505b565b60405180910390fd5b5b505050565b6060613e878484600085613e90565b90509392505050565b606082471015613ed5576040517f08c379a0000000000000000000000000000000000000000000000000000000008152600401613ecc90614f5b565b60405180910390fd5b613ede85613fa4565b613f1d576040517f08c379a0000000000000000000000000000000000000000000000000000000008152600401613f149061503b565b60405180910390fd5b6000808673ffffffffffffffffffffffffffffffffffffffff168587604051613f469190614baa565b60006040518083038185875af1925050503d8060008114613f83576040519150601f19603f3d011682016040523d82523d6000602084013e613f88565b606091505b5091509150613f98828286613fb7565b92505050949350505050565b600080823b905060008111915050919050565b60608315613fc757829050614017565b600083511115613fda5782518084602001fd5b816040517f08c379a000000000000000000000000000000000000000000000000000000000815260040161400e9190614d79565b60405180910390fd5b9392505050565b82805461402a90615571565b90600052602060002090601f01602090048101928261404c5760008555614093565b82601f1061406557805160ff1916838001178555614093565b82800160010185558215614093579182015b82811115614092578251825591602001919060010190614077565b5b5090506140a091906140a4565b5090565b5b808211156140bd5760008160009055506001016140a5565b5090565b60006140d46140cf8461513b565b615116565b905080838252602082019050828560208602820111156140f357600080fd5b60005b858110156141235781614109888261429d565b8452602084019350602083019250506001810190506140f6565b5050509392505050565b600061414061413b84615167565b615116565b9050808285602086028201111561415657600080fd5b60005b85811015614186578161416c8882614393565b845260208401935060208301925050600181019050614159565b5050509392505050565b60006141a361419e8461518d565b615116565b905080828560208602820111156141b957600080fd5b60005b858110156141e957816141cf8882614393565b8452602084019350602083019250506001810190506141bc565b5050509392505050565b6000614206614201846151b3565b615116565b9050808382526020820190508285602086028201111561422557600080fd5b60005b85811015614255578161423b8882614393565b845260208401935060208301925050600181019050614228565b5050509392505050565b600061427261426d846151df565b615116565b90508281526020810184848401111561428a57600080fd5b61429584828561552f565b509392505050565b6000813590506142ac81615f75565b92915050565b600082601f8301126142c357600080fd5b81356142d38482602086016140c1565b91505092915050565b600082601f8301126142ed57600080fd5b60026142fa84828561412d565b91505092915050565b600082601f83011261431457600080fd5b6007614321848285614190565b91505092915050565b600082601f83011261433b57600080fd5b813561434b8482602086016141f3565b91505092915050565b60008151905061436381615f8c565b92915050565b600082601f83011261437a57600080fd5b813561438a84826020860161425f565b91505092915050565b6000813590506143a281615fa3565b92915050565b6000815190506143b781615fa3565b92915050565b6000815190506143cc81615fba565b92915050565b6000602082840312156143e457600080fd5b60006143f28482850161429d565b91505092915050565b60008060008060008060008060006102008a8c03121561441a57600080fd5b60006144288c828d0161429d565b99505060208a013567ffffffffffffffff81111561444557600080fd5b6144518c828d01614369565b98505060406144628c828d01614393565b97505060606144738c828d01614393565b96505060806144848c828d01614393565b95505060a08a013567ffffffffffffffff8111156144a157600080fd5b6144ad8c828d016142b2565b94505060c08a013567ffffffffffffffff8111156144ca57600080fd5b6144d68c828d0161432a565b93505060e06144e78c828d01614303565b9250506101c06144f98c828d016142dc565b9150509295985092959850929598565b6000806040838503121561451c57600080fd5b600061452a8582860161429d565b925050602061453b85828601614393565b9150509250929050565b60008060006060848603121561455a57600080fd5b60006145688682870161429d565b935050602061457986828701614393565b925050604061458a8682870161429d565b9150509250925092565b6000602082840312156145a657600080fd5b60006145b484828501614354565b91505092915050565b6000602082840312156145cf57600080fd5b60006145dd848285016143a8565b91505092915050565b6000806000606084860312156145fb57600080fd5b6000614609868287016143a8565b935050602061461a868287016143a8565b925050604061462b868287016143a8565b9150509250925092565b60006020828403121561464757600080fd5b6000614655848285016143bd565b91505092915050565b614667816154c8565b82525050565b614676816154da565b82525050565b600061468782615210565b6146918185615226565b93506146a181856020860161553e565b80840191505092915050565b6146b68161551d565b82525050565b60006146c78261521b565b6146d18185615231565b93506146e181856020860161553e565b6146ea81615690565b840191505092915050565b6000614702605183615231565b915061470d826156ae565b606082019050919050565b6000614725602583615231565b915061473082615723565b604082019050919050565b6000614748602f83615231565b915061475382615772565b604082019050919050565b600061476b604d83615231565b9150614776826157c1565b606082019050919050565b600061478e602683615231565b915061479982615836565b604082019050919050565b60006147b1602c83615231565b91506147bc82615885565b604082019050919050565b60006147d4602e83615231565b91506147df826158d4565b604082019050919050565b60006147f7602283615231565b915061480282615923565b604082019050919050565b600061481a602683615231565b915061482582615972565b604082019050919050565b600061483d603a83615231565b9150614848826159c1565b604082019050919050565b6000614860602083615231565b915061486b82615a10565b602082019050919050565b6000614883603083615231565b915061488e82615a39565b604082019050919050565b60006148a6605183615231565b91506148b182615a88565b606082019050919050565b60006148c9604883615231565b91506148d482615afd565b606082019050919050565b60006148ec602683615231565b91506148f782615b72565b604082019050919050565b600061490f605983615231565b915061491a82615bc1565b606082019050919050565b6000614932604583615231565b915061493d82615c36565b606082019050919050565b6000614955602783615231565b915061496082615cab565b604082019050919050565b6000614978602083615231565b915061498382615cfa565b602082019050919050565b600061499b604083615231565b91506149a682615d23565b604082019050919050565b60006149be602f83615231565b91506149c982615d72565b604082019050919050565b60006149e1601d83615231565b91506149ec82615dc1565b602082019050919050565b6000614a04602a83615231565b9150614a0f82615dea565b604082019050919050565b6000614a27602d83615231565b9150614a3282615e39565b604082019050919050565b6000614a4a602683615231565b9150614a5582615e88565b604082019050919050565b6000614a6d602b83615231565b9150614a7882615ed7565b604082019050919050565b6000614a90602483615231565b9150614a9b82615f26565b604082019050919050565b61012082016000820151614abd6000850182614b8c565b506020820151614ad06020850182614b8c565b506040820151614ae36040850182614b8c565b506060820151614af66060850182614b8c565b506080820151614b096080850182614b8c565b5060a0820151614b1c60a0850182614b8c565b5060c0820151614b2f60c0850182614b8c565b5060e0820151614b4260e0850182614b8c565b50610100820151614b57610100850182614b8c565b50505050565b604082016000820151614b736000850182614b8c565b506020820151614b866020850182614b8c565b50505050565b614b9581615506565b82525050565b614ba481615506565b82525050565b6000614bb6828461467c565b915081905092915050565b6000602082019050614bd6600083018461465e565b92915050565b6000606082019050614bf1600083018661465e565b614bfe602083018561465e565b614c0b6040830184614b9b565b949350505050565b6000604082019050614c28600083018561465e565b614c356020830184614b9b565b9392505050565b600060c082019050614c51600083018961465e565b614c5e6020830188614b9b565b614c6b60408301876146ad565b614c7860608301866146ad565b614c85608083018561465e565b614c9260a0830184614b9b565b979650505050505050565b6000602082019050614cb2600083018461466d565b92915050565b60006102a082019050614cce600083018f61466d565b614cdb602083018e61466d565b614ce8604083018d61465e565b8181036060830152614cfa818c6146bc565b9050614d09608083018b614b9b565b614d1660a083018a614b9b565b614d2360c0830189614b9b565b614d3060e0830188614b9b565b614d3e610100830187614b9b565b614d4c610120830186614aa6565b614d5a610240830185614b5d565b614d68610280830184614b9b565b9d9c50505050505050505050505050565b60006020820190508181036000830152614d9381846146bc565b905092915050565b60006020820190508181036000830152614db4816146f5565b9050919050565b60006020820190508181036000830152614dd481614718565b9050919050565b60006020820190508181036000830152614df48161473b565b9050919050565b60006020820190508181036000830152614e148161475e565b9050919050565b60006020820190508181036000830152614e3481614781565b9050919050565b60006020820190508181036000830152614e54816147a4565b9050919050565b60006020820190508181036000830152614e74816147c7565b9050919050565b60006020820190508181036000830152614e94816147ea565b9050919050565b60006020820190508181036000830152614eb48161480d565b9050919050565b60006020820190508181036000830152614ed481614830565b9050919050565b60006020820190508181036000830152614ef481614853565b9050919050565b60006020820190508181036000830152614f1481614876565b9050919050565b60006020820190508181036000830152614f3481614899565b9050919050565b60006020820190508181036000830152614f54816148bc565b9050919050565b60006020820190508181036000830152614f74816148df565b9050919050565b60006020820190508181036000830152614f9481614902565b9050919050565b60006020820190508181036000830152614fb481614925565b9050919050565b60006020820190508181036000830152614fd481614948565b9050919050565b60006020820190508181036000830152614ff48161496b565b9050919050565b600060208201905081810360008301526150148161498e565b9050919050565b60006020820190508181036000830152615034816149b1565b9050919050565b60006020820190508181036000830152615054816149d4565b9050919050565b60006020820190508181036000830152615074816149f7565b9050919050565b6000602082019050818103600083015261509481614a1a565b9050919050565b600060208201905081810360008301526150b481614a3d565b9050919050565b600060208201905081810360008301526150d481614a60565b9050919050565b600060208201905081810360008301526150f481614a83565b9050919050565b60006020820190506151106000830184614b9b565b92915050565b6000615120615131565b905061512c82826155a3565b919050565b6000604051905090565b600067ffffffffffffffff82111561515657615155615661565b5b602082029050602081019050919050565b600067ffffffffffffffff82111561518257615181615661565b5b602082029050919050565b600067ffffffffffffffff8211156151a8576151a7615661565b5b602082029050919050565b600067ffffffffffffffff8211156151ce576151cd615661565b5b602082029050602081019050919050565b600067ffffffffffffffff8211156151fa576151f9615661565b5b61520382615690565b9050602081019050919050565b600081519050919050565b600081519050919050565b600081905092915050565b600082825260208201905092915050565b600061524d82615506565b915061525883615506565b9250827fffffffffffffffffffffffffffffffffffffffffffffffffffffffffffffffff0382111561528d5761528c6155d4565b5b828201905092915050565b60006152a382615506565b91506152ae83615506565b9250826152be576152bd615603565b5b828204905092915050565b6000808291508390505b6001851115615313578086048111156152ef576152ee6155d4565b5b60018516156152fe5780820291505b808102905061530c856156a1565b94506152d3565b94509492505050565b600061532782615506565b915061533283615510565b925061535f7fffffffffffffffffffffffffffffffffffffffffffffffffffffffffffffffff8484615367565b905092915050565b6000826153775760019050615433565b816153855760009050615433565b816001811461539b57600281146153a5576153d4565b6001915050615433565b60ff8411156153b7576153b66155d4565b5b8360020a9150848211156153ce576153cd6155d4565b5b50615433565b5060208310610133831016604e8410600b84101617156154095782820a905083811115615404576154036155d4565b5b615433565b61541684848460016152c9565b9250905081840481111561542d5761542c6155d4565b5b81810290505b9392505050565b600061544582615506565b915061545083615506565b9250817fffffffffffffffffffffffffffffffffffffffffffffffffffffffffffffffff0483118215151615615489576154886155d4565b5b828202905092915050565b600061549f82615506565b91506154aa83615506565b9250828210156154bd576154bc6155d4565b5b828203905092915050565b60006154d3826154e6565b9050919050565b60008115159050919050565b600073ffffffffffffffffffffffffffffffffffffffff82169050919050565b6000819050919050565b600060ff82169050919050565b600061552882615510565b9050919050565b82818337600083830152505050565b60005b8381101561555c578082015181840152602081019050615541565b8381111561556b576000848401525b50505050565b6000600282049050600182168061558957607f821691505b6020821081141561559d5761559c615632565b5b50919050565b6155ac82615690565b810181811067ffffffffffffffff821117156155cb576155ca615661565b5b80604052505050565b7f4e487b7100000000000000000000000000000000000000000000000000000000600052601160045260246000fd5b7f4e487b7100000000000000000000000000000000000000000000000000000000600052601260045260246000fd5b7f4e487b7100000000000000000000000000000000000000000000000000000000600052602260045260246000fd5b7f4e487b7100000000000000000000000000000000000000000000000000000000600052604160045260246000fd5b6000601f19601f8301169050919050565b60008160011c9050919050565b7f49444f506c6174666f726d3a2077686974656c6973742061646472657373206c60008201527f656e67746820646f6573206e6f74206d6174636820697473206d617820616d6f60208201527f756e74206c696d6974206c656e67657468000000000000000000000000000000604082015250565b7f49444f506c6174666f726d3a20596f75722049444f20616c726561647920737460008201527f6172746564000000000000000000000000000000000000000000000000000000602082015250565b7f49444f506c6174666f726d3a205468697320746f6b656e2049444f206973206160008201527f6c726561647920617070726f7665640000000000000000000000000000000000602082015250565b7f49444f506c6174666f726d3a20746f74616c20616d6f756e74206f662077686960008201527f6c656c6973742073686f756c64206e6f7420657863656564207072697661746560208201527f2073616c6520616d6f756e742100000000000000000000000000000000000000604082015250565b7f4f776e61626c653a206e6577206f776e657220697320746865207a65726f206160008201527f6464726573730000000000000000000000000000000000000000000000000000602082015250565b7f49444f506c6174666f726d3a205468697320746f6b656e2049444f206861732060008201527f6e6f742073746172746564210000000000000000000000000000000000000000602082015250565b7f49444f506c6174666f726d3a20596f757220616d6f756e74206f66207468697360008201527f20746f6b656e206973207a65726f000000000000000000000000000000000000602082015250565b7f49444f506c6174666f726d3a204e6f7420656e6f7567682043465820746f206260008201527f7579000000000000000000000000000000000000000000000000000000000000602082015250565b7f49444f506c6174666f726d3a204e6f7420656e6f75676820746f6b656e20746f60008201527f2074726164650000000000000000000000000000000000000000000000000000602082015250565b7f49444f506c6174666f726d3a205468697320746f6b656e2049444f206861732060008201527f6e6f74207374617274656420796574206f722065787069726564000000000000602082015250565b7f49444f506c6174666f726d3a2049444f206973207374696c6c20616374697665600082015250565b7f49444f506c6174666f726d3a20596f7572207665546f6b656e2063616e6e6f7460008201527f207265616368207468726573686f6c6400000000000000000000000000000000602082015250565b7f49444f506c6174666f726d3a2049444f20494420646f6573206e6f74206d617460008201527f636820746865206c617374657374206f6e652e20436f6e746163742061646d6960208201527f6e20746f20636865636b2069737375652e000000000000000000000000000000604082015250565b7f49444f506c6174666f726d3a205468697320746f6b656e2049444f20616c726560008201527f61647920656e7465726564207075626c69632073616c652e204e6f207072697660208201527f6174652073616c65000000000000000000000000000000000000000000000000604082015250565b7f416464726573733a20696e73756666696369656e742062616c616e636520666f60008201527f722063616c6c0000000000000000000000000000000000000000000000000000602082015250565b7f49444f506c6174666f726d3a205468697320746f6b656e2049444f20616c726560008201527f61647920656e746572726564207075626c69632073616c652e20416d6f756e7460208201527f20666f7220707269766174652073616c65206973207a65726f00000000000000604082015250565b7f49444f506c6174666f726d3a20596f752073746172742049444f20746f6f206c60008201527f6174652120436f6e746163742061646d696e20746f206368616e67652073636860208201527f6564756c65000000000000000000000000000000000000000000000000000000604082015250565b7f49444f506c6174666f726d3a2074696d657374616d702073657474696e67206960008201527f732077726f6e6700000000000000000000000000000000000000000000000000602082015250565b7f4f776e61626c653a2063616c6c6572206973206e6f7420746865206f776e6572600082015250565b7f49444f506c6174666f726d3a20707269766174652073616c6520616d6f756e7460008201527f2073686f756c64206e6f742065786365656420746f74616c20616d6f756e7421602082015250565b7f49444f506c6174666f726d3a20436f6e746163742061646d696e20746f20617060008201527f70726f76616c20796f75722049444f0000000000000000000000000000000000602082015250565b7f416464726573733a2063616c6c20746f206e6f6e2d636f6e7472616374000000600082015250565b7f5361666545524332303a204552433230206f7065726174696f6e20646964206e60008201527f6f74207375636365656400000000000000000000000000000000000000000000602082015250565b7f49444f506c6174666f726d3a205468697320746f6b656e2049444f206973206160008201527f6c72656164792061637469766500000000000000000000000000000000000000602082015250565b7f49444f506c6174666f726d3a205075626c69632073616c6520616c726561647960008201527f20656e6465640000000000000000000000000000000000000000000000000000602082015250565b7f49444f506c6174666f726d3a205468697320746f6b656e20697320616c72656160008201527f647920736f6c64206f7574000000000000000000000000000000000000000000602082015250565b7f49444f506c6174666f726d3a205265616368206d617820616d6f756e7420746f60008201527f2062757900000000000000000000000000000000000000000000000000000000602082015250565b615f7e816154c8565b8114615f8957600080fd5b50565b615f95816154da565b8114615fa057600080fd5b50565b615fac81615506565b8114615fb757600080fd5b50565b615fc381615510565b8114615fce57600080fd5b5056fea26469706673582212207a61a7cb2cbbfa50a1783c3fb50221f0f517a6b1dc1d9f5c27aff9eb27ccc7b764736f6c63430008020033",
  "linkReferences": {},
  "deployedLinkReferences": {}
}