{
  "_format": "hh-sol-artifact-1",
  "contractName": "idoplatform",
  "sourceName": "contracts/idoplatform.sol",
  "abi": [
    {
      "inputs": [
        {
          "internalType": "address",
          "name": "_token",
          "type": "address"
        },
        {
          "internalType": "address",
          "name": "_swappiNFT",
          "type": "address"
        },
        {
          "internalType": "address",
          "name": "_router",
          "type": "address"
        },
        {
          "internalType": "address",
          "name": "_swappiFactory",
          "type": "address"
        },
        {
          "internalType": "address",
          "name": "_votingEscrow",
          "type": "address"
        }
      ],
      "stateMutability": "nonpayable",
      "type": "constructor"
    },
    {
      "anonymous": false,
      "inputs": [
        {
          "indexed": true,
          "internalType": "address",
          "name": "previousOwner",
          "type": "address"
        },
        {
          "indexed": true,
          "internalType": "address",
          "name": "newOwner",
          "type": "address"
        }
      ],
      "name": "OwnershipTransferred",
      "type": "event"
    },
    {
      "inputs": [
        {
          "internalType": "address",
          "name": "token_addr",
          "type": "address"
        },
        {
          "internalType": "uint256",
          "name": "ido_id",
          "type": "uint256"
        }
      ],
      "name": "addIDOToken",
      "outputs": [],
      "stateMutability": "nonpayable",
      "type": "function"
    },
    {
      "inputs": [
        {
          "internalType": "address",
          "name": "token_addr",
          "type": "address"
        },
        {
          "internalType": "string",
          "name": "projectName",
          "type": "string"
        },
        {
          "internalType": "uint256",
          "name": "amt",
          "type": "uint256"
        },
        {
          "internalType": "uint256",
          "name": "ratioForLP",
          "type": "uint256"
        },
        {
          "internalType": "uint256",
          "name": "priceForLP",
          "type": "uint256"
        },
        {
          "internalType": "address[]",
          "name": "whitelistAddress",
          "type": "address[]"
        },
        {
          "internalType": "uint256[]",
          "name": "maxAmtPerEntryInWhitelist",
          "type": "uint256[]"
        },
        {
          "internalType": "uint256[7]",
          "name": "privateData",
          "type": "uint256[7]"
        },
        {
          "internalType": "uint256[2]",
          "name": "publicData",
          "type": "uint256[2]"
        }
      ],
      "name": "adminApproval",
      "outputs": [],
      "stateMutability": "nonpayable",
      "type": "function"
    },
    {
      "inputs": [
        {
          "internalType": "address",
          "name": "token_addr",
          "type": "address"
        },
        {
          "internalType": "uint256",
          "name": "IDOId",
          "type": "uint256"
        }
      ],
      "name": "claimAllTokens",
      "outputs": [],
      "stateMutability": "nonpayable",
      "type": "function"
    },
    {
      "inputs": [
        {
          "internalType": "address",
          "name": "",
          "type": "address"
        }
      ],
      "name": "currentIDOId",
      "outputs": [
        {
          "internalType": "uint256",
          "name": "",
          "type": "uint256"
        }
      ],
      "stateMutability": "view",
      "type": "function"
    },
    {
      "inputs": [
        {
          "internalType": "address",
          "name": "token_addr",
          "type": "address"
        },
        {
          "internalType": "uint256",
          "name": "IDOId",
          "type": "uint256"
        }
      ],
      "name": "finalize",
      "outputs": [
        {
          "internalType": "bool",
          "name": "",
          "type": "bool"
        }
      ],
      "stateMutability": "nonpayable",
      "type": "function"
    },
    {
      "inputs": [
        {
          "internalType": "address",
          "name": "token_addr",
          "type": "address"
        },
        {
          "internalType": "uint256",
          "name": "id",
          "type": "uint256"
        }
      ],
      "name": "getAmtOfCFXCollected",
      "outputs": [
        {
          "internalType": "uint256",
          "name": "",
          "type": "uint256"
        }
      ],
      "stateMutability": "view",
      "type": "function"
    },
    {
      "inputs": [
        {
          "internalType": "address",
          "name": "token_addr",
          "type": "address"
        },
        {
          "internalType": "uint256",
          "name": "id",
          "type": "uint256"
        },
        {
          "internalType": "address",
          "name": "buyer_addr",
          "type": "address"
        }
      ],
      "name": "getAmtOfCFXForBuyer",
      "outputs": [
        {
          "internalType": "uint256",
          "name": "",
          "type": "uint256"
        }
      ],
      "stateMutability": "view",
      "type": "function"
    },
    {
      "inputs": [
        {
          "internalType": "address",
          "name": "token_addr",
          "type": "address"
        },
        {
          "internalType": "uint256",
          "name": "id",
          "type": "uint256"
        },
        {
          "internalType": "address",
          "name": "buyer_addr",
          "type": "address"
        }
      ],
      "name": "getAmtOfTokenForBuyer",
      "outputs": [
        {
          "internalType": "uint256",
          "name": "",
          "type": "uint256"
        }
      ],
      "stateMutability": "view",
      "type": "function"
    },
    {
      "inputs": [
        {
          "internalType": "address",
          "name": "token_addr",
          "type": "address"
        }
      ],
      "name": "getCurrentIDOIdByTokenAddr",
      "outputs": [
        {
          "internalType": "uint256",
          "name": "",
          "type": "uint256"
        }
      ],
      "stateMutability": "view",
      "type": "function"
    },
    {
      "inputs": [
        {
          "internalType": "address",
          "name": "token_addr",
          "type": "address"
        },
        {
          "internalType": "uint256",
          "name": "id",
          "type": "uint256"
        }
      ],
      "name": "isIDOActiveByID",
      "outputs": [
        {
          "internalType": "bool",
          "name": "",
          "type": "bool"
        }
      ],
      "stateMutability": "view",
      "type": "function"
    },
    {
      "inputs": [
        {
          "internalType": "address",
          "name": "token_addr",
          "type": "address"
        },
        {
          "internalType": "uint256",
          "name": "id",
          "type": "uint256"
        },
        {
          "internalType": "address",
          "name": "buyer_addr",
          "type": "address"
        }
      ],
      "name": "isInWhitelist",
      "outputs": [
        {
          "internalType": "bool",
          "name": "",
          "type": "bool"
        }
      ],
      "stateMutability": "view",
      "type": "function"
    },
    {
      "inputs": [
        {
          "internalType": "address",
          "name": "token_addr",
          "type": "address"
        },
        {
          "internalType": "uint256",
          "name": "id",
          "type": "uint256"
        },
        {
          "internalType": "address",
          "name": "buyer_addr",
          "type": "address"
        }
      ],
      "name": "maxAmountInPrivateSaleByAddr",
      "outputs": [
        {
          "internalType": "uint256",
          "name": "",
          "type": "uint256"
        }
      ],
      "stateMutability": "view",
      "type": "function"
    },
    {
      "inputs": [],
      "name": "owner",
      "outputs": [
        {
          "internalType": "address",
          "name": "",
          "type": "address"
        }
      ],
      "stateMutability": "view",
      "type": "function"
    },
    {
      "inputs": [
        {
          "internalType": "address",
          "name": "token_addr",
          "type": "address"
        },
        {
          "internalType": "uint256",
          "name": "amt_to_buy",
          "type": "uint256"
        }
      ],
      "name": "privateSale",
      "outputs": [],
      "stateMutability": "payable",
      "type": "function"
    },
    {
      "inputs": [
        {
          "internalType": "address",
          "name": "token_addr",
          "type": "address"
        },
        {
          "internalType": "uint256",
          "name": "amt_to_buy",
          "type": "uint256"
        }
      ],
      "name": "publicSale",
      "outputs": [],
      "stateMutability": "payable",
      "type": "function"
    },
    {
      "inputs": [],
      "name": "renounceOwnership",
      "outputs": [],
      "stateMutability": "nonpayable",
      "type": "function"
    },
    {
      "inputs": [
        {
          "internalType": "address",
          "name": "",
          "type": "address"
        },
        {
          "internalType": "uint256",
          "name": "",
          "type": "uint256"
        }
      ],
      "name": "tokenInfo",
      "outputs": [
        {
          "internalType": "bool",
          "name": "isApproved",
          "type": "bool"
        },
        {
          "internalType": "bool",
          "name": "valid",
          "type": "bool"
        },
        {
          "internalType": "address",
          "name": "tokenOwner",
          "type": "address"
        },
        {
          "internalType": "string",
          "name": "projectName",
          "type": "string"
        },
        {
          "internalType": "uint256",
          "name": "totalAmt",
          "type": "uint256"
        },
        {
          "internalType": "uint256",
          "name": "amt",
          "type": "uint256"
        },
        {
          "internalType": "uint256",
          "name": "amtForLP",
          "type": "uint256"
        },
        {
          "internalType": "uint256",
          "name": "priceForLP",
          "type": "uint256"
        },
        {
          "internalType": "uint256",
          "name": "amtOfCFXCollected",
          "type": "uint256"
        },
        {
          "components": [
            {
              "internalType": "uint256",
              "name": "veTokenThreshold",
              "type": "uint256"
            },
            {
              "internalType": "uint256",
              "name": "amount",
              "type": "uint256"
            },
            {
              "internalType": "uint256",
              "name": "price",
              "type": "uint256"
            },
            {
              "internalType": "uint256",
              "name": "startTime",
              "type": "uint256"
            },
            {
              "internalType": "uint256",
              "name": "endTime",
              "type": "uint256"
            },
            {
              "internalType": "uint256",
              "name": "totalAmt",
              "type": "uint256"
            },
            {
              "internalType": "uint256",
              "name": "NFTThreshold",
              "type": "uint256"
            },
            {
              "internalType": "uint256",
              "name": "maxAmtPerBuyer",
              "type": "uint256"
            },
            {
              "internalType": "uint256",
              "name": "amountExcludingWhitelist",
              "type": "uint256"
            }
          ],
          "internalType": "struct idoplatform.privateSpecs",
          "name": "priSaleInfo",
          "type": "tuple"
        },
        {
          "components": [
            {
              "internalType": "uint256",
              "name": "price",
              "type": "uint256"
            },
            {
              "internalType": "uint256",
              "name": "endTime",
              "type": "uint256"
            }
          ],
          "internalType": "struct idoplatform.publicSpecs",
          "name": "pubSaleInfo",
          "type": "tuple"
        },
        {
          "internalType": "uint256",
          "name": "totalMaxAmountOfWhitelist",
          "type": "uint256"
        }
      ],
      "stateMutability": "view",
      "type": "function"
    },
    {
      "inputs": [
        {
          "internalType": "address",
          "name": "newOwner",
          "type": "address"
        }
      ],
      "name": "transferOwnership",
      "outputs": [],
      "stateMutability": "nonpayable",
      "type": "function"
    }
  ],
  "bytecode": "0x60806040523480156200001157600080fd5b50604051620065133803806200651383398181016040528101906200003791906200028a565b620000576200004b620001a760201b60201c565b620001af60201b60201c565b84600160006101000a81548173ffffffffffffffffffffffffffffffffffffffff021916908373ffffffffffffffffffffffffffffffffffffffff16021790555083600260006101000a81548173ffffffffffffffffffffffffffffffffffffffff021916908373ffffffffffffffffffffffffffffffffffffffff16021790555082600360006101000a81548173ffffffffffffffffffffffffffffffffffffffff021916908373ffffffffffffffffffffffffffffffffffffffff16021790555081600460006101000a81548173ffffffffffffffffffffffffffffffffffffffff021916908373ffffffffffffffffffffffffffffffffffffffff16021790555080600560006101000a81548173ffffffffffffffffffffffffffffffffffffffff021916908373ffffffffffffffffffffffffffffffffffffffff16021790555050505050506200035a565b600033905090565b60008060009054906101000a900473ffffffffffffffffffffffffffffffffffffffff169050816000806101000a81548173ffffffffffffffffffffffffffffffffffffffff021916908373ffffffffffffffffffffffffffffffffffffffff1602179055508173ffffffffffffffffffffffffffffffffffffffff168173ffffffffffffffffffffffffffffffffffffffff167f8be0079c531659141344cd1fd0a4f28419497f9722a3daafe3b4186f6b6457e060405160405180910390a35050565b600081519050620002848162000340565b92915050565b600080600080600060a08688031215620002a357600080fd5b6000620002b38882890162000273565b9550506020620002c68882890162000273565b9450506040620002d98882890162000273565b9350506060620002ec8882890162000273565b9250506080620002ff8882890162000273565b9150509295509295909350565b6000620003198262000320565b9050919050565b600073ffffffffffffffffffffffffffffffffffffffff82169050919050565b6200034b816200030c565b81146200035757600080fd5b50565b6161a9806200036a6000396000f3fe6080604052600436106101095760003560e01c80637634c01a11610095578063a3d3276811610064578063a3d3276814610392578063bb7d88a9146103cf578063d50a3d2c14610417578063f09eb79c14610433578063f2fde38b1461047057610109565b80637634c01a146102c457806387e4d2a7146103015780638d492e8b1461032a5780638da5cb5b1461036757610109565b8063191de784116100dc578063191de78414610202578063218db2841461022b57806339c92b8e14610268578063585fd73e14610291578063715018a6146102ad57610109565b8063019373191461010e5780630553e1561461014b5780630704cc881461018857806307691b80146101c5575b600080fd5b34801561011a57600080fd5b50610135600480360381019061013091906144e2565b610499565b604051610142919061524e565b60405180910390f35b34801561015757600080fd5b50610172600480360381019061016d9190614619565b6104e2565b60405161017f9190614dd0565b60405180910390f35b34801561019457600080fd5b506101af60048036038101906101aa9190614619565b610b0b565b6040516101bc9190614dd0565b60405180910390f35b3480156101d157600080fd5b506101ec60048036038101906101e79190614655565b610b76565b6040516101f9919061524e565b60405180910390f35b34801561020e57600080fd5b506102296004803603810190610224919061450b565b610d08565b005b34801561023757600080fd5b50610252600480360381019061024d9190614655565b6118f6565b60405161025f919061524e565b60405180910390f35b34801561027457600080fd5b5061028f600480360381019061028a9190614619565b611992565b005b6102ab60048036038101906102a69190614619565b611c24565b005b3480156102b957600080fd5b506102c2612085565b005b3480156102d057600080fd5b506102eb60048036038101906102e691906144e2565b61210d565b6040516102f8919061524e565b60405180910390f35b34801561030d57600080fd5b5061032860048036038101906103239190614619565b612125565b005b34801561033657600080fd5b50610351600480360381019061034c9190614655565b6122e9565b60405161035e9190614dd0565b60405180910390f35b34801561037357600080fd5b5061037c612388565b6040516103899190614cf4565b60405180910390f35b34801561039e57600080fd5b506103b960048036038101906103b49190614619565b6123b1565b6040516103c6919061524e565b60405180910390f35b3480156103db57600080fd5b506103f660048036038101906103f19190614619565b61240f565b60405161040e9c9b9a99989796959493929190614deb565b60405180910390f35b610431600480360381019061042c9190614619565b6125c1565b005b34801561043f57600080fd5b5061045a60048036038101906104559190614655565b613b52565b604051610467919061524e565b60405180910390f35b34801561047c57600080fd5b50610497600480360381019061049291906144e2565b613bee565b005b6000600660008373ffffffffffffffffffffffffffffffffffffffff1673ffffffffffffffffffffffffffffffffffffffff168152602001908152602001600020549050919050565b600080600760008573ffffffffffffffffffffffffffffffffffffffff1673ffffffffffffffffffffffffffffffffffffffff168152602001908152602001600020600084815260200190815260200160002090508060000160019054906101000a900460ff16801561056357508060000160009054906101000a900460ff165b15610aff574281601001600101541015610af55760008160000160016101000a81548160ff02191690831515021790555060008160000160006101000a81548160ff02191690831515021790555060008473ffffffffffffffffffffffffffffffffffffffff1663313ce5676040518163ffffffff1660e01b815260040160206040518083038186803b1580156105f957600080fd5b505afa15801561060d573d6000803e3d6000fd5b505050506040513d601f19601f820116820180604052508101906106319190614745565b600a61063d919061546f565b82600501548360040154610651919061558d565b61065b91906153eb565b905060008260060154821161067457826004015461071d565b8573ffffffffffffffffffffffffffffffffffffffff1663313ce5676040518163ffffffff1660e01b815260040160206040518083038186803b1580156106ba57600080fd5b505afa1580156106ce573d6000803e3d6000fd5b505050506040513d601f19601f820116820180604052508101906106f29190614745565b600a6106fe919061546f565b8360050154846006015461071291906153eb565b61071c919061558d565b5b90506000836006015483116107325782610738565b83600601545b90508673ffffffffffffffffffffffffffffffffffffffff1663095ea7b3600360009054906101000a900473ffffffffffffffffffffffffffffffffffffffff16846040518363ffffffff1660e01b8152600401610797929190614d46565b602060405180830381600087803b1580156107b157600080fd5b505af11580156107c5573d6000803e3d6000fd5b505050506040513d601f19601f820116820180604052508101906107e991906146a4565b50600080600360009054906101000a900473ffffffffffffffffffffffffffffffffffffffff1673ffffffffffffffffffffffffffffffffffffffff16838a866000808b60000160029054906101000a900473ffffffffffffffffffffffffffffffffffffffff1660014261085e9190615395565b60405160240161087396959493929190614d6f565b6040516020818303038152906040527ff305d719000000000000000000000000000000000000000000000000000000007bffffffffffffffffffffffffffffffffffffffffffffffffffffffff19166020820180517bffffffffffffffffffffffffffffffffffffffffffffffffffffffff83818316178352505050506040516108fd9190614cdd565b60006040518083038185875af1925050503d806000811461093a576040519150601f19603f3d011682016040523d82523d6000602084013e61093f565b606091505b50915091508115610a34576000808280602001905181019061096191906146f6565b50915091506109b38b8960000160029054906101000a900473ffffffffffffffffffffffffffffffffffffffff16848b600401548c600301546109a49190615395565b6109ae91906155e7565b613ce6565b8760000160029054906101000a900473ffffffffffffffffffffffffffffffffffffffff1673ffffffffffffffffffffffffffffffffffffffff166108fc828a60060154610a0191906155e7565b9081150290604051600060405180830381858888f19350505050158015610a2c573d6000803e3d6000fd5b505050610ae6565b610a76898760000160029054906101000a900473ffffffffffffffffffffffffffffffffffffffff1688600401548960030154610a719190615395565b613ce6565b8560000160029054906101000a900473ffffffffffffffffffffffffffffffffffffffff1673ffffffffffffffffffffffffffffffffffffffff166108fc87600601549081150290604051600060405180830381858888f19350505050158015610ae4573d6000803e3d6000fd5b505b60019650505050505050610b05565b6000915050610b05565b60009150505b92915050565b6000600760008473ffffffffffffffffffffffffffffffffffffffff1673ffffffffffffffffffffffffffffffffffffffff168152602001908152602001600020600083815260200190815260200160002060000160019054906101000a900460ff16905092915050565b600080600760008673ffffffffffffffffffffffffffffffffffffffff1673ffffffffffffffffffffffffffffffffffffffff168152602001908152602001600020600085815260200190815260200160002060140160008473ffffffffffffffffffffffffffffffffffffffff1673ffffffffffffffffffffffffffffffffffffffff1681526020019081526020016000205414610ca757600760008573ffffffffffffffffffffffffffffffffffffffff1673ffffffffffffffffffffffffffffffffffffffff168152602001908152602001600020600084815260200190815260200160002060140160008373ffffffffffffffffffffffffffffffffffffffff1673ffffffffffffffffffffffffffffffffffffffff168152602001908152602001600020549050610d01565b600760008573ffffffffffffffffffffffffffffffffffffffff1673ffffffffffffffffffffffffffffffffffffffff16815260200190815260200160002060008481526020019081526020016000206007016007015490505b9392505050565b610d10613d6c565b73ffffffffffffffffffffffffffffffffffffffff16610d2e612388565b73ffffffffffffffffffffffffffffffffffffffff1614610d84576040517f08c379a0000000000000000000000000000000000000000000000000000000008152600401610d7b9061510e565b60405180910390fd5b6000600660008b73ffffffffffffffffffffffffffffffffffffffff1673ffffffffffffffffffffffffffffffffffffffff1681526020019081526020016000205414610eb25760001515600760008b73ffffffffffffffffffffffffffffffffffffffff1673ffffffffffffffffffffffffffffffffffffffff1681526020019081526020016000206000600660008d73ffffffffffffffffffffffffffffffffffffffff1673ffffffffffffffffffffffffffffffffffffffff16815260200190815260200160002054815260200190815260200160002060000160019054906101000a900460ff16151514610eb1576040517f08c379a0000000000000000000000000000000000000000000000000000000008152600401610ea89061516e565b60405180910390fd5b5b6000600760008b73ffffffffffffffffffffffffffffffffffffffff1673ffffffffffffffffffffffffffffffffffffffff16815260200190815260200160002060006001600660008e73ffffffffffffffffffffffffffffffffffffffff1673ffffffffffffffffffffffffffffffffffffffff16815260200190815260200160002054610f419190615395565b81526020019081526020016000209050600015158160000160019054906101000a900460ff16151514610fa9576040517f08c379a0000000000000000000000000000000000000000000000000000000008152600401610fa0906151ce565b60405180910390fd5b600015158160000160009054906101000a900460ff16151514611001576040517f08c379a0000000000000000000000000000000000000000000000000000000008152600401610ff890614f0e565b60405180910390fd5b8260016007811061103b577f4e487b7100000000000000000000000000000000000000000000000000000000600052603260045260246000fd5b6020020151881015611082576040517f08c379a00000000000000000000000000000000000000000000000000000000081526004016110799061512e565b60405180910390fd5b42836003600781106110bd577f4e487b7100000000000000000000000000000000000000000000000000000000600052603260045260246000fd5b60200201511015801561114b575082600460078110611105577f4e487b7100000000000000000000000000000000000000000000000000000000600052603260045260246000fd5b602002015183600360078110611144577f4e487b7100000000000000000000000000000000000000000000000000000000600052603260045260246000fd5b6020020151105b80156111d257508160016002811061118c577f4e487b7100000000000000000000000000000000000000000000000000000000600052603260045260246000fd5b6020020151836004600781106111cb577f4e487b7100000000000000000000000000000000000000000000000000000000600052603260045260246000fd5b6020020151105b611211576040517f08c379a0000000000000000000000000000000000000000000000000000000008152600401611208906150ee565b60405180910390fd5b8351855114611255576040517f08c379a000000000000000000000000000000000000000000000000000000000815260040161124c90614ece565b60405180910390fd5b6000855190506000805b828110156112c9578681815181106112a0577f4e487b7100000000000000000000000000000000000000000000000000000000600052603260045260246000fd5b6020026020010151826112b39190615395565b91506001816112c29190615395565b905061125f565b508085600160078110611305577f4e487b7100000000000000000000000000000000000000000000000000000000600052603260045260246000fd5b6020020151101561134b576040517f08c379a000000000000000000000000000000000000000000000000000000000815260040161134290614f2e565b60405180910390fd5b60005b828110156114305786818151811061138f577f4e487b7100000000000000000000000000000000000000000000000000000000600052603260045260246000fd5b60200260200101518460140160008a84815181106113d6577f4e487b7100000000000000000000000000000000000000000000000000000000600052603260045260246000fd5b602002602001015173ffffffffffffffffffffffffffffffffffffffff1673ffffffffffffffffffffffffffffffffffffffff168152602001908152602001600020819055506001816114299190615395565b905061134e565b5060018360000160006101000a81548160ff02191690831515021790555060008360000160016101000a81548160ff0219169083151502179055508a83600101908051906020019061148392919061412e565b508983600201819055508983600301819055506064898b6114a4919061558d565b6114ae91906153eb565b8360040181905550878360050181905550600083600601819055506040518061012001604052808660006007811061150f577f4e487b7100000000000000000000000000000000000000000000000000000000600052603260045260246000fd5b6020020151815260200186600160078110611553577f4e487b7100000000000000000000000000000000000000000000000000000000600052603260045260246000fd5b6020020151815260200186600260078110611597577f4e487b7100000000000000000000000000000000000000000000000000000000600052603260045260246000fd5b60200201518152602001866003600781106115db577f4e487b7100000000000000000000000000000000000000000000000000000000600052603260045260246000fd5b602002015181526020018660046007811061161f577f4e487b7100000000000000000000000000000000000000000000000000000000600052603260045260246000fd5b6020020151815260200186600160078110611663577f4e487b7100000000000000000000000000000000000000000000000000000000600052603260045260246000fd5b60200201518152602001866005600781106116a7577f4e487b7100000000000000000000000000000000000000000000000000000000600052603260045260246000fd5b60200201518152602001866006600781106116eb577f4e487b7100000000000000000000000000000000000000000000000000000000600052603260045260246000fd5b602002015181526020018287600160078110611730577f4e487b7100000000000000000000000000000000000000000000000000000000600052603260045260246000fd5b602002015161173f91906155e7565b81525083600701600082015181600001556020820151816001015560408201518160020155606082015181600301556080820151816004015560a0820151816005015560c0820151816006015560e0820151816007015561010082015181600801559050506040518060400160405280856000600281106117e9577f4e487b7100000000000000000000000000000000000000000000000000000000600052603260045260246000fd5b602002015181526020018560016002811061182d577f4e487b7100000000000000000000000000000000000000000000000000000000600052603260045260246000fd5b60200201518152508360100160008201518160000155602082015181600101559050508083601501819055506001600660008e73ffffffffffffffffffffffffffffffffffffffff1673ffffffffffffffffffffffffffffffffffffffff168152602001908152602001600020546118a59190615395565b600660008e73ffffffffffffffffffffffffffffffffffffffff1673ffffffffffffffffffffffffffffffffffffffff16815260200190815260200160002081905550505050505050505050505050565b6000600760008573ffffffffffffffffffffffffffffffffffffffff1673ffffffffffffffffffffffffffffffffffffffff168152602001908152602001600020600084815260200190815260200160002060130160008373ffffffffffffffffffffffffffffffffffffffff1673ffffffffffffffffffffffffffffffffffffffff1681526020019081526020016000205490509392505050565b600660008373ffffffffffffffffffffffffffffffffffffffff1673ffffffffffffffffffffffffffffffffffffffff168152602001908152602001600020548114611a13576040517f08c379a0000000000000000000000000000000000000000000000000000000008152600401611a0a9061504e565b60405180910390fd5b6000600760008473ffffffffffffffffffffffffffffffffffffffff1673ffffffffffffffffffffffffffffffffffffffff1681526020019081526020016000206000600660008673ffffffffffffffffffffffffffffffffffffffff1673ffffffffffffffffffffffffffffffffffffffff1681526020019081526020016000205481526020019081526020016000209050600115158160000160009054906101000a900460ff16151514611afe576040517f08c379a0000000000000000000000000000000000000000000000000000000008152600401611af59061514e565b60405180910390fd5b600015158160000160019054906101000a900460ff16151514611b56576040517f08c379a0000000000000000000000000000000000000000000000000000000008152600401611b4d90614eee565b60405180910390fd5b4281600701600301541015611ba0576040517f08c379a0000000000000000000000000000000000000000000000000000000008152600401611b97906150ce565b60405180910390fd5b60018160000160016101000a81548160ff021916908315150217905550338160000160026101000a81548173ffffffffffffffffffffffffffffffffffffffff021916908373ffffffffffffffffffffffffffffffffffffffff160217905550611c1f83333084600401548560030154611c1a9190615395565b613d74565b505050565b6000600760008473ffffffffffffffffffffffffffffffffffffffff1673ffffffffffffffffffffffffffffffffffffffff1681526020019081526020016000206000600660008673ffffffffffffffffffffffffffffffffffffffff1673ffffffffffffffffffffffffffffffffffffffff1681526020019081526020016000205481526020019081526020016000209050600115158160000160019054906101000a900460ff16151514611d0f576040517f08c379a0000000000000000000000000000000000000000000000000000000008152600401611d0690614fee565b60405180910390fd5b428160070160040154111580611d2c575060008160070160010154145b611d6b576040517f08c379a0000000000000000000000000000000000000000000000000000000008152600401611d6290614f6e565b60405180910390fd5b4281601001600101541015611db5576040517f08c379a0000000000000000000000000000000000000000000000000000000008152600401611dac906151ee565b60405180910390fd5b6000816003015411611dfc576040517f08c379a0000000000000000000000000000000000000000000000000000000008152600401611df39061520e565b60405180910390fd5b8060030154821115611e43576040517f08c379a0000000000000000000000000000000000000000000000000000000008152600401611e3a90614fce565b60405180910390fd5b806010016000015482611e56919061558d565b8373ffffffffffffffffffffffffffffffffffffffff1663313ce5676040518163ffffffff1660e01b815260040160206040518083038186803b158015611e9c57600080fd5b505afa158015611eb0573d6000803e3d6000fd5b505050506040513d601f19601f82011682018060405250810190611ed49190614745565b600a611ee0919061546f565b34611eeb919061558d565b1015611f2c576040517f08c379a0000000000000000000000000000000000000000000000000000000008152600401611f2390614fae565b60405180910390fd5b818160030154611f3c91906155e7565b8160030181905550818160120160003373ffffffffffffffffffffffffffffffffffffffff1673ffffffffffffffffffffffffffffffffffffffff16815260200190815260200160002054611f919190615395565b8160120160003373ffffffffffffffffffffffffffffffffffffffff1673ffffffffffffffffffffffffffffffffffffffff16815260200190815260200160002081905550348160130160003373ffffffffffffffffffffffffffffffffffffffff1673ffffffffffffffffffffffffffffffffffffffff168152602001908152602001600020546120239190615395565b8160130160003373ffffffffffffffffffffffffffffffffffffffff1673ffffffffffffffffffffffffffffffffffffffff168152602001908152602001600020819055503481600601546120789190615395565b8160060181905550505050565b61208d613d6c565b73ffffffffffffffffffffffffffffffffffffffff166120ab612388565b73ffffffffffffffffffffffffffffffffffffffff1614612101576040517f08c379a00000000000000000000000000000000000000000000000000000000081526004016120f89061510e565b60405180910390fd5b61210b6000613dfd565b565b60066020528060005260406000206000915090505481565b61212f82826104e2565b506000600760008473ffffffffffffffffffffffffffffffffffffffff1673ffffffffffffffffffffffffffffffffffffffff16815260200190815260200160002060008381526020019081526020016000209050428160100160010154106121cd576040517f08c379a00000000000000000000000000000000000000000000000000000000081526004016121c49061500e565b60405180910390fd5b60008160120160003373ffffffffffffffffffffffffffffffffffffffff1673ffffffffffffffffffffffffffffffffffffffff1681526020019081526020016000205411612251576040517f08c379a000000000000000000000000000000000000000000000000000000000815260040161224890614f8e565b60405180910390fd5b61229d83338360120160003373ffffffffffffffffffffffffffffffffffffffff1673ffffffffffffffffffffffffffffffffffffffff16815260200190815260200160002054613ce6565b60008160120160003373ffffffffffffffffffffffffffffffffffffffff1673ffffffffffffffffffffffffffffffffffffffff16815260200190815260200160002081905550505050565b600080600760008673ffffffffffffffffffffffffffffffffffffffff1673ffffffffffffffffffffffffffffffffffffffff168152602001908152602001600020600085815260200190815260200160002060140160008473ffffffffffffffffffffffffffffffffffffffff1673ffffffffffffffffffffffffffffffffffffffff16815260200190815260200160002054141590509392505050565b60008060009054906101000a900473ffffffffffffffffffffffffffffffffffffffff16905090565b6000600760008473ffffffffffffffffffffffffffffffffffffffff1673ffffffffffffffffffffffffffffffffffffffff168152602001908152602001600020600083815260200190815260200160002060060154905092915050565b6007602052816000526040600020602052806000526040600020600091509150508060000160009054906101000a900460ff16908060000160019054906101000a900460ff16908060000160029054906101000a900473ffffffffffffffffffffffffffffffffffffffff169080600101805461248b906156c4565b80601f01602080910402602001604051908101604052809291908181526020018280546124b7906156c4565b80156125045780601f106124d957610100808354040283529160200191612504565b820191906000526020600020905b8154815290600101906020018083116124e757829003601f168201915b5050505050908060020154908060030154908060040154908060050154908060060154908060070160405180610120016040529081600082015481526020016001820154815260200160028201548152602001600382015481526020016004820154815260200160058201548152602001600682015481526020016007820154815260200160088201548152505090806010016040518060400160405290816000820154815260200160018201548152505090806015015490508c565b6000600760008473ffffffffffffffffffffffffffffffffffffffff1673ffffffffffffffffffffffffffffffffffffffff1681526020019081526020016000206000600660008673ffffffffffffffffffffffffffffffffffffffff1673ffffffffffffffffffffffffffffffffffffffff1681526020019081526020016000205481526020019081526020016000209050600115158160000160019054906101000a900460ff161515146126ac576040517f08c379a00000000000000000000000000000000000000000000000000000000081526004016126a390614fee565b60405180910390fd5b42816007016003015411156126f6576040517f08c379a00000000000000000000000000000000000000000000000000000000081526004016126ed90614f6e565b60405180910390fd5b4281600701600401541015612740576040517f08c379a00000000000000000000000000000000000000000000000000000000081526004016127379061506e565b60405180910390fd5b600081600701600101541161278a576040517f08c379a0000000000000000000000000000000000000000000000000000000008152600401612781906150ae565b60405180910390fd5b80600701600201548261279d919061558d565b8373ffffffffffffffffffffffffffffffffffffffff1663313ce5676040518163ffffffff1660e01b815260040160206040518083038186803b1580156127e357600080fd5b505afa1580156127f7573d6000803e3d6000fd5b505050506040513d601f19601f8201168201806040525081019061281b9190614745565b600a612827919061546f565b34612832919061558d565b1015612873576040517f08c379a000000000000000000000000000000000000000000000000000000000815260040161286a90614fae565b60405180910390fd5b60008160140160003373ffffffffffffffffffffffffffffffffffffffff1673ffffffffffffffffffffffffffffffffffffffff168152602001908152602001600020541115613585576000600560009054906101000a900473ffffffffffffffffffffffffffffffffffffffff1673ffffffffffffffffffffffffffffffffffffffff166370a08231336040518263ffffffff1660e01b815260040161291a9190614cf4565b60206040518083038186803b15801561293257600080fd5b505afa158015612946573d6000803e3d6000fd5b505050506040513d601f19601f8201168201806040525081019061296a91906146cd565b90506000600260009054906101000a900473ffffffffffffffffffffffffffffffffffffffff1673ffffffffffffffffffffffffffffffffffffffff166370a08231336040518263ffffffff1660e01b81526004016129c99190614cf4565b60206040518083038186803b1580156129e157600080fd5b505afa1580156129f5573d6000803e3d6000fd5b505050506040513d601f19601f82011682018060405250810190612a1991906146cd565b14158015612a2e575081600701600601548110155b80612a40575081600701600001548110155b1561333c5781600701600701548260140160003373ffffffffffffffffffffffffffffffffffffffff1673ffffffffffffffffffffffffffffffffffffffff1681526020019081526020016000205410612cdb578160140160003373ffffffffffffffffffffffffffffffffffffffff1673ffffffffffffffffffffffffffffffffffffffff168152602001908152602001600020548260120160003373ffffffffffffffffffffffffffffffffffffffff1673ffffffffffffffffffffffffffffffffffffffff1681526020019081526020016000205484612b239190615395565b1115612b64576040517f08c379a0000000000000000000000000000000000000000000000000000000008152600401612b5b9061522e565b60405180910390fd5b828260030154612b7491906155e7565b8260030181905550828260070160010154612b8f91906155e7565b8260070160010181905550828260120160003373ffffffffffffffffffffffffffffffffffffffff1673ffffffffffffffffffffffffffffffffffffffff16815260200190815260200160002054612be79190615395565b8260120160003373ffffffffffffffffffffffffffffffffffffffff1673ffffffffffffffffffffffffffffffffffffffff16815260200190815260200160002081905550348260130160003373ffffffffffffffffffffffffffffffffffffffff1673ffffffffffffffffffffffffffffffffffffffff16815260200190815260200160002054612c799190615395565b8260130160003373ffffffffffffffffffffffffffffffffffffffff1673ffffffffffffffffffffffffffffffffffffffff16815260200190815260200160002081905550348260060154612cce9190615395565b8260060181905550613337565b81600701600701548260120160003373ffffffffffffffffffffffffffffffffffffffff1673ffffffffffffffffffffffffffffffffffffffff1681526020019081526020016000205484612d309190615395565b1115612d71576040517f08c379a0000000000000000000000000000000000000000000000000000000008152600401612d689061522e565b60405180910390fd5b8160140160003373ffffffffffffffffffffffffffffffffffffffff1673ffffffffffffffffffffffffffffffffffffffff168152602001908152602001600020548260120160003373ffffffffffffffffffffffffffffffffffffffff1673ffffffffffffffffffffffffffffffffffffffff1681526020019081526020016000205484612e009190615395565b11156131c35781600701600801548260140160003373ffffffffffffffffffffffffffffffffffffffff1673ffffffffffffffffffffffffffffffffffffffff168152602001908152602001600020548360120160003373ffffffffffffffffffffffffffffffffffffffff1673ffffffffffffffffffffffffffffffffffffffff1681526020019081526020016000205485612e9d9190615395565b612ea791906155e7565b1115612ee8576040517f08c379a0000000000000000000000000000000000000000000000000000000008152600401612edf9061522e565b60405180910390fd5b8160140160003373ffffffffffffffffffffffffffffffffffffffff1673ffffffffffffffffffffffffffffffffffffffff168152602001908152602001600020548260120160003373ffffffffffffffffffffffffffffffffffffffff1673ffffffffffffffffffffffffffffffffffffffff16815260200190815260200160002054101561302d578160140160003373ffffffffffffffffffffffffffffffffffffffff1673ffffffffffffffffffffffffffffffffffffffff168152602001908152602001600020548260120160003373ffffffffffffffffffffffffffffffffffffffff1673ffffffffffffffffffffffffffffffffffffffff16815260200190815260200160002054846130019190615395565b61300b91906155e7565b826007016008015461301d91906155e7565b826007016008018190555061304c565b82826007016008015461304091906155e7565b82600701600801819055505b82826003015461305c91906155e7565b826003018190555082826007016001015461307791906155e7565b8260070160010181905550828260120160003373ffffffffffffffffffffffffffffffffffffffff1673ffffffffffffffffffffffffffffffffffffffff168152602001908152602001600020546130cf9190615395565b8260120160003373ffffffffffffffffffffffffffffffffffffffff1673ffffffffffffffffffffffffffffffffffffffff16815260200190815260200160002081905550348260130160003373ffffffffffffffffffffffffffffffffffffffff1673ffffffffffffffffffffffffffffffffffffffff168152602001908152602001600020546131619190615395565b8260130160003373ffffffffffffffffffffffffffffffffffffffff1673ffffffffffffffffffffffffffffffffffffffff168152602001908152602001600020819055503482600601546131b69190615395565b8260060181905550613336565b8282600301546131d391906155e7565b82600301819055508282600701600101546131ee91906155e7565b8260070160010181905550828260120160003373ffffffffffffffffffffffffffffffffffffffff1673ffffffffffffffffffffffffffffffffffffffff168152602001908152602001600020546132469190615395565b8260120160003373ffffffffffffffffffffffffffffffffffffffff1673ffffffffffffffffffffffffffffffffffffffff16815260200190815260200160002081905550348260130160003373ffffffffffffffffffffffffffffffffffffffff1673ffffffffffffffffffffffffffffffffffffffff168152602001908152602001600020546132d89190615395565b8260130160003373ffffffffffffffffffffffffffffffffffffffff1673ffffffffffffffffffffffffffffffffffffffff1681526020019081526020016000208190555034826006015461332d9190615395565b82600601819055505b5b61357f565b8160140160003373ffffffffffffffffffffffffffffffffffffffff1673ffffffffffffffffffffffffffffffffffffffff168152602001908152602001600020548260120160003373ffffffffffffffffffffffffffffffffffffffff1673ffffffffffffffffffffffffffffffffffffffff16815260200190815260200160002054846133cb9190615395565b111561340c576040517f08c379a00000000000000000000000000000000000000000000000000000000081526004016134039061522e565b60405180910390fd5b82826003015461341c91906155e7565b826003018190555082826007016001015461343791906155e7565b8260070160010181905550828260120160003373ffffffffffffffffffffffffffffffffffffffff1673ffffffffffffffffffffffffffffffffffffffff1681526020019081526020016000205461348f9190615395565b8260120160003373ffffffffffffffffffffffffffffffffffffffff1673ffffffffffffffffffffffffffffffffffffffff16815260200190815260200160002081905550348260130160003373ffffffffffffffffffffffffffffffffffffffff1673ffffffffffffffffffffffffffffffffffffffff168152602001908152602001600020546135219190615395565b8260130160003373ffffffffffffffffffffffffffffffffffffffff1673ffffffffffffffffffffffffffffffffffffffff168152602001908152602001600020819055503482600601546135769190615395565b82600601819055505b50613b4d565b80600701600701548160120160003373ffffffffffffffffffffffffffffffffffffffff1673ffffffffffffffffffffffffffffffffffffffff16815260200190815260200160002054836135da9190615395565b111561361b576040517f08c379a00000000000000000000000000000000000000000000000000000000081526004016136129061522e565b60405180910390fd5b8060070160080154821115613665576040517f08c379a000000000000000000000000000000000000000000000000000000000815260040161365c90614fce565b60405180910390fd5b6000600560009054906101000a900473ffffffffffffffffffffffffffffffffffffffff1673ffffffffffffffffffffffffffffffffffffffff166370a08231336040518263ffffffff1660e01b81526004016136c29190614cf4565b60206040518083038186803b1580156136da57600080fd5b505afa1580156136ee573d6000803e3d6000fd5b505050506040513d601f19601f8201168201806040525081019061371291906146cd565b90506000600260009054906101000a900473ffffffffffffffffffffffffffffffffffffffff1673ffffffffffffffffffffffffffffffffffffffff166370a08231336040518263ffffffff1660e01b81526004016137719190614cf4565b60206040518083038186803b15801561378957600080fd5b505afa15801561379d573d6000803e3d6000fd5b505050506040513d601f19601f820116820180604052508101906137c191906146cd565b141580156137d6575081600701600601548110155b15613970578282600301546137eb91906155e7565b826003018190555082826007016001015461380691906155e7565b826007016001018190555082826007016008015461382491906155e7565b8260070160080181905550828260120160003373ffffffffffffffffffffffffffffffffffffffff1673ffffffffffffffffffffffffffffffffffffffff1681526020019081526020016000205461387c9190615395565b8260120160003373ffffffffffffffffffffffffffffffffffffffff1673ffffffffffffffffffffffffffffffffffffffff16815260200190815260200160002081905550348260130160003373ffffffffffffffffffffffffffffffffffffffff1673ffffffffffffffffffffffffffffffffffffffff1681526020019081526020016000205461390e9190615395565b8260130160003373ffffffffffffffffffffffffffffffffffffffff1673ffffffffffffffffffffffffffffffffffffffff168152602001908152602001600020819055503482600601546139639190615395565b8260060181905550613b4b565b81600701600001548110156139ba576040517f08c379a00000000000000000000000000000000000000000000000000000000081526004016139b19061502e565b60405180910390fd5b8282600301546139ca91906155e7565b82600301819055508282600701600101546139e591906155e7565b8260070160010181905550828260120160003373ffffffffffffffffffffffffffffffffffffffff1673ffffffffffffffffffffffffffffffffffffffff16815260200190815260200160002054613a3d9190615395565b8260120160003373ffffffffffffffffffffffffffffffffffffffff1673ffffffffffffffffffffffffffffffffffffffff16815260200190815260200160002081905550348260130160003373ffffffffffffffffffffffffffffffffffffffff1673ffffffffffffffffffffffffffffffffffffffff16815260200190815260200160002054613acf9190615395565b8260130160003373ffffffffffffffffffffffffffffffffffffffff1673ffffffffffffffffffffffffffffffffffffffff16815260200190815260200160002081905550348260060154613b249190615395565b8260060181905550828260070160080154613b3f91906155e7565b82600701600801819055505b505b505050565b6000600760008573ffffffffffffffffffffffffffffffffffffffff1673ffffffffffffffffffffffffffffffffffffffff168152602001908152602001600020600084815260200190815260200160002060120160008373ffffffffffffffffffffffffffffffffffffffff1673ffffffffffffffffffffffffffffffffffffffff1681526020019081526020016000205490509392505050565b613bf6613d6c565b73ffffffffffffffffffffffffffffffffffffffff16613c14612388565b73ffffffffffffffffffffffffffffffffffffffff1614613c6a576040517f08c379a0000000000000000000000000000000000000000000000000000000008152600401613c619061510e565b60405180910390fd5b600073ffffffffffffffffffffffffffffffffffffffff168173ffffffffffffffffffffffffffffffffffffffff161415613cda576040517f08c379a0000000000000000000000000000000000000000000000000000000008152600401613cd190614f4e565b60405180910390fd5b613ce381613dfd565b50565b613d678363a9059cbb60e01b8484604051602401613d05929190614d46565b604051602081830303815290604052907bffffffffffffffffffffffffffffffffffffffffffffffffffffffff19166020820180517bffffffffffffffffffffffffffffffffffffffffffffffffffffffff8381831617835250505050613ec1565b505050565b600033905090565b613df7846323b872dd60e01b858585604051602401613d9593929190614d0f565b604051602081830303815290604052907bffffffffffffffffffffffffffffffffffffffffffffffffffffffff19166020820180517bffffffffffffffffffffffffffffffffffffffffffffffffffffffff8381831617835250505050613ec1565b50505050565b60008060009054906101000a900473ffffffffffffffffffffffffffffffffffffffff169050816000806101000a81548173ffffffffffffffffffffffffffffffffffffffff021916908373ffffffffffffffffffffffffffffffffffffffff1602179055508173ffffffffffffffffffffffffffffffffffffffff168173ffffffffffffffffffffffffffffffffffffffff167f8be0079c531659141344cd1fd0a4f28419497f9722a3daafe3b4186f6b6457e060405160405180910390a35050565b6000613f23826040518060400160405280602081526020017f5361666545524332303a206c6f772d6c6576656c2063616c6c206661696c65648152508573ffffffffffffffffffffffffffffffffffffffff16613f889092919063ffffffff16565b9050600081511115613f835780806020019051810190613f4391906146a4565b613f82576040517f08c379a0000000000000000000000000000000000000000000000000000000008152600401613f79906151ae565b60405180910390fd5b5b505050565b6060613f978484600085613fa0565b90509392505050565b606082471015613fe5576040517f08c379a0000000000000000000000000000000000000000000000000000000008152600401613fdc9061508e565b60405180910390fd5b613fee856140b4565b61402d576040517f08c379a00000000000000000000000000000000000000000000000000000000081526004016140249061518e565b60405180910390fd5b6000808673ffffffffffffffffffffffffffffffffffffffff1685876040516140569190614cdd565b60006040518083038185875af1925050503d8060008114614093576040519150601f19603f3d011682016040523d82523d6000602084013e614098565b606091505b50915091506140a88282866140c7565b92505050949350505050565b600080823b905060008111915050919050565b606083156140d757829050614127565b6000835111156140ea5782518084602001fd5b816040517f08c379a000000000000000000000000000000000000000000000000000000000815260040161411e9190614eac565b60405180910390fd5b9392505050565b82805461413a906156c4565b90600052602060002090601f01602090048101928261415c57600085556141a3565b82601f1061417557805160ff19168380011785556141a3565b828001600101855582156141a3579182015b828111156141a2578251825591602001919060010190614187565b5b5090506141b091906141b4565b5090565b5b808211156141cd5760008160009055506001016141b5565b5090565b60006141e46141df8461528e565b615269565b9050808382526020820190508285602086028201111561420357600080fd5b60005b85811015614233578161421988826143ad565b845260208401935060208301925050600181019050614206565b5050509392505050565b600061425061424b846152ba565b615269565b9050808285602086028201111561426657600080fd5b60005b85811015614296578161427c88826144a3565b845260208401935060208301925050600181019050614269565b5050509392505050565b60006142b36142ae846152e0565b615269565b905080828560208602820111156142c957600080fd5b60005b858110156142f957816142df88826144a3565b8452602084019350602083019250506001810190506142cc565b5050509392505050565b600061431661431184615306565b615269565b9050808382526020820190508285602086028201111561433557600080fd5b60005b85811015614365578161434b88826144a3565b845260208401935060208301925050600181019050614338565b5050509392505050565b600061438261437d84615332565b615269565b90508281526020810184848401111561439a57600080fd5b6143a5848285615682565b509392505050565b6000813590506143bc81616117565b92915050565b600082601f8301126143d357600080fd5b81356143e38482602086016141d1565b91505092915050565b600082601f8301126143fd57600080fd5b600261440a84828561423d565b91505092915050565b600082601f83011261442457600080fd5b60076144318482856142a0565b91505092915050565b600082601f83011261444b57600080fd5b813561445b848260208601614303565b91505092915050565b6000815190506144738161612e565b92915050565b600082601f83011261448a57600080fd5b813561449a84826020860161436f565b91505092915050565b6000813590506144b281616145565b92915050565b6000815190506144c781616145565b92915050565b6000815190506144dc8161615c565b92915050565b6000602082840312156144f457600080fd5b6000614502848285016143ad565b91505092915050565b60008060008060008060008060006102008a8c03121561452a57600080fd5b60006145388c828d016143ad565b99505060208a013567ffffffffffffffff81111561455557600080fd5b6145618c828d01614479565b98505060406145728c828d016144a3565b97505060606145838c828d016144a3565b96505060806145948c828d016144a3565b95505060a08a013567ffffffffffffffff8111156145b157600080fd5b6145bd8c828d016143c2565b94505060c08a013567ffffffffffffffff8111156145da57600080fd5b6145e68c828d0161443a565b93505060e06145f78c828d01614413565b9250506101c06146098c828d016143ec565b9150509295985092959850929598565b6000806040838503121561462c57600080fd5b600061463a858286016143ad565b925050602061464b858286016144a3565b9150509250929050565b60008060006060848603121561466a57600080fd5b6000614678868287016143ad565b9350506020614689868287016144a3565b925050604061469a868287016143ad565b9150509250925092565b6000602082840312156146b657600080fd5b60006146c484828501614464565b91505092915050565b6000602082840312156146df57600080fd5b60006146ed848285016144b8565b91505092915050565b60008060006060848603121561470b57600080fd5b6000614719868287016144b8565b935050602061472a868287016144b8565b925050604061473b868287016144b8565b9150509250925092565b60006020828403121561475757600080fd5b6000614765848285016144cd565b91505092915050565b6147778161561b565b82525050565b6147868161562d565b82525050565b600061479782615363565b6147a18185615379565b93506147b1818560208601615691565b80840191505092915050565b6147c681615670565b82525050565b60006147d78261536e565b6147e18185615384565b93506147f1818560208601615691565b6147fa816157e3565b840191505092915050565b6000614812605183615384565b915061481d82615801565b606082019050919050565b6000614835602583615384565b915061484082615876565b604082019050919050565b6000614858602f83615384565b9150614863826158c5565b604082019050919050565b600061487b604d83615384565b915061488682615914565b606082019050919050565b600061489e602683615384565b91506148a982615989565b604082019050919050565b60006148c1602c83615384565b91506148cc826159d8565b604082019050919050565b60006148e4602e83615384565b91506148ef82615a27565b604082019050919050565b6000614907602283615384565b915061491282615a76565b604082019050919050565b600061492a602683615384565b915061493582615ac5565b604082019050919050565b600061494d603a83615384565b915061495882615b14565b604082019050919050565b6000614970602083615384565b915061497b82615b63565b602082019050919050565b6000614993603083615384565b915061499e82615b8c565b604082019050919050565b60006149b6605183615384565b91506149c182615bdb565b606082019050919050565b60006149d9604883615384565b91506149e482615c50565b606082019050919050565b60006149fc602683615384565b9150614a0782615cc5565b604082019050919050565b6000614a1f605983615384565b9150614a2a82615d14565b606082019050919050565b6000614a42604583615384565b9150614a4d82615d89565b606082019050919050565b6000614a65602783615384565b9150614a7082615dfe565b604082019050919050565b6000614a88602083615384565b9150614a9382615e4d565b602082019050919050565b6000614aab604083615384565b9150614ab682615e76565b604082019050919050565b6000614ace602f83615384565b9150614ad982615ec5565b604082019050919050565b6000614af1602e83615384565b9150614afc82615f14565b604082019050919050565b6000614b14601d83615384565b9150614b1f82615f63565b602082019050919050565b6000614b37602a83615384565b9150614b4282615f8c565b604082019050919050565b6000614b5a602d83615384565b9150614b6582615fdb565b604082019050919050565b6000614b7d602683615384565b9150614b888261602a565b604082019050919050565b6000614ba0602b83615384565b9150614bab82616079565b604082019050919050565b6000614bc3602483615384565b9150614bce826160c8565b604082019050919050565b61012082016000820151614bf06000850182614cbf565b506020820151614c036020850182614cbf565b506040820151614c166040850182614cbf565b506060820151614c296060850182614cbf565b506080820151614c3c6080850182614cbf565b5060a0820151614c4f60a0850182614cbf565b5060c0820151614c6260c0850182614cbf565b5060e0820151614c7560e0850182614cbf565b50610100820151614c8a610100850182614cbf565b50505050565b604082016000820151614ca66000850182614cbf565b506020820151614cb96020850182614cbf565b50505050565b614cc881615659565b82525050565b614cd781615659565b82525050565b6000614ce9828461478c565b915081905092915050565b6000602082019050614d09600083018461476e565b92915050565b6000606082019050614d24600083018661476e565b614d31602083018561476e565b614d3e6040830184614cce565b949350505050565b6000604082019050614d5b600083018561476e565b614d686020830184614cce565b9392505050565b600060c082019050614d84600083018961476e565b614d916020830188614cce565b614d9e60408301876147bd565b614dab60608301866147bd565b614db8608083018561476e565b614dc560a0830184614cce565b979650505050505050565b6000602082019050614de5600083018461477d565b92915050565b60006102a082019050614e01600083018f61477d565b614e0e602083018e61477d565b614e1b604083018d61476e565b8181036060830152614e2d818c6147cc565b9050614e3c608083018b614cce565b614e4960a083018a614cce565b614e5660c0830189614cce565b614e6360e0830188614cce565b614e71610100830187614cce565b614e7f610120830186614bd9565b614e8d610240830185614c90565b614e9b610280830184614cce565b9d9c50505050505050505050505050565b60006020820190508181036000830152614ec681846147cc565b905092915050565b60006020820190508181036000830152614ee781614805565b9050919050565b60006020820190508181036000830152614f0781614828565b9050919050565b60006020820190508181036000830152614f278161484b565b9050919050565b60006020820190508181036000830152614f478161486e565b9050919050565b60006020820190508181036000830152614f6781614891565b9050919050565b60006020820190508181036000830152614f87816148b4565b9050919050565b60006020820190508181036000830152614fa7816148d7565b9050919050565b60006020820190508181036000830152614fc7816148fa565b9050919050565b60006020820190508181036000830152614fe78161491d565b9050919050565b6000602082019050818103600083015261500781614940565b9050919050565b6000602082019050818103600083015261502781614963565b9050919050565b6000602082019050818103600083015261504781614986565b9050919050565b60006020820190508181036000830152615067816149a9565b9050919050565b60006020820190508181036000830152615087816149cc565b9050919050565b600060208201905081810360008301526150a7816149ef565b9050919050565b600060208201905081810360008301526150c781614a12565b9050919050565b600060208201905081810360008301526150e781614a35565b9050919050565b6000602082019050818103600083015261510781614a58565b9050919050565b6000602082019050818103600083015261512781614a7b565b9050919050565b6000602082019050818103600083015261514781614a9e565b9050919050565b6000602082019050818103600083015261516781614ac1565b9050919050565b6000602082019050818103600083015261518781614ae4565b9050919050565b600060208201905081810360008301526151a781614b07565b9050919050565b600060208201905081810360008301526151c781614b2a565b9050919050565b600060208201905081810360008301526151e781614b4d565b9050919050565b6000602082019050818103600083015261520781614b70565b9050919050565b6000602082019050818103600083015261522781614b93565b9050919050565b6000602082019050818103600083015261524781614bb6565b9050919050565b60006020820190506152636000830184614cce565b92915050565b6000615273615284565b905061527f82826156f6565b919050565b6000604051905090565b600067ffffffffffffffff8211156152a9576152a86157b4565b5b602082029050602081019050919050565b600067ffffffffffffffff8211156152d5576152d46157b4565b5b602082029050919050565b600067ffffffffffffffff8211156152fb576152fa6157b4565b5b602082029050919050565b600067ffffffffffffffff821115615321576153206157b4565b5b602082029050602081019050919050565b600067ffffffffffffffff82111561534d5761534c6157b4565b5b615356826157e3565b9050602081019050919050565b600081519050919050565b600081519050919050565b600081905092915050565b600082825260208201905092915050565b60006153a082615659565b91506153ab83615659565b9250827fffffffffffffffffffffffffffffffffffffffffffffffffffffffffffffffff038211156153e0576153df615727565b5b828201905092915050565b60006153f682615659565b915061540183615659565b92508261541157615410615756565b5b828204905092915050565b6000808291508390505b60018511156154665780860481111561544257615441615727565b5b60018516156154515780820291505b808102905061545f856157f4565b9450615426565b94509492505050565b600061547a82615659565b915061548583615663565b92506154b27fffffffffffffffffffffffffffffffffffffffffffffffffffffffffffffffff84846154ba565b905092915050565b6000826154ca5760019050615586565b816154d85760009050615586565b81600181146154ee57600281146154f857615527565b6001915050615586565b60ff84111561550a57615509615727565b5b8360020a91508482111561552157615520615727565b5b50615586565b5060208310610133831016604e8410600b841016171561555c5782820a90508381111561555757615556615727565b5b615586565b615569848484600161541c565b925090508184048111156155805761557f615727565b5b81810290505b9392505050565b600061559882615659565b91506155a383615659565b9250817fffffffffffffffffffffffffffffffffffffffffffffffffffffffffffffffff04831182151516156155dc576155db615727565b5b828202905092915050565b60006155f282615659565b91506155fd83615659565b9250828210156156105761560f615727565b5b828203905092915050565b600061562682615639565b9050919050565b60008115159050919050565b600073ffffffffffffffffffffffffffffffffffffffff82169050919050565b6000819050919050565b600060ff82169050919050565b600061567b82615663565b9050919050565b82818337600083830152505050565b60005b838110156156af578082015181840152602081019050615694565b838111156156be576000848401525b50505050565b600060028204905060018216806156dc57607f821691505b602082108114156156f0576156ef615785565b5b50919050565b6156ff826157e3565b810181811067ffffffffffffffff8211171561571e5761571d6157b4565b5b80604052505050565b7f4e487b7100000000000000000000000000000000000000000000000000000000600052601160045260246000fd5b7f4e487b7100000000000000000000000000000000000000000000000000000000600052601260045260246000fd5b7f4e487b7100000000000000000000000000000000000000000000000000000000600052602260045260246000fd5b7f4e487b7100000000000000000000000000000000000000000000000000000000600052604160045260246000fd5b6000601f19601f8301169050919050565b60008160011c9050919050565b7f49444f506c6174666f726d3a2077686974656c6973742061646472657373206c60008201527f656e67746820646f6573206e6f74206d6174636820697473206d617820616d6f60208201527f756e74206c696d6974206c656e67657468000000000000000000000000000000604082015250565b7f49444f506c6174666f726d3a20596f75722049444f20616c726561647920737460008201527f6172746564000000000000000000000000000000000000000000000000000000602082015250565b7f49444f506c6174666f726d3a205468697320746f6b656e2049444f206973206160008201527f6c726561647920617070726f7665640000000000000000000000000000000000602082015250565b7f49444f506c6174666f726d3a20746f74616c20616d6f756e74206f662077686960008201527f6c656c6973742073686f756c64206e6f7420657863656564207072697661746560208201527f2073616c6520616d6f756e742100000000000000000000000000000000000000604082015250565b7f4f776e61626c653a206e6577206f776e657220697320746865207a65726f206160008201527f6464726573730000000000000000000000000000000000000000000000000000602082015250565b7f49444f506c6174666f726d3a205468697320746f6b656e2049444f206861732060008201527f6e6f742073746172746564210000000000000000000000000000000000000000602082015250565b7f49444f506c6174666f726d3a20596f757220616d6f756e74206f66207468697360008201527f20746f6b656e206973207a65726f000000000000000000000000000000000000602082015250565b7f49444f506c6174666f726d3a204e6f7420656e6f7567682043465820746f206260008201527f7579000000000000000000000000000000000000000000000000000000000000602082015250565b7f49444f506c6174666f726d3a204e6f7420656e6f75676820746f6b656e20746f60008201527f2074726164650000000000000000000000000000000000000000000000000000602082015250565b7f49444f506c6174666f726d3a205468697320746f6b656e2049444f206861732060008201527f6e6f74207374617274656420796574206f722065787069726564000000000000602082015250565b7f49444f506c6174666f726d3a2049444f206973207374696c6c20616374697665600082015250565b7f49444f506c6174666f726d3a20596f7572207665546f6b656e2063616e6e6f7460008201527f207265616368207468726573686f6c6400000000000000000000000000000000602082015250565b7f49444f506c6174666f726d3a2049444f20494420646f6573206e6f74206d617460008201527f636820746865206c617374657374206f6e652e20436f6e746163742061646d6960208201527f6e20746f20636865636b2069737375652e000000000000000000000000000000604082015250565b7f49444f506c6174666f726d3a205468697320746f6b656e2049444f20616c726560008201527f61647920656e7465726564207075626c69632073616c652e204e6f207072697660208201527f6174652073616c65000000000000000000000000000000000000000000000000604082015250565b7f416464726573733a20696e73756666696369656e742062616c616e636520666f60008201527f722063616c6c0000000000000000000000000000000000000000000000000000602082015250565b7f49444f506c6174666f726d3a205468697320746f6b656e2049444f20616c726560008201527f61647920656e746572726564207075626c69632073616c652e20416d6f756e7460208201527f20666f7220707269766174652073616c65206973207a65726f00000000000000604082015250565b7f49444f506c6174666f726d3a20596f752073746172742049444f20746f6f206c60008201527f6174652120436f6e746163742061646d696e20746f206368616e67652073636860208201527f6564756c65000000000000000000000000000000000000000000000000000000604082015250565b7f49444f506c6174666f726d3a2074696d657374616d702073657474696e67206960008201527f732077726f6e6700000000000000000000000000000000000000000000000000602082015250565b7f4f776e61626c653a2063616c6c6572206973206e6f7420746865206f776e6572600082015250565b7f49444f506c6174666f726d3a20707269766174652073616c6520616d6f756e7460008201527f2073686f756c64206e6f742065786365656420746f74616c20616d6f756e7421602082015250565b7f49444f506c6174666f726d3a20436f6e746163742061646d696e20746f20617060008201527f70726f76616c20796f75722049444f0000000000000000000000000000000000602082015250565b7f49444f506c6174666f726d3a205468697320746f6b656e2049444f206973206160008201527f6c7265616479206163746976652e000000000000000000000000000000000000602082015250565b7f416464726573733a2063616c6c20746f206e6f6e2d636f6e7472616374000000600082015250565b7f5361666545524332303a204552433230206f7065726174696f6e20646964206e60008201527f6f74207375636365656400000000000000000000000000000000000000000000602082015250565b7f49444f506c6174666f726d3a205468697320746f6b656e2049444f206973206160008201527f6c72656164792061637469766500000000000000000000000000000000000000602082015250565b7f49444f506c6174666f726d3a205075626c69632073616c6520616c726561647960008201527f20656e6465640000000000000000000000000000000000000000000000000000602082015250565b7f49444f506c6174666f726d3a205468697320746f6b656e20697320616c72656160008201527f647920736f6c64206f7574000000000000000000000000000000000000000000602082015250565b7f49444f506c6174666f726d3a205265616368206d617820616d6f756e7420746f60008201527f2062757900000000000000000000000000000000000000000000000000000000602082015250565b6161208161561b565b811461612b57600080fd5b50565b6161378161562d565b811461614257600080fd5b50565b61614e81615659565b811461615957600080fd5b50565b61616581615663565b811461617057600080fd5b5056fea2646970667358221220787e715a4f4e94211ec776f740db2b80a8de022019e8a724c645ee5f0c88405664736f6c63430008020033",
  "linkReferences": {},
  "deployedLinkReferences": {}
}